{
	"solidity_task1/StringReverser.sol": {
		"StringReverser": {
			"abi": [
				{
					"inputs": [
						{
							"internalType": "string",
							"name": "_str",
							"type": "string"
						}
					],
					"name": "reverse",
					"outputs": [
						{
							"internalType": "string",
							"name": "",
							"type": "string"
						}
					],
					"stateMutability": "pure",
					"type": "function"
				}
			],
			"devdoc": {
				"kind": "dev",
				"methods": {
					"reverse(string)": {
						"details": "反转字符串",
						"params": {
							"_str": "要反转的字符串"
						},
						"returns": {
							"_0": "反转后的字符串"
						}
					}
				},
				"version": 1
			},
			"evm": {
				"assembly": "    /* \"solidity_task1/StringReverser.sol\":60:955  contract StringReverser {... */\n  mstore(0x40, 0x80)\n  callvalue\n  dup1\n  iszero\n  tag_1\n  jumpi\n  revert(0x00, 0x00)\ntag_1:\n  pop\n  dataSize(sub_0)\n  dup1\n  dataOffset(sub_0)\n  0x00\n  codecopy\n  0x00\n  return\nstop\n\nsub_0: assembly {\n        /* \"solidity_task1/StringReverser.sol\":60:955  contract StringReverser {... */\n      mstore(0x40, 0x80)\n      callvalue\n      dup1\n      iszero\n      tag_1\n      jumpi\n      revert(0x00, 0x00)\n    tag_1:\n      pop\n      jumpi(tag_2, lt(calldatasize, 0x04))\n      shr(0xe0, calldataload(0x00))\n      dup1\n      0x064767aa\n      eq\n      tag_3\n      jumpi\n    tag_2:\n      revert(0x00, 0x00)\n        /* \"solidity_task1/StringReverser.sol\":218:952  function reverse(string memory _str) public pure returns (string memory) {... */\n    tag_3:\n      tag_4\n      0x04\n      dup1\n      calldatasize\n      sub\n      dup2\n      add\n      swap1\n      tag_5\n      swap2\n      swap1\n      tag_6\n      jump\t// in\n    tag_5:\n      tag_7\n      jump\t// in\n    tag_4:\n      mload(0x40)\n      tag_8\n      swap2\n      swap1\n      tag_9\n      jump\t// in\n    tag_8:\n      mload(0x40)\n      dup1\n      swap2\n      sub\n      swap1\n      return\n    tag_7:\n        /* \"solidity_task1/StringReverser.sol\":276:289  string memory */\n      0x60\n        /* \"solidity_task1/StringReverser.sol\":359:380  bytes memory strBytes */\n      0x00\n        /* \"solidity_task1/StringReverser.sol\":389:393  _str */\n      dup3\n        /* \"solidity_task1/StringReverser.sol\":359:394  bytes memory strBytes = bytes(_str) */\n      swap1\n      pop\n        /* \"solidity_task1/StringReverser.sol\":405:419  uint256 length */\n      0x00\n        /* \"solidity_task1/StringReverser.sol\":422:430  strBytes */\n      dup2\n        /* \"solidity_task1/StringReverser.sol\":422:437  strBytes.length */\n      mload\n        /* \"solidity_task1/StringReverser.sol\":405:437  uint256 length = strBytes.length */\n      swap1\n      pop\n        /* \"solidity_task1/StringReverser.sol\":534:535  0 */\n      0x00\n        /* \"solidity_task1/StringReverser.sol\":524:530  length */\n      dup2\n        /* \"solidity_task1/StringReverser.sol\":524:535  length == 0 */\n      eq\n        /* \"solidity_task1/StringReverser.sol\":524:550  length == 0 || length == 1 */\n      dup1\n      tag_11\n      jumpi\n      pop\n        /* \"solidity_task1/StringReverser.sol\":549:550  1 */\n      0x01\n        /* \"solidity_task1/StringReverser.sol\":539:545  length */\n      dup2\n        /* \"solidity_task1/StringReverser.sol\":539:550  length == 1 */\n      eq\n        /* \"solidity_task1/StringReverser.sol\":524:550  length == 0 || length == 1 */\n    tag_11:\n        /* \"solidity_task1/StringReverser.sol\":520:590  if (length == 0 || length == 1) {... */\n      iszero\n      tag_12\n      jumpi\n        /* \"solidity_task1/StringReverser.sol\":574:578  _str */\n      dup4\n        /* \"solidity_task1/StringReverser.sol\":567:578  return _str */\n      swap3\n      pop\n      pop\n      pop\n      jump(tag_10)\n        /* \"solidity_task1/StringReverser.sol\":520:590  if (length == 0 || length == 1) {... */\n    tag_12:\n        /* \"solidity_task1/StringReverser.sol\":664:685  bytes memory reversed */\n      0x00\n        /* \"solidity_task1/StringReverser.sol\":698:704  length */\n      dup2\n        /* \"solidity_task1/StringReverser.sol\":688:705  new bytes(length) */\n      0xffffffffffffffff\n      dup2\n      gt\n      iszero\n      tag_13\n      jumpi\n      tag_14\n      tag_15\n      jump\t// in\n    tag_14:\n    tag_13:\n      mload(0x40)\n      swap1\n      dup1\n      dup3\n      mstore\n      dup1\n      0x1f\n      add\n      not(0x1f)\n      and\n      0x20\n      add\n      dup3\n      add\n      0x40\n      mstore\n      dup1\n      iszero\n      tag_16\n      jumpi\n      dup2\n      0x20\n      add\n      0x01\n      dup3\n      mul\n      dup1\n      calldatasize\n      dup4\n      calldatacopy\n      dup1\n      dup3\n      add\n      swap2\n      pop\n      pop\n      swap1\n      pop\n    tag_16:\n      pop\n        /* \"solidity_task1/StringReverser.sol\":664:705  bytes memory reversed = new bytes(length) */\n      swap1\n      pop\n        /* \"solidity_task1/StringReverser.sol\":756:765  uint256 i */\n      0x00\n        /* \"solidity_task1/StringReverser.sol\":768:769  0 */\n      0x00\n        /* \"solidity_task1/StringReverser.sol\":756:769  uint256 i = 0 */\n      swap1\n      pop\n        /* \"solidity_task1/StringReverser.sol\":751:853  for (uint256 i = 0; i < length; i++) {... */\n    tag_17:\n        /* \"solidity_task1/StringReverser.sol\":775:781  length */\n      dup3\n        /* \"solidity_task1/StringReverser.sol\":771:772  i */\n      dup2\n        /* \"solidity_task1/StringReverser.sol\":771:781  i < length */\n      lt\n        /* \"solidity_task1/StringReverser.sol\":751:853  for (uint256 i = 0; i < length; i++) {... */\n      iszero\n      tag_18\n      jumpi\n        /* \"solidity_task1/StringReverser.sol\":817:825  strBytes */\n      dup4\n        /* \"solidity_task1/StringReverser.sol\":839:840  i */\n      dup2\n        /* \"solidity_task1/StringReverser.sol\":835:836  1 */\n      0x01\n        /* \"solidity_task1/StringReverser.sol\":826:832  length */\n      dup6\n        /* \"solidity_task1/StringReverser.sol\":826:836  length - 1 */\n      tag_20\n      swap2\n      swap1\n      tag_21\n      jump\t// in\n    tag_20:\n        /* \"solidity_task1/StringReverser.sol\":826:840  length - 1 - i */\n      tag_22\n      swap2\n      swap1\n      tag_21\n      jump\t// in\n    tag_22:\n        /* \"solidity_task1/StringReverser.sol\":817:841  strBytes[length - 1 - i] */\n      dup2\n      mload\n      dup2\n      lt\n      tag_23\n      jumpi\n      tag_24\n      tag_25\n      jump\t// in\n    tag_24:\n    tag_23:\n      0x20\n      add\n      add\n      mload\n      0xf8\n      shr\n      0xf8\n      shl\n        /* \"solidity_task1/StringReverser.sol\":803:811  reversed */\n      dup3\n        /* \"solidity_task1/StringReverser.sol\":812:813  i */\n      dup3\n        /* \"solidity_task1/StringReverser.sol\":803:814  reversed[i] */\n      dup2\n      mload\n      dup2\n      lt\n      tag_26\n      jumpi\n      tag_27\n      tag_25\n      jump\t// in\n    tag_27:\n    tag_26:\n      0x20\n      add\n      add\n        /* \"solidity_task1/StringReverser.sol\":803:841  reversed[i] = strBytes[length - 1 - i] */\n      swap1\n      not(0xffffffffffffffffffffffffffffffffffffffffffffffffffffffffffffff)\n      and\n      swap1\n      dup2\n      0x00\n      byte\n      swap1\n      mstore8\n      pop\n        /* \"solidity_task1/StringReverser.sol\":783:786  i++ */\n      dup1\n      dup1\n      0x01\n      add\n      swap2\n      pop\n      pop\n        /* \"solidity_task1/StringReverser.sol\":751:853  for (uint256 i = 0; i < length; i++) {... */\n      jump(tag_17)\n    tag_18:\n      pop\n        /* \"solidity_task1/StringReverser.sol\":935:943  reversed */\n      dup1\n        /* \"solidity_task1/StringReverser.sol\":921:944  return string(reversed) */\n      swap4\n      pop\n      pop\n      pop\n      pop\n        /* \"solidity_task1/StringReverser.sol\":218:952  function reverse(string memory _str) public pure returns (string memory) {... */\n    tag_10:\n      swap2\n      swap1\n      pop\n      jump\t// out\n        /* \"#utility.yul\":7:82   */\n    tag_28:\n        /* \"#utility.yul\":40:46   */\n      0x00\n        /* \"#utility.yul\":73:75   */\n      0x40\n        /* \"#utility.yul\":67:76   */\n      mload\n        /* \"#utility.yul\":57:76   */\n      swap1\n      pop\n        /* \"#utility.yul\":7:82   */\n      swap1\n      jump\t// out\n        /* \"#utility.yul\":88:205   */\n    tag_29:\n        /* \"#utility.yul\":197:198   */\n      0x00\n        /* \"#utility.yul\":194:195   */\n      0x00\n        /* \"#utility.yul\":187:199   */\n      revert\n        /* \"#utility.yul\":211:328   */\n    tag_30:\n        /* \"#utility.yul\":320:321   */\n      0x00\n        /* \"#utility.yul\":317:318   */\n      0x00\n        /* \"#utility.yul\":310:322   */\n      revert\n        /* \"#utility.yul\":334:451   */\n    tag_31:\n        /* \"#utility.yul\":443:444   */\n      0x00\n        /* \"#utility.yul\":440:441   */\n      0x00\n        /* \"#utility.yul\":433:445   */\n      revert\n        /* \"#utility.yul\":457:574   */\n    tag_32:\n        /* \"#utility.yul\":566:567   */\n      0x00\n        /* \"#utility.yul\":563:564   */\n      0x00\n        /* \"#utility.yul\":556:568   */\n      revert\n        /* \"#utility.yul\":580:682   */\n    tag_33:\n        /* \"#utility.yul\":621:627   */\n      0x00\n        /* \"#utility.yul\":672:674   */\n      0x1f\n        /* \"#utility.yul\":668:675   */\n      not\n        /* \"#utility.yul\":663:665   */\n      0x1f\n        /* \"#utility.yul\":656:661   */\n      dup4\n        /* \"#utility.yul\":652:666   */\n      add\n        /* \"#utility.yul\":648:676   */\n      and\n        /* \"#utility.yul\":638:676   */\n      swap1\n      pop\n        /* \"#utility.yul\":580:682   */\n      swap2\n      swap1\n      pop\n      jump\t// out\n        /* \"#utility.yul\":688:868   */\n    tag_15:\n        /* \"#utility.yul\":736:813   */\n      0x4e487b7100000000000000000000000000000000000000000000000000000000\n        /* \"#utility.yul\":733:734   */\n      0x00\n        /* \"#utility.yul\":726:814   */\n      mstore\n        /* \"#utility.yul\":833:837   */\n      0x41\n        /* \"#utility.yul\":830:831   */\n      0x04\n        /* \"#utility.yul\":823:838   */\n      mstore\n        /* \"#utility.yul\":857:861   */\n      0x24\n        /* \"#utility.yul\":854:855   */\n      0x00\n        /* \"#utility.yul\":847:862   */\n      revert\n        /* \"#utility.yul\":874:1155   */\n    tag_34:\n        /* \"#utility.yul\":957:984   */\n      tag_55\n        /* \"#utility.yul\":979:983   */\n      dup3\n        /* \"#utility.yul\":957:984   */\n      tag_33\n      jump\t// in\n    tag_55:\n        /* \"#utility.yul\":949:955   */\n      dup2\n        /* \"#utility.yul\":945:985   */\n      add\n        /* \"#utility.yul\":1087:1093   */\n      dup2\n        /* \"#utility.yul\":1075:1085   */\n      dup2\n        /* \"#utility.yul\":1072:1094   */\n      lt\n        /* \"#utility.yul\":1051:1069   */\n      0xffffffffffffffff\n        /* \"#utility.yul\":1039:1049   */\n      dup3\n        /* \"#utility.yul\":1036:1070   */\n      gt\n        /* \"#utility.yul\":1033:1095   */\n      or\n        /* \"#utility.yul\":1030:1118   */\n      iszero\n      tag_56\n      jumpi\n        /* \"#utility.yul\":1098:1116   */\n      tag_57\n      tag_15\n      jump\t// in\n    tag_57:\n        /* \"#utility.yul\":1030:1118   */\n    tag_56:\n        /* \"#utility.yul\":1138:1148   */\n      dup1\n        /* \"#utility.yul\":1134:1136   */\n      0x40\n        /* \"#utility.yul\":1127:1149   */\n      mstore\n        /* \"#utility.yul\":917:1155   */\n      pop\n        /* \"#utility.yul\":874:1155   */\n      pop\n      pop\n      jump\t// out\n        /* \"#utility.yul\":1161:1290   */\n    tag_35:\n        /* \"#utility.yul\":1195:1201   */\n      0x00\n        /* \"#utility.yul\":1222:1242   */\n      tag_59\n      tag_28\n      jump\t// in\n    tag_59:\n        /* \"#utility.yul\":1212:1242   */\n      swap1\n      pop\n        /* \"#utility.yul\":1251:1284   */\n      tag_60\n        /* \"#utility.yul\":1279:1283   */\n      dup3\n        /* \"#utility.yul\":1271:1277   */\n      dup3\n        /* \"#utility.yul\":1251:1284   */\n      tag_34\n      jump\t// in\n    tag_60:\n        /* \"#utility.yul\":1161:1290   */\n      swap2\n      swap1\n      pop\n      jump\t// out\n        /* \"#utility.yul\":1296:1604   */\n    tag_36:\n        /* \"#utility.yul\":1358:1362   */\n      0x00\n        /* \"#utility.yul\":1448:1466   */\n      0xffffffffffffffff\n        /* \"#utility.yul\":1440:1446   */\n      dup3\n        /* \"#utility.yul\":1437:1467   */\n      gt\n        /* \"#utility.yul\":1434:1490   */\n      iszero\n      tag_62\n      jumpi\n        /* \"#utility.yul\":1470:1488   */\n      tag_63\n      tag_15\n      jump\t// in\n    tag_63:\n        /* \"#utility.yul\":1434:1490   */\n    tag_62:\n        /* \"#utility.yul\":1508:1537   */\n      tag_64\n        /* \"#utility.yul\":1530:1536   */\n      dup3\n        /* \"#utility.yul\":1508:1537   */\n      tag_33\n      jump\t// in\n    tag_64:\n        /* \"#utility.yul\":1500:1537   */\n      swap1\n      pop\n        /* \"#utility.yul\":1592:1596   */\n      0x20\n        /* \"#utility.yul\":1586:1590   */\n      dup2\n        /* \"#utility.yul\":1582:1597   */\n      add\n        /* \"#utility.yul\":1574:1597   */\n      swap1\n      pop\n        /* \"#utility.yul\":1296:1604   */\n      swap2\n      swap1\n      pop\n      jump\t// out\n        /* \"#utility.yul\":1610:1758   */\n    tag_37:\n        /* \"#utility.yul\":1708:1714   */\n      dup3\n        /* \"#utility.yul\":1703:1706   */\n      dup2\n        /* \"#utility.yul\":1698:1701   */\n      dup4\n        /* \"#utility.yul\":1685:1715   */\n      calldatacopy\n        /* \"#utility.yul\":1749:1750   */\n      0x00\n        /* \"#utility.yul\":1740:1746   */\n      dup4\n        /* \"#utility.yul\":1735:1738   */\n      dup4\n        /* \"#utility.yul\":1731:1747   */\n      add\n        /* \"#utility.yul\":1724:1751   */\n      mstore\n        /* \"#utility.yul\":1610:1758   */\n      pop\n      pop\n      pop\n      jump\t// out\n        /* \"#utility.yul\":1764:2189   */\n    tag_38:\n        /* \"#utility.yul\":1842:1847   */\n      0x00\n        /* \"#utility.yul\":1867:1933   */\n      tag_67\n        /* \"#utility.yul\":1883:1932   */\n      tag_68\n        /* \"#utility.yul\":1925:1931   */\n      dup5\n        /* \"#utility.yul\":1883:1932   */\n      tag_36\n      jump\t// in\n    tag_68:\n        /* \"#utility.yul\":1867:1933   */\n      tag_35\n      jump\t// in\n    tag_67:\n        /* \"#utility.yul\":1858:1933   */\n      swap1\n      pop\n        /* \"#utility.yul\":1956:1962   */\n      dup3\n        /* \"#utility.yul\":1949:1954   */\n      dup2\n        /* \"#utility.yul\":1942:1963   */\n      mstore\n        /* \"#utility.yul\":1994:1998   */\n      0x20\n        /* \"#utility.yul\":1987:1992   */\n      dup2\n        /* \"#utility.yul\":1983:1999   */\n      add\n        /* \"#utility.yul\":2032:2035   */\n      dup5\n        /* \"#utility.yul\":2023:2029   */\n      dup5\n        /* \"#utility.yul\":2018:2021   */\n      dup5\n        /* \"#utility.yul\":2014:2030   */\n      add\n        /* \"#utility.yul\":2011:2036   */\n      gt\n        /* \"#utility.yul\":2008:2120   */\n      iszero\n      tag_69\n      jumpi\n        /* \"#utility.yul\":2039:2118   */\n      tag_70\n      tag_32\n      jump\t// in\n    tag_70:\n        /* \"#utility.yul\":2008:2120   */\n    tag_69:\n        /* \"#utility.yul\":2129:2183   */\n      tag_71\n        /* \"#utility.yul\":2176:2182   */\n      dup5\n        /* \"#utility.yul\":2171:2174   */\n      dup3\n        /* \"#utility.yul\":2166:2169   */\n      dup6\n        /* \"#utility.yul\":2129:2183   */\n      tag_37\n      jump\t// in\n    tag_71:\n        /* \"#utility.yul\":1848:2189   */\n      pop\n        /* \"#utility.yul\":1764:2189   */\n      swap4\n      swap3\n      pop\n      pop\n      pop\n      jump\t// out\n        /* \"#utility.yul\":2209:2549   */\n    tag_39:\n        /* \"#utility.yul\":2265:2270   */\n      0x00\n        /* \"#utility.yul\":2314:2317   */\n      dup3\n        /* \"#utility.yul\":2307:2311   */\n      0x1f\n        /* \"#utility.yul\":2299:2305   */\n      dup4\n        /* \"#utility.yul\":2295:2312   */\n      add\n        /* \"#utility.yul\":2291:2318   */\n      slt\n        /* \"#utility.yul\":2281:2403   */\n      tag_73\n      jumpi\n        /* \"#utility.yul\":2322:2401   */\n      tag_74\n      tag_31\n      jump\t// in\n    tag_74:\n        /* \"#utility.yul\":2281:2403   */\n    tag_73:\n        /* \"#utility.yul\":2439:2445   */\n      dup2\n        /* \"#utility.yul\":2426:2446   */\n      calldataload\n        /* \"#utility.yul\":2464:2543   */\n      tag_75\n        /* \"#utility.yul\":2539:2542   */\n      dup5\n        /* \"#utility.yul\":2531:2537   */\n      dup3\n        /* \"#utility.yul\":2524:2528   */\n      0x20\n        /* \"#utility.yul\":2516:2522   */\n      dup7\n        /* \"#utility.yul\":2512:2529   */\n      add\n        /* \"#utility.yul\":2464:2543   */\n      tag_38\n      jump\t// in\n    tag_75:\n        /* \"#utility.yul\":2455:2543   */\n      swap2\n      pop\n        /* \"#utility.yul\":2271:2549   */\n      pop\n        /* \"#utility.yul\":2209:2549   */\n      swap3\n      swap2\n      pop\n      pop\n      jump\t// out\n        /* \"#utility.yul\":2555:3064   */\n    tag_6:\n        /* \"#utility.yul\":2624:2630   */\n      0x00\n        /* \"#utility.yul\":2673:2675   */\n      0x20\n        /* \"#utility.yul\":2661:2670   */\n      dup3\n        /* \"#utility.yul\":2652:2659   */\n      dup5\n        /* \"#utility.yul\":2648:2671   */\n      sub\n        /* \"#utility.yul\":2644:2676   */\n      slt\n        /* \"#utility.yul\":2641:2760   */\n      iszero\n      tag_77\n      jumpi\n        /* \"#utility.yul\":2679:2758   */\n      tag_78\n      tag_29\n      jump\t// in\n    tag_78:\n        /* \"#utility.yul\":2641:2760   */\n    tag_77:\n        /* \"#utility.yul\":2827:2828   */\n      0x00\n        /* \"#utility.yul\":2816:2825   */\n      dup3\n        /* \"#utility.yul\":2812:2829   */\n      add\n        /* \"#utility.yul\":2799:2830   */\n      calldataload\n        /* \"#utility.yul\":2857:2875   */\n      0xffffffffffffffff\n        /* \"#utility.yul\":2849:2855   */\n      dup2\n        /* \"#utility.yul\":2846:2876   */\n      gt\n        /* \"#utility.yul\":2843:2960   */\n      iszero\n      tag_79\n      jumpi\n        /* \"#utility.yul\":2879:2958   */\n      tag_80\n      tag_30\n      jump\t// in\n    tag_80:\n        /* \"#utility.yul\":2843:2960   */\n    tag_79:\n        /* \"#utility.yul\":2984:3047   */\n      tag_81\n        /* \"#utility.yul\":3039:3046   */\n      dup5\n        /* \"#utility.yul\":3030:3036   */\n      dup3\n        /* \"#utility.yul\":3019:3028   */\n      dup6\n        /* \"#utility.yul\":3015:3037   */\n      add\n        /* \"#utility.yul\":2984:3047   */\n      tag_39\n      jump\t// in\n    tag_81:\n        /* \"#utility.yul\":2974:3047   */\n      swap2\n      pop\n        /* \"#utility.yul\":2770:3057   */\n      pop\n        /* \"#utility.yul\":2555:3064   */\n      swap3\n      swap2\n      pop\n      pop\n      jump\t// out\n        /* \"#utility.yul\":3070:3169   */\n    tag_40:\n        /* \"#utility.yul\":3122:3128   */\n      0x00\n        /* \"#utility.yul\":3156:3161   */\n      dup2\n        /* \"#utility.yul\":3150:3162   */\n      mload\n        /* \"#utility.yul\":3140:3162   */\n      swap1\n      pop\n        /* \"#utility.yul\":3070:3169   */\n      swap2\n      swap1\n      pop\n      jump\t// out\n        /* \"#utility.yul\":3175:3344   */\n    tag_41:\n        /* \"#utility.yul\":3259:3270   */\n      0x00\n        /* \"#utility.yul\":3293:3299   */\n      dup3\n        /* \"#utility.yul\":3288:3291   */\n      dup3\n        /* \"#utility.yul\":3281:3300   */\n      mstore\n        /* \"#utility.yul\":3333:3337   */\n      0x20\n        /* \"#utility.yul\":3328:3331   */\n      dup3\n        /* \"#utility.yul\":3324:3338   */\n      add\n        /* \"#utility.yul\":3309:3338   */\n      swap1\n      pop\n        /* \"#utility.yul\":3175:3344   */\n      swap3\n      swap2\n      pop\n      pop\n      jump\t// out\n        /* \"#utility.yul\":3350:3598   */\n    tag_42:\n        /* \"#utility.yul\":3432:3433   */\n      0x00\n        /* \"#utility.yul\":3442:3555   */\n    tag_85:\n        /* \"#utility.yul\":3456:3462   */\n      dup4\n        /* \"#utility.yul\":3453:3454   */\n      dup2\n        /* \"#utility.yul\":3450:3463   */\n      lt\n        /* \"#utility.yul\":3442:3555   */\n      iszero\n      tag_87\n      jumpi\n        /* \"#utility.yul\":3541:3542   */\n      dup1\n        /* \"#utility.yul\":3536:3539   */\n      dup3\n        /* \"#utility.yul\":3532:3543   */\n      add\n        /* \"#utility.yul\":3526:3544   */\n      mload\n        /* \"#utility.yul\":3522:3523   */\n      dup2\n        /* \"#utility.yul\":3517:3520   */\n      dup5\n        /* \"#utility.yul\":3513:3524   */\n      add\n        /* \"#utility.yul\":3506:3545   */\n      mstore\n        /* \"#utility.yul\":3478:3480   */\n      0x20\n        /* \"#utility.yul\":3475:3476   */\n      dup2\n        /* \"#utility.yul\":3471:3481   */\n      add\n        /* \"#utility.yul\":3466:3481   */\n      swap1\n      pop\n        /* \"#utility.yul\":3442:3555   */\n      jump(tag_85)\n    tag_87:\n        /* \"#utility.yul\":3589:3590   */\n      0x00\n        /* \"#utility.yul\":3580:3586   */\n      dup5\n        /* \"#utility.yul\":3575:3578   */\n      dup5\n        /* \"#utility.yul\":3571:3587   */\n      add\n        /* \"#utility.yul\":3564:3591   */\n      mstore\n        /* \"#utility.yul\":3412:3598   */\n      pop\n        /* \"#utility.yul\":3350:3598   */\n      pop\n      pop\n      pop\n      jump\t// out\n        /* \"#utility.yul\":3604:3981   */\n    tag_43:\n        /* \"#utility.yul\":3692:3695   */\n      0x00\n        /* \"#utility.yul\":3720:3759   */\n      tag_89\n        /* \"#utility.yul\":3753:3758   */\n      dup3\n        /* \"#utility.yul\":3720:3759   */\n      tag_40\n      jump\t// in\n    tag_89:\n        /* \"#utility.yul\":3775:3846   */\n      tag_90\n        /* \"#utility.yul\":3839:3845   */\n      dup2\n        /* \"#utility.yul\":3834:3837   */\n      dup6\n        /* \"#utility.yul\":3775:3846   */\n      tag_41\n      jump\t// in\n    tag_90:\n        /* \"#utility.yul\":3768:3846   */\n      swap4\n      pop\n        /* \"#utility.yul\":3855:3920   */\n      tag_91\n        /* \"#utility.yul\":3913:3919   */\n      dup2\n        /* \"#utility.yul\":3908:3911   */\n      dup6\n        /* \"#utility.yul\":3901:3905   */\n      0x20\n        /* \"#utility.yul\":3894:3899   */\n      dup7\n        /* \"#utility.yul\":3890:3906   */\n      add\n        /* \"#utility.yul\":3855:3920   */\n      tag_42\n      jump\t// in\n    tag_91:\n        /* \"#utility.yul\":3945:3974   */\n      tag_92\n        /* \"#utility.yul\":3967:3973   */\n      dup2\n        /* \"#utility.yul\":3945:3974   */\n      tag_33\n      jump\t// in\n    tag_92:\n        /* \"#utility.yul\":3940:3943   */\n      dup5\n        /* \"#utility.yul\":3936:3975   */\n      add\n        /* \"#utility.yul\":3929:3975   */\n      swap2\n      pop\n        /* \"#utility.yul\":3696:3981   */\n      pop\n        /* \"#utility.yul\":3604:3981   */\n      swap3\n      swap2\n      pop\n      pop\n      jump\t// out\n        /* \"#utility.yul\":3987:4300   */\n    tag_9:\n        /* \"#utility.yul\":4100:4104   */\n      0x00\n        /* \"#utility.yul\":4138:4140   */\n      0x20\n        /* \"#utility.yul\":4127:4136   */\n      dup3\n        /* \"#utility.yul\":4123:4141   */\n      add\n        /* \"#utility.yul\":4115:4141   */\n      swap1\n      pop\n        /* \"#utility.yul\":4187:4196   */\n      dup2\n        /* \"#utility.yul\":4181:4185   */\n      dup2\n        /* \"#utility.yul\":4177:4197   */\n      sub\n        /* \"#utility.yul\":4173:4174   */\n      0x00\n        /* \"#utility.yul\":4162:4171   */\n      dup4\n        /* \"#utility.yul\":4158:4175   */\n      add\n        /* \"#utility.yul\":4151:4198   */\n      mstore\n        /* \"#utility.yul\":4215:4293   */\n      tag_94\n        /* \"#utility.yul\":4288:4292   */\n      dup2\n        /* \"#utility.yul\":4279:4285   */\n      dup5\n        /* \"#utility.yul\":4215:4293   */\n      tag_43\n      jump\t// in\n    tag_94:\n        /* \"#utility.yul\":4207:4293   */\n      swap1\n      pop\n        /* \"#utility.yul\":3987:4300   */\n      swap3\n      swap2\n      pop\n      pop\n      jump\t// out\n        /* \"#utility.yul\":4306:4383   */\n    tag_44:\n        /* \"#utility.yul\":4343:4350   */\n      0x00\n        /* \"#utility.yul\":4372:4377   */\n      dup2\n        /* \"#utility.yul\":4361:4377   */\n      swap1\n      pop\n        /* \"#utility.yul\":4306:4383   */\n      swap2\n      swap1\n      pop\n      jump\t// out\n        /* \"#utility.yul\":4389:4569   */\n    tag_45:\n        /* \"#utility.yul\":4437:4514   */\n      0x4e487b7100000000000000000000000000000000000000000000000000000000\n        /* \"#utility.yul\":4434:4435   */\n      0x00\n        /* \"#utility.yul\":4427:4515   */\n      mstore\n        /* \"#utility.yul\":4534:4538   */\n      0x11\n        /* \"#utility.yul\":4531:4532   */\n      0x04\n        /* \"#utility.yul\":4524:4539   */\n      mstore\n        /* \"#utility.yul\":4558:4562   */\n      0x24\n        /* \"#utility.yul\":4555:4556   */\n      0x00\n        /* \"#utility.yul\":4548:4563   */\n      revert\n        /* \"#utility.yul\":4575:4769   */\n    tag_21:\n        /* \"#utility.yul\":4615:4619   */\n      0x00\n        /* \"#utility.yul\":4635:4655   */\n      tag_98\n        /* \"#utility.yul\":4653:4654   */\n      dup3\n        /* \"#utility.yul\":4635:4655   */\n      tag_44\n      jump\t// in\n    tag_98:\n        /* \"#utility.yul\":4630:4655   */\n      swap2\n      pop\n        /* \"#utility.yul\":4669:4689   */\n      tag_99\n        /* \"#utility.yul\":4687:4688   */\n      dup4\n        /* \"#utility.yul\":4669:4689   */\n      tag_44\n      jump\t// in\n    tag_99:\n        /* \"#utility.yul\":4664:4689   */\n      swap3\n      pop\n        /* \"#utility.yul\":4713:4714   */\n      dup3\n        /* \"#utility.yul\":4710:4711   */\n      dup3\n        /* \"#utility.yul\":4706:4715   */\n      sub\n        /* \"#utility.yul\":4698:4715   */\n      swap1\n      pop\n        /* \"#utility.yul\":4737:4738   */\n      dup2\n        /* \"#utility.yul\":4731:4735   */\n      dup2\n        /* \"#utility.yul\":4728:4739   */\n      gt\n        /* \"#utility.yul\":4725:4762   */\n      iszero\n      tag_100\n      jumpi\n        /* \"#utility.yul\":4742:4760   */\n      tag_101\n      tag_45\n      jump\t// in\n    tag_101:\n        /* \"#utility.yul\":4725:4762   */\n    tag_100:\n        /* \"#utility.yul\":4575:4769   */\n      swap3\n      swap2\n      pop\n      pop\n      jump\t// out\n        /* \"#utility.yul\":4775:4955   */\n    tag_25:\n        /* \"#utility.yul\":4823:4900   */\n      0x4e487b7100000000000000000000000000000000000000000000000000000000\n        /* \"#utility.yul\":4820:4821   */\n      0x00\n        /* \"#utility.yul\":4813:4901   */\n      mstore\n        /* \"#utility.yul\":4920:4924   */\n      0x32\n        /* \"#utility.yul\":4917:4918   */\n      0x04\n        /* \"#utility.yul\":4910:4925   */\n      mstore\n        /* \"#utility.yul\":4944:4948   */\n      0x24\n        /* \"#utility.yul\":4941:4942   */\n      0x00\n        /* \"#utility.yul\":4934:4949   */\n      revert\n\n    auxdata: 0xa264697066735822122019a3ea7787235b9024230604cfbab468fc7228376f6e95d300aceae2366afd3b64736f6c634300081e0033\n}\n",
				"bytecode": {
					"linkReferences": {},
					"object": "6080604052348015600e575f5ffd5b5061046c8061001c5f395ff3fe608060405234801561000f575f5ffd5b5060043610610029575f3560e01c8063064767aa1461002d575b5f5ffd5b610047600480360381019061004291906102bf565b61005d565b6040516100549190610380565b60405180910390f35b60605f8290505f815190505f8114806100765750600181145b1561008557839250505061016d565b5f8167ffffffffffffffff8111156100a05761009f61019b565b5b6040519080825280601f01601f1916602001820160405280156100d25781602001600182028036833780820191505090505b5090505f5f90505b828110156101655783816001856100f191906103d6565b6100fb91906103d6565b8151811061010c5761010b610409565b5b602001015160f81c60f81b82828151811061012a57610129610409565b5b60200101907effffffffffffffffffffffffffffffffffffffffffffffffffffffffffffff191690815f1a90535080806001019150506100da565b508093505050505b919050565b5f604051905090565b5f5ffd5b5f5ffd5b5f5ffd5b5f5ffd5b5f601f19601f8301169050919050565b7f4e487b71000000000000000000000000000000000000000000000000000000005f52604160045260245ffd5b6101d18261018b565b810181811067ffffffffffffffff821117156101f0576101ef61019b565b5b80604052505050565b5f610202610172565b905061020e82826101c8565b919050565b5f67ffffffffffffffff82111561022d5761022c61019b565b5b6102368261018b565b9050602081019050919050565b828183375f83830152505050565b5f61026361025e84610213565b6101f9565b90508281526020810184848401111561027f5761027e610187565b5b61028a848285610243565b509392505050565b5f82601f8301126102a6576102a5610183565b5b81356102b6848260208601610251565b91505092915050565b5f602082840312156102d4576102d361017b565b5b5f82013567ffffffffffffffff8111156102f1576102f061017f565b5b6102fd84828501610292565b91505092915050565b5f81519050919050565b5f82825260208201905092915050565b5f5b8381101561033d578082015181840152602081019050610322565b5f8484015250505050565b5f61035282610306565b61035c8185610310565b935061036c818560208601610320565b6103758161018b565b840191505092915050565b5f6020820190508181035f8301526103988184610348565b905092915050565b5f819050919050565b7f4e487b71000000000000000000000000000000000000000000000000000000005f52601160045260245ffd5b5f6103e0826103a0565b91506103eb836103a0565b9250828203905081811115610403576104026103a9565b5b92915050565b7f4e487b71000000000000000000000000000000000000000000000000000000005f52603260045260245ffdfea264697066735822122019a3ea7787235b9024230604cfbab468fc7228376f6e95d300aceae2366afd3b64736f6c634300081e0033",
					"opcodes": "PUSH1 0x80 PUSH1 0x40 MSTORE CALLVALUE DUP1 ISZERO PUSH1 0xE JUMPI PUSH0 PUSH0 REVERT JUMPDEST POP PUSH2 0x46C DUP1 PUSH2 0x1C PUSH0 CODECOPY PUSH0 RETURN INVALID PUSH1 0x80 PUSH1 0x40 MSTORE CALLVALUE DUP1 ISZERO PUSH2 0xF JUMPI PUSH0 PUSH0 REVERT JUMPDEST POP PUSH1 0x4 CALLDATASIZE LT PUSH2 0x29 JUMPI PUSH0 CALLDATALOAD PUSH1 0xE0 SHR DUP1 PUSH4 0x64767AA EQ PUSH2 0x2D JUMPI JUMPDEST PUSH0 PUSH0 REVERT JUMPDEST PUSH2 0x47 PUSH1 0x4 DUP1 CALLDATASIZE SUB DUP2 ADD SWAP1 PUSH2 0x42 SWAP2 SWAP1 PUSH2 0x2BF JUMP JUMPDEST PUSH2 0x5D JUMP JUMPDEST PUSH1 0x40 MLOAD PUSH2 0x54 SWAP2 SWAP1 PUSH2 0x380 JUMP JUMPDEST PUSH1 0x40 MLOAD DUP1 SWAP2 SUB SWAP1 RETURN JUMPDEST PUSH1 0x60 PUSH0 DUP3 SWAP1 POP PUSH0 DUP2 MLOAD SWAP1 POP PUSH0 DUP2 EQ DUP1 PUSH2 0x76 JUMPI POP PUSH1 0x1 DUP2 EQ JUMPDEST ISZERO PUSH2 0x85 JUMPI DUP4 SWAP3 POP POP POP PUSH2 0x16D JUMP JUMPDEST PUSH0 DUP2 PUSH8 0xFFFFFFFFFFFFFFFF DUP2 GT ISZERO PUSH2 0xA0 JUMPI PUSH2 0x9F PUSH2 0x19B JUMP JUMPDEST JUMPDEST PUSH1 0x40 MLOAD SWAP1 DUP1 DUP3 MSTORE DUP1 PUSH1 0x1F ADD PUSH1 0x1F NOT AND PUSH1 0x20 ADD DUP3 ADD PUSH1 0x40 MSTORE DUP1 ISZERO PUSH2 0xD2 JUMPI DUP2 PUSH1 0x20 ADD PUSH1 0x1 DUP3 MUL DUP1 CALLDATASIZE DUP4 CALLDATACOPY DUP1 DUP3 ADD SWAP2 POP POP SWAP1 POP JUMPDEST POP SWAP1 POP PUSH0 PUSH0 SWAP1 POP JUMPDEST DUP3 DUP2 LT ISZERO PUSH2 0x165 JUMPI DUP4 DUP2 PUSH1 0x1 DUP6 PUSH2 0xF1 SWAP2 SWAP1 PUSH2 0x3D6 JUMP JUMPDEST PUSH2 0xFB SWAP2 SWAP1 PUSH2 0x3D6 JUMP JUMPDEST DUP2 MLOAD DUP2 LT PUSH2 0x10C JUMPI PUSH2 0x10B PUSH2 0x409 JUMP JUMPDEST JUMPDEST PUSH1 0x20 ADD ADD MLOAD PUSH1 0xF8 SHR PUSH1 0xF8 SHL DUP3 DUP3 DUP2 MLOAD DUP2 LT PUSH2 0x12A JUMPI PUSH2 0x129 PUSH2 0x409 JUMP JUMPDEST JUMPDEST PUSH1 0x20 ADD ADD SWAP1 PUSH31 0xFFFFFFFFFFFFFFFFFFFFFFFFFFFFFFFFFFFFFFFFFFFFFFFFFFFFFFFFFFFFFF NOT AND SWAP1 DUP2 PUSH0 BYTE SWAP1 MSTORE8 POP DUP1 DUP1 PUSH1 0x1 ADD SWAP2 POP POP PUSH2 0xDA JUMP JUMPDEST POP DUP1 SWAP4 POP POP POP POP JUMPDEST SWAP2 SWAP1 POP JUMP JUMPDEST PUSH0 PUSH1 0x40 MLOAD SWAP1 POP SWAP1 JUMP JUMPDEST PUSH0 PUSH0 REVERT JUMPDEST PUSH0 PUSH0 REVERT JUMPDEST PUSH0 PUSH0 REVERT JUMPDEST PUSH0 PUSH0 REVERT JUMPDEST PUSH0 PUSH1 0x1F NOT PUSH1 0x1F DUP4 ADD AND SWAP1 POP SWAP2 SWAP1 POP JUMP JUMPDEST PUSH32 0x4E487B7100000000000000000000000000000000000000000000000000000000 PUSH0 MSTORE PUSH1 0x41 PUSH1 0x4 MSTORE PUSH1 0x24 PUSH0 REVERT JUMPDEST PUSH2 0x1D1 DUP3 PUSH2 0x18B JUMP JUMPDEST DUP2 ADD DUP2 DUP2 LT PUSH8 0xFFFFFFFFFFFFFFFF DUP3 GT OR ISZERO PUSH2 0x1F0 JUMPI PUSH2 0x1EF PUSH2 0x19B JUMP JUMPDEST JUMPDEST DUP1 PUSH1 0x40 MSTORE POP POP POP JUMP JUMPDEST PUSH0 PUSH2 0x202 PUSH2 0x172 JUMP JUMPDEST SWAP1 POP PUSH2 0x20E DUP3 DUP3 PUSH2 0x1C8 JUMP JUMPDEST SWAP2 SWAP1 POP JUMP JUMPDEST PUSH0 PUSH8 0xFFFFFFFFFFFFFFFF DUP3 GT ISZERO PUSH2 0x22D JUMPI PUSH2 0x22C PUSH2 0x19B JUMP JUMPDEST JUMPDEST PUSH2 0x236 DUP3 PUSH2 0x18B JUMP JUMPDEST SWAP1 POP PUSH1 0x20 DUP2 ADD SWAP1 POP SWAP2 SWAP1 POP JUMP JUMPDEST DUP3 DUP2 DUP4 CALLDATACOPY PUSH0 DUP4 DUP4 ADD MSTORE POP POP POP JUMP JUMPDEST PUSH0 PUSH2 0x263 PUSH2 0x25E DUP5 PUSH2 0x213 JUMP JUMPDEST PUSH2 0x1F9 JUMP JUMPDEST SWAP1 POP DUP3 DUP2 MSTORE PUSH1 0x20 DUP2 ADD DUP5 DUP5 DUP5 ADD GT ISZERO PUSH2 0x27F JUMPI PUSH2 0x27E PUSH2 0x187 JUMP JUMPDEST JUMPDEST PUSH2 0x28A DUP5 DUP3 DUP6 PUSH2 0x243 JUMP JUMPDEST POP SWAP4 SWAP3 POP POP POP JUMP JUMPDEST PUSH0 DUP3 PUSH1 0x1F DUP4 ADD SLT PUSH2 0x2A6 JUMPI PUSH2 0x2A5 PUSH2 0x183 JUMP JUMPDEST JUMPDEST DUP2 CALLDATALOAD PUSH2 0x2B6 DUP5 DUP3 PUSH1 0x20 DUP7 ADD PUSH2 0x251 JUMP JUMPDEST SWAP2 POP POP SWAP3 SWAP2 POP POP JUMP JUMPDEST PUSH0 PUSH1 0x20 DUP3 DUP5 SUB SLT ISZERO PUSH2 0x2D4 JUMPI PUSH2 0x2D3 PUSH2 0x17B JUMP JUMPDEST JUMPDEST PUSH0 DUP3 ADD CALLDATALOAD PUSH8 0xFFFFFFFFFFFFFFFF DUP2 GT ISZERO PUSH2 0x2F1 JUMPI PUSH2 0x2F0 PUSH2 0x17F JUMP JUMPDEST JUMPDEST PUSH2 0x2FD DUP5 DUP3 DUP6 ADD PUSH2 0x292 JUMP JUMPDEST SWAP2 POP POP SWAP3 SWAP2 POP POP JUMP JUMPDEST PUSH0 DUP2 MLOAD SWAP1 POP SWAP2 SWAP1 POP JUMP JUMPDEST PUSH0 DUP3 DUP3 MSTORE PUSH1 0x20 DUP3 ADD SWAP1 POP SWAP3 SWAP2 POP POP JUMP JUMPDEST PUSH0 JUMPDEST DUP4 DUP2 LT ISZERO PUSH2 0x33D JUMPI DUP1 DUP3 ADD MLOAD DUP2 DUP5 ADD MSTORE PUSH1 0x20 DUP2 ADD SWAP1 POP PUSH2 0x322 JUMP JUMPDEST PUSH0 DUP5 DUP5 ADD MSTORE POP POP POP POP JUMP JUMPDEST PUSH0 PUSH2 0x352 DUP3 PUSH2 0x306 JUMP JUMPDEST PUSH2 0x35C DUP2 DUP6 PUSH2 0x310 JUMP JUMPDEST SWAP4 POP PUSH2 0x36C DUP2 DUP6 PUSH1 0x20 DUP7 ADD PUSH2 0x320 JUMP JUMPDEST PUSH2 0x375 DUP2 PUSH2 0x18B JUMP JUMPDEST DUP5 ADD SWAP2 POP POP SWAP3 SWAP2 POP POP JUMP JUMPDEST PUSH0 PUSH1 0x20 DUP3 ADD SWAP1 POP DUP2 DUP2 SUB PUSH0 DUP4 ADD MSTORE PUSH2 0x398 DUP2 DUP5 PUSH2 0x348 JUMP JUMPDEST SWAP1 POP SWAP3 SWAP2 POP POP JUMP JUMPDEST PUSH0 DUP2 SWAP1 POP SWAP2 SWAP1 POP JUMP JUMPDEST PUSH32 0x4E487B7100000000000000000000000000000000000000000000000000000000 PUSH0 MSTORE PUSH1 0x11 PUSH1 0x4 MSTORE PUSH1 0x24 PUSH0 REVERT JUMPDEST PUSH0 PUSH2 0x3E0 DUP3 PUSH2 0x3A0 JUMP JUMPDEST SWAP2 POP PUSH2 0x3EB DUP4 PUSH2 0x3A0 JUMP JUMPDEST SWAP3 POP DUP3 DUP3 SUB SWAP1 POP DUP2 DUP2 GT ISZERO PUSH2 0x403 JUMPI PUSH2 0x402 PUSH2 0x3A9 JUMP JUMPDEST JUMPDEST SWAP3 SWAP2 POP POP JUMP JUMPDEST PUSH32 0x4E487B7100000000000000000000000000000000000000000000000000000000 PUSH0 MSTORE PUSH1 0x32 PUSH1 0x4 MSTORE PUSH1 0x24 PUSH0 REVERT INVALID LOG2 PUSH5 0x6970667358 0x22 SLT KECCAK256 NOT LOG3 0xEA PUSH24 0x87235B9024230604CFBAB468FC7228376F6E95D300ACEAE2 CALLDATASIZE PUSH11 0xFD3B64736F6C634300081E STOP CALLER "
				},
				"gasEstimates": {
					"creation": {
						"codeDepositCost": "226400",
						"executionCost": "267",
						"totalCost": "226667"
					},
					"external": {
						"reverse(string)": "infinite"
					}
				},
				"methodIdentifiers": {
					"reverse(string)": "064767aa"
				}
			},
			"storageLayout": {
				"storage": [],
				"types": null
			},
			"userdoc": {
				"kind": "user",
				"methods": {},
				"version": 1
			}
		}
	}
}