{
	"solidity_task1/Voting.sol": {
		"Voting": {
			"abi": [
				{
					"inputs": [],
					"stateMutability": "nonpayable",
					"type": "constructor"
				},
				{
					"anonymous": false,
					"inputs": [
						{
							"indexed": false,
							"internalType": "string",
							"name": "candidate",
							"type": "string"
						}
					],
					"name": "CandidateAdded",
					"type": "event"
				},
				{
					"anonymous": false,
					"inputs": [
						{
							"indexed": true,
							"internalType": "address",
							"name": "voter",
							"type": "address"
						},
						{
							"indexed": false,
							"internalType": "string",
							"name": "candidate",
							"type": "string"
						}
					],
					"name": "Voted",
					"type": "event"
				},
				{
					"anonymous": false,
					"inputs": [
						{
							"indexed": true,
							"internalType": "address",
							"name": "resetBy",
							"type": "address"
						}
					],
					"name": "VotesReset",
					"type": "event"
				},
				{
					"inputs": [
						{
							"internalType": "string",
							"name": "candidate",
							"type": "string"
						}
					],
					"name": "addCandidate",
					"outputs": [],
					"stateMutability": "nonpayable",
					"type": "function"
				},
				{
					"inputs": [],
					"name": "getAllCandidates",
					"outputs": [
						{
							"internalType": "string[]",
							"name": "",
							"type": "string[]"
						}
					],
					"stateMutability": "view",
					"type": "function"
				},
				{
					"inputs": [],
					"name": "getCandidateCount",
					"outputs": [
						{
							"internalType": "uint256",
							"name": "",
							"type": "uint256"
						}
					],
					"stateMutability": "view",
					"type": "function"
				},
				{
					"inputs": [
						{
							"internalType": "string",
							"name": "candidate",
							"type": "string"
						}
					],
					"name": "getVotes",
					"outputs": [
						{
							"internalType": "uint256",
							"name": "",
							"type": "uint256"
						}
					],
					"stateMutability": "view",
					"type": "function"
				},
				{
					"inputs": [
						{
							"internalType": "string",
							"name": "candidate",
							"type": "string"
						}
					],
					"name": "isCandidateExist",
					"outputs": [
						{
							"internalType": "bool",
							"name": "",
							"type": "bool"
						}
					],
					"stateMutability": "view",
					"type": "function"
				},
				{
					"inputs": [],
					"name": "owner",
					"outputs": [
						{
							"internalType": "address",
							"name": "",
							"type": "address"
						}
					],
					"stateMutability": "view",
					"type": "function"
				},
				{
					"inputs": [],
					"name": "resetVotes",
					"outputs": [],
					"stateMutability": "nonpayable",
					"type": "function"
				},
				{
					"inputs": [
						{
							"internalType": "string",
							"name": "candidate",
							"type": "string"
						}
					],
					"name": "vote",
					"outputs": [],
					"stateMutability": "nonpayable",
					"type": "function"
				}
			],
			"devdoc": {
				"kind": "dev",
				"methods": {
					"addCandidate(string)": {
						"details": "添加新候选人",
						"params": {
							"candidate": "候选人名称"
						}
					},
					"getAllCandidates()": {
						"details": "获取所有候选人列表",
						"returns": {
							"_0": "包含所有候选人的数组"
						}
					},
					"getCandidateCount()": {
						"details": "获取候选人数量",
						"returns": {
							"_0": "候选人总数"
						}
					},
					"getVotes(string)": {
						"details": "获取指定候选人的得票数",
						"params": {
							"candidate": "候选人名称"
						},
						"returns": {
							"_0": "该候选人的得票数"
						}
					},
					"isCandidateExist(string)": {
						"details": "检查候选人是否存在",
						"params": {
							"candidate": "候选人名称"
						},
						"returns": {
							"_0": "是否存在"
						}
					},
					"resetVotes()": {
						"details": "重置所有候选人的得票数（仅所有者可调用）"
					},
					"vote(string)": {
						"details": "给指定候选人投票",
						"params": {
							"candidate": "候选人名称"
						}
					}
				},
				"version": 1
			},
			"evm": {
				"assembly": "    /* \"solidity_task1/Voting.sol\":354:3419  contract Voting {... */\n  mstore(0x40, 0x80)\n    /* \"solidity_task1/Voting.sol\":942:993  constructor() {... */\n  callvalue\n  dup1\n  iszero\n  tag_1\n  jumpi\n  revert(0x00, 0x00)\ntag_1:\n  pop\n    /* \"solidity_task1/Voting.sol\":975:985  msg.sender */\n  caller\n    /* \"solidity_task1/Voting.sol\":967:972  owner */\n  0x03\n  0x00\n    /* \"solidity_task1/Voting.sol\":967:985  owner = msg.sender */\n  0x0100\n  exp\n  dup2\n  sload\n  dup2\n  0xffffffffffffffffffffffffffffffffffffffff\n  mul\n  not\n  and\n  swap1\n  dup4\n  0xffffffffffffffffffffffffffffffffffffffff\n  and\n  mul\n  or\n  swap1\n  sstore\n  pop\n    /* \"solidity_task1/Voting.sol\":354:3419  contract Voting {... */\n  dataSize(sub_0)\n  dup1\n  dataOffset(sub_0)\n  0x00\n  codecopy\n  0x00\n  return\nstop\n\nsub_0: assembly {\n        /* \"solidity_task1/Voting.sol\":354:3419  contract Voting {... */\n      mstore(0x40, 0x80)\n      callvalue\n      dup1\n      iszero\n      tag_1\n      jumpi\n      revert(0x00, 0x00)\n    tag_1:\n      pop\n      jumpi(tag_2, lt(calldatasize, 0x04))\n      shr(0xe0, calldataload(0x00))\n      dup1\n      0x805265e5\n      gt\n      tag_11\n      jumpi\n      dup1\n      0x805265e5\n      eq\n      tag_7\n      jumpi\n      dup1\n      0x8da5cb5b\n      eq\n      tag_8\n      jumpi\n      dup1\n      0xb9830ff1\n      eq\n      tag_9\n      jumpi\n      dup1\n      0xfc36e15b\n      eq\n      tag_10\n      jumpi\n      jump(tag_2)\n    tag_11:\n      dup1\n      0x2e6997fe\n      eq\n      tag_3\n      jumpi\n      dup1\n      0x30a56347\n      eq\n      tag_4\n      jumpi\n      dup1\n      0x462e91ec\n      eq\n      tag_5\n      jumpi\n      dup1\n      0x7e797dee\n      eq\n      tag_6\n      jumpi\n    tag_2:\n      revert(0x00, 0x00)\n        /* \"solidity_task1/Voting.sol\":2542:2644  function getAllCandidates() public view returns (string[] memory) {... */\n    tag_3:\n      tag_12\n      tag_13\n      jump\t// in\n    tag_12:\n      mload(0x40)\n      tag_14\n      swap2\n      swap1\n      tag_15\n      jump\t// in\n    tag_14:\n      mload(0x40)\n      dup1\n      swap2\n      sub\n      swap1\n      return\n        /* \"solidity_task1/Voting.sol\":3043:3145  function getCandidateCount() public view returns (uint256) {... */\n    tag_4:\n      tag_16\n      tag_17\n      jump\t// in\n    tag_16:\n      mload(0x40)\n      tag_18\n      swap2\n      swap1\n      tag_19\n      jump\t// in\n    tag_18:\n      mload(0x40)\n      dup1\n      swap2\n      sub\n      swap1\n      return\n        /* \"solidity_task1/Voting.sol\":1286:1730  function addCandidate(string memory candidate) public onlyOwner {... */\n    tag_5:\n      tag_20\n      0x04\n      dup1\n      calldatasize\n      sub\n      dup2\n      add\n      swap1\n      tag_21\n      swap2\n      swap1\n      tag_22\n      jump\t// in\n    tag_21:\n      tag_23\n      jump\t// in\n    tag_20:\n      stop\n        /* \"solidity_task1/Voting.sol\":3286:3416  function isCandidateExist(string memory candidate) public view returns (bool) {... */\n    tag_6:\n      tag_24\n      0x04\n      dup1\n      calldatasize\n      sub\n      dup2\n      add\n      swap1\n      tag_25\n      swap2\n      swap1\n      tag_22\n      jump\t// in\n    tag_25:\n      tag_26\n      jump\t// in\n    tag_24:\n      mload(0x40)\n      tag_27\n      swap2\n      swap1\n      tag_28\n      jump\t// in\n    tag_27:\n      mload(0x40)\n      dup1\n      swap2\n      sub\n      swap1\n      return\n        /* \"solidity_task1/Voting.sol\":2301:2424  function getVotes(string memory candidate) public view returns (uint256) {... */\n    tag_7:\n      tag_29\n      0x04\n      dup1\n      calldatasize\n      sub\n      dup2\n      add\n      swap1\n      tag_30\n      swap2\n      swap1\n      tag_22\n      jump\t// in\n    tag_30:\n      tag_31\n      jump\t// in\n    tag_29:\n      mload(0x40)\n      tag_32\n      swap2\n      swap1\n      tag_19\n      jump\t// in\n    tag_32:\n      mload(0x40)\n      dup1\n      swap2\n      sub\n      swap1\n      return\n        /* \"solidity_task1/Voting.sol\":673:693  address public owner */\n    tag_8:\n      tag_33\n      tag_34\n      jump\t// in\n    tag_33:\n      mload(0x40)\n      tag_35\n      swap2\n      swap1\n      tag_36\n      jump\t// in\n    tag_35:\n      mload(0x40)\n      dup1\n      swap2\n      sub\n      swap1\n      return\n        /* \"solidity_task1/Voting.sol\":2748:2946  function resetVotes() public onlyOwner {... */\n    tag_9:\n      tag_37\n      tag_38\n      jump\t// in\n    tag_37:\n      stop\n        /* \"solidity_task1/Voting.sol\":1839:2142  function vote(string memory candidate) public {... */\n    tag_10:\n      tag_39\n      0x04\n      dup1\n      calldatasize\n      sub\n      dup2\n      add\n      swap1\n      tag_40\n      swap2\n      swap1\n      tag_22\n      jump\t// in\n    tag_40:\n      tag_41\n      jump\t// in\n    tag_39:\n      stop\n        /* \"solidity_task1/Voting.sol\":2542:2644  function getAllCandidates() public view returns (string[] memory) {... */\n    tag_13:\n        /* \"solidity_task1/Voting.sol\":2591:2606  string[] memory */\n      0x60\n        /* \"solidity_task1/Voting.sol\":2626:2636  candidates */\n      0x01\n        /* \"solidity_task1/Voting.sol\":2619:2636  return candidates */\n      dup1\n      sload\n      dup1\n      0x20\n      mul\n      0x20\n      add\n      mload(0x40)\n      swap1\n      dup2\n      add\n      0x40\n      mstore\n      dup1\n      swap3\n      swap2\n      swap1\n      dup2\n      dup2\n      mstore\n      0x20\n      add\n      0x00\n      swap1\n    tag_43:\n      dup3\n      dup3\n      lt\n      iszero\n      tag_44\n      jumpi\n      dup4\n      dup3\n      swap1\n      0x00\n      mstore\n      keccak256(0x00, 0x20)\n      add\n      dup1\n      sload\n      tag_46\n      swap1\n      tag_47\n      jump\t// in\n    tag_46:\n      dup1\n      0x1f\n      add\n      0x20\n      dup1\n      swap2\n      div\n      mul\n      0x20\n      add\n      mload(0x40)\n      swap1\n      dup2\n      add\n      0x40\n      mstore\n      dup1\n      swap3\n      swap2\n      swap1\n      dup2\n      dup2\n      mstore\n      0x20\n      add\n      dup3\n      dup1\n      sload\n      tag_48\n      swap1\n      tag_47\n      jump\t// in\n    tag_48:\n      dup1\n      iszero\n      tag_49\n      jumpi\n      dup1\n      0x1f\n      lt\n      tag_50\n      jumpi\n      0x0100\n      dup1\n      dup4\n      sload\n      div\n      mul\n      dup4\n      mstore\n      swap2\n      0x20\n      add\n      swap2\n      jump(tag_49)\n    tag_50:\n      dup3\n      add\n      swap2\n      swap1\n      0x00\n      mstore\n      keccak256(0x00, 0x20)\n      swap1\n    tag_51:\n      dup2\n      sload\n      dup2\n      mstore\n      swap1\n      0x01\n      add\n      swap1\n      0x20\n      add\n      dup1\n      dup4\n      gt\n      tag_51\n      jumpi\n      dup3\n      swap1\n      sub\n      0x1f\n      and\n      dup3\n      add\n      swap2\n    tag_49:\n      pop\n      pop\n      pop\n      pop\n      pop\n      dup2\n      mstore\n      0x20\n      add\n      swap1\n      0x01\n      add\n      swap1\n      jump(tag_43)\n    tag_44:\n      pop\n      pop\n      pop\n      pop\n      swap1\n      pop\n        /* \"solidity_task1/Voting.sol\":2542:2644  function getAllCandidates() public view returns (string[] memory) {... */\n      swap1\n      jump\t// out\n        /* \"solidity_task1/Voting.sol\":3043:3145  function getCandidateCount() public view returns (uint256) {... */\n    tag_17:\n        /* \"solidity_task1/Voting.sol\":3093:3100  uint256 */\n      0x00\n        /* \"solidity_task1/Voting.sol\":3120:3130  candidates */\n      0x01\n        /* \"solidity_task1/Voting.sol\":3120:3137  candidates.length */\n      dup1\n      sload\n      swap1\n      pop\n        /* \"solidity_task1/Voting.sol\":3113:3137  return candidates.length */\n      swap1\n      pop\n        /* \"solidity_task1/Voting.sol\":3043:3145  function getCandidateCount() public view returns (uint256) {... */\n      swap1\n      jump\t// out\n        /* \"solidity_task1/Voting.sol\":1286:1730  function addCandidate(string memory candidate) public onlyOwner {... */\n    tag_23:\n        /* \"solidity_task1/Voting.sol\":1110:1115  owner */\n      0x03\n      0x00\n      swap1\n      sload\n      swap1\n      0x0100\n      exp\n      swap1\n      div\n      0xffffffffffffffffffffffffffffffffffffffff\n      and\n        /* \"solidity_task1/Voting.sol\":1096:1115  msg.sender == owner */\n      0xffffffffffffffffffffffffffffffffffffffff\n      and\n        /* \"solidity_task1/Voting.sol\":1096:1106  msg.sender */\n      caller\n        /* \"solidity_task1/Voting.sol\":1096:1115  msg.sender == owner */\n      0xffffffffffffffffffffffffffffffffffffffff\n      and\n      eq\n        /* \"solidity_task1/Voting.sol\":1088:1163  require(msg.sender == owner, \"Only contract owner can perform this action\") */\n      tag_54\n      jumpi\n      mload(0x40)\n      0x08c379a000000000000000000000000000000000000000000000000000000000\n      dup2\n      mstore\n      0x04\n      add\n      tag_55\n      swap1\n      tag_56\n      jump\t// in\n    tag_55:\n      mload(0x40)\n      dup1\n      swap2\n      sub\n      swap1\n      revert\n    tag_54:\n        /* \"solidity_task1/Voting.sol\":1395:1396  0 */\n      0x00\n        /* \"solidity_task1/Voting.sol\":1375:1384  candidate */\n      dup2\n        /* \"solidity_task1/Voting.sol\":1369:1392  bytes(candidate).length */\n      mload\n        /* \"solidity_task1/Voting.sol\":1369:1396  bytes(candidate).length > 0 */\n      gt\n        /* \"solidity_task1/Voting.sol\":1361:1431  require(bytes(candidate).length > 0, \"Candidate name cannot be empty\") */\n      tag_58\n      jumpi\n      mload(0x40)\n      0x08c379a000000000000000000000000000000000000000000000000000000000\n      dup2\n      mstore\n      0x04\n      add\n      tag_59\n      swap1\n      tag_60\n      jump\t// in\n    tag_59:\n      mload(0x40)\n      dup1\n      swap2\n      sub\n      swap1\n      revert\n    tag_58:\n        /* \"solidity_task1/Voting.sol\":1451:1466  candidateExists */\n      0x02\n        /* \"solidity_task1/Voting.sol\":1467:1476  candidate */\n      dup2\n        /* \"solidity_task1/Voting.sol\":1451:1477  candidateExists[candidate] */\n      mload(0x40)\n      tag_61\n      swap2\n      swap1\n      tag_62\n      jump\t// in\n    tag_61:\n      swap1\n      dup2\n      mstore\n      0x20\n      add\n      mload(0x40)\n      dup1\n      swap2\n      sub\n      swap1\n      keccak256\n      0x00\n      swap1\n      sload\n      swap1\n      0x0100\n      exp\n      swap1\n      div\n      0xff\n      and\n        /* \"solidity_task1/Voting.sol\":1450:1477  !candidateExists[candidate] */\n      iszero\n        /* \"solidity_task1/Voting.sol\":1442:1506  require(!candidateExists[candidate], \"Candidate already exists\") */\n      tag_63\n      jumpi\n      mload(0x40)\n      0x08c379a000000000000000000000000000000000000000000000000000000000\n      dup2\n      mstore\n      0x04\n      add\n      tag_64\n      swap1\n      tag_65\n      jump\t// in\n    tag_64:\n      mload(0x40)\n      dup1\n      swap2\n      sub\n      swap1\n      revert\n    tag_63:\n        /* \"solidity_task1/Voting.sol\":1527:1537  candidates */\n      0x01\n        /* \"solidity_task1/Voting.sol\":1543:1552  candidate */\n      dup2\n        /* \"solidity_task1/Voting.sol\":1527:1553  candidates.push(candidate) */\n      swap1\n      dup1\n      0x01\n      dup2\n      sload\n      add\n      dup1\n      dup3\n      sstore\n      dup1\n      swap2\n      pop\n      pop\n      0x01\n      swap1\n      sub\n      swap1\n      0x00\n      mstore\n      keccak256(0x00, 0x20)\n      add\n      0x00\n      swap1\n      swap2\n      swap1\n      swap2\n      swap1\n      swap2\n      pop\n      swap1\n      dup2\n      tag_67\n      swap2\n      swap1\n      tag_68\n      jump\t// in\n    tag_67:\n      pop\n        /* \"solidity_task1/Voting.sol\":1591:1592  0 */\n      0x00\n        /* \"solidity_task1/Voting.sol\":1564:1577  votesReceived */\n      0x00\n        /* \"solidity_task1/Voting.sol\":1578:1587  candidate */\n      dup3\n        /* \"solidity_task1/Voting.sol\":1564:1588  votesReceived[candidate] */\n      mload(0x40)\n      tag_69\n      swap2\n      swap1\n      tag_62\n      jump\t// in\n    tag_69:\n      swap1\n      dup2\n      mstore\n      0x20\n      add\n      mload(0x40)\n      dup1\n      swap2\n      sub\n      swap1\n      keccak256\n        /* \"solidity_task1/Voting.sol\":1564:1592  votesReceived[candidate] = 0 */\n      dup2\n      swap1\n      sstore\n      pop\n        /* \"solidity_task1/Voting.sol\":1655:1659  true */\n      0x01\n        /* \"solidity_task1/Voting.sol\":1626:1641  candidateExists */\n      0x02\n        /* \"solidity_task1/Voting.sol\":1642:1651  candidate */\n      dup3\n        /* \"solidity_task1/Voting.sol\":1626:1652  candidateExists[candidate] */\n      mload(0x40)\n      tag_70\n      swap2\n      swap1\n      tag_62\n      jump\t// in\n    tag_70:\n      swap1\n      dup2\n      mstore\n      0x20\n      add\n      mload(0x40)\n      dup1\n      swap2\n      sub\n      swap1\n      keccak256\n      0x00\n        /* \"solidity_task1/Voting.sol\":1626:1659  candidateExists[candidate] = true */\n      0x0100\n      exp\n      dup2\n      sload\n      dup2\n      0xff\n      mul\n      not\n      and\n      swap1\n      dup4\n      iszero\n      iszero\n      mul\n      or\n      swap1\n      sstore\n      pop\n        /* \"solidity_task1/Voting.sol\":1697:1722  CandidateAdded(candidate) */\n      0xf29562dad1599aea0ebb142466120aab326d5efa8f839df82a9c064bf78e8938\n        /* \"solidity_task1/Voting.sol\":1712:1721  candidate */\n      dup2\n        /* \"solidity_task1/Voting.sol\":1697:1722  CandidateAdded(candidate) */\n      mload(0x40)\n      tag_71\n      swap2\n      swap1\n      tag_72\n      jump\t// in\n    tag_71:\n      mload(0x40)\n      dup1\n      swap2\n      sub\n      swap1\n      log1\n        /* \"solidity_task1/Voting.sol\":1286:1730  function addCandidate(string memory candidate) public onlyOwner {... */\n      pop\n      jump\t// out\n        /* \"solidity_task1/Voting.sol\":3286:3416  function isCandidateExist(string memory candidate) public view returns (bool) {... */\n    tag_26:\n        /* \"solidity_task1/Voting.sol\":3358:3362  bool */\n      0x00\n        /* \"solidity_task1/Voting.sol\":3382:3397  candidateExists */\n      0x02\n        /* \"solidity_task1/Voting.sol\":3398:3407  candidate */\n      dup3\n        /* \"solidity_task1/Voting.sol\":3382:3408  candidateExists[candidate] */\n      mload(0x40)\n      tag_74\n      swap2\n      swap1\n      tag_62\n      jump\t// in\n    tag_74:\n      swap1\n      dup2\n      mstore\n      0x20\n      add\n      mload(0x40)\n      dup1\n      swap2\n      sub\n      swap1\n      keccak256\n      0x00\n      swap1\n      sload\n      swap1\n      0x0100\n      exp\n      swap1\n      div\n      0xff\n      and\n        /* \"solidity_task1/Voting.sol\":3375:3408  return candidateExists[candidate] */\n      swap1\n      pop\n        /* \"solidity_task1/Voting.sol\":3286:3416  function isCandidateExist(string memory candidate) public view returns (bool) {... */\n      swap2\n      swap1\n      pop\n      jump\t// out\n        /* \"solidity_task1/Voting.sol\":2301:2424  function getVotes(string memory candidate) public view returns (uint256) {... */\n    tag_31:\n        /* \"solidity_task1/Voting.sol\":2365:2372  uint256 */\n      0x00\n        /* \"solidity_task1/Voting.sol\":2392:2405  votesReceived */\n      0x00\n        /* \"solidity_task1/Voting.sol\":2406:2415  candidate */\n      dup3\n        /* \"solidity_task1/Voting.sol\":2392:2416  votesReceived[candidate] */\n      mload(0x40)\n      tag_76\n      swap2\n      swap1\n      tag_62\n      jump\t// in\n    tag_76:\n      swap1\n      dup2\n      mstore\n      0x20\n      add\n      mload(0x40)\n      dup1\n      swap2\n      sub\n      swap1\n      keccak256\n      sload\n        /* \"solidity_task1/Voting.sol\":2385:2416  return votesReceived[candidate] */\n      swap1\n      pop\n        /* \"solidity_task1/Voting.sol\":2301:2424  function getVotes(string memory candidate) public view returns (uint256) {... */\n      swap2\n      swap1\n      pop\n      jump\t// out\n        /* \"solidity_task1/Voting.sol\":673:693  address public owner */\n    tag_34:\n      0x03\n      0x00\n      swap1\n      sload\n      swap1\n      0x0100\n      exp\n      swap1\n      div\n      0xffffffffffffffffffffffffffffffffffffffff\n      and\n      dup2\n      jump\t// out\n        /* \"solidity_task1/Voting.sol\":2748:2946  function resetVotes() public onlyOwner {... */\n    tag_38:\n        /* \"solidity_task1/Voting.sol\":1110:1115  owner */\n      0x03\n      0x00\n      swap1\n      sload\n      swap1\n      0x0100\n      exp\n      swap1\n      div\n      0xffffffffffffffffffffffffffffffffffffffff\n      and\n        /* \"solidity_task1/Voting.sol\":1096:1115  msg.sender == owner */\n      0xffffffffffffffffffffffffffffffffffffffff\n      and\n        /* \"solidity_task1/Voting.sol\":1096:1106  msg.sender */\n      caller\n        /* \"solidity_task1/Voting.sol\":1096:1115  msg.sender == owner */\n      0xffffffffffffffffffffffffffffffffffffffff\n      and\n      eq\n        /* \"solidity_task1/Voting.sol\":1088:1163  require(msg.sender == owner, \"Only contract owner can perform this action\") */\n      tag_78\n      jumpi\n      mload(0x40)\n      0x08c379a000000000000000000000000000000000000000000000000000000000\n      dup2\n      mstore\n      0x04\n      add\n      tag_79\n      swap1\n      tag_56\n      jump\t// in\n    tag_79:\n      mload(0x40)\n      dup1\n      swap2\n      sub\n      swap1\n      revert\n    tag_78:\n        /* \"solidity_task1/Voting.sol\":2802:2808  uint i */\n      0x00\n        /* \"solidity_task1/Voting.sol\":2811:2812  0 */\n      0x00\n        /* \"solidity_task1/Voting.sol\":2802:2812  uint i = 0 */\n      swap1\n      pop\n        /* \"solidity_task1/Voting.sol\":2798:2901  for(uint i = 0; i < candidates.length; i++) {... */\n    tag_81:\n        /* \"solidity_task1/Voting.sol\":2818:2828  candidates */\n      0x01\n        /* \"solidity_task1/Voting.sol\":2818:2835  candidates.length */\n      dup1\n      sload\n      swap1\n      pop\n        /* \"solidity_task1/Voting.sol\":2814:2815  i */\n      dup2\n        /* \"solidity_task1/Voting.sol\":2814:2835  i < candidates.length */\n      lt\n        /* \"solidity_task1/Voting.sol\":2798:2901  for(uint i = 0; i < candidates.length; i++) {... */\n      iszero\n      tag_82\n      jumpi\n        /* \"solidity_task1/Voting.sol\":2888:2889  0 */\n      0x00\n        /* \"solidity_task1/Voting.sol\":2857:2870  votesReceived */\n      0x00\n        /* \"solidity_task1/Voting.sol\":2871:2881  candidates */\n      0x01\n        /* \"solidity_task1/Voting.sol\":2882:2883  i */\n      dup4\n        /* \"solidity_task1/Voting.sol\":2871:2884  candidates[i] */\n      dup2\n      sload\n      dup2\n      lt\n      tag_84\n      jumpi\n      tag_85\n      tag_86\n      jump\t// in\n    tag_85:\n    tag_84:\n      swap1\n      0x00\n      mstore\n      keccak256(0x00, 0x20)\n      add\n        /* \"solidity_task1/Voting.sol\":2857:2885  votesReceived[candidates[i]] */\n      mload(0x40)\n      tag_88\n      swap2\n      swap1\n      tag_89\n      jump\t// in\n    tag_88:\n      swap1\n      dup2\n      mstore\n      0x20\n      add\n      mload(0x40)\n      dup1\n      swap2\n      sub\n      swap1\n      keccak256\n        /* \"solidity_task1/Voting.sol\":2857:2889  votesReceived[candidates[i]] = 0 */\n      dup2\n      swap1\n      sstore\n      pop\n        /* \"solidity_task1/Voting.sol\":2837:2840  i++ */\n      dup1\n      dup1\n      0x01\n      add\n      swap2\n      pop\n      pop\n        /* \"solidity_task1/Voting.sol\":2798:2901  for(uint i = 0; i < candidates.length; i++) {... */\n      jump(tag_81)\n    tag_82:\n      pop\n        /* \"solidity_task1/Voting.sol\":2927:2937  msg.sender */\n      caller\n        /* \"solidity_task1/Voting.sol\":2916:2938  VotesReset(msg.sender) */\n      0xffffffffffffffffffffffffffffffffffffffff\n      and\n      0x52377ea4d8812f0bb534fc079993e288b4ea73d011a2a368502255052a6b7730\n      mload(0x40)\n      mload(0x40)\n      dup1\n      swap2\n      sub\n      swap1\n      log2\n        /* \"solidity_task1/Voting.sol\":2748:2946  function resetVotes() public onlyOwner {... */\n      jump\t// out\n        /* \"solidity_task1/Voting.sol\":1839:2142  function vote(string memory candidate) public {... */\n    tag_41:\n        /* \"solidity_task1/Voting.sol\":1930:1931  0 */\n      0x00\n        /* \"solidity_task1/Voting.sol\":1910:1919  candidate */\n      dup2\n        /* \"solidity_task1/Voting.sol\":1904:1927  bytes(candidate).length */\n      mload\n        /* \"solidity_task1/Voting.sol\":1904:1931  bytes(candidate).length > 0 */\n      gt\n        /* \"solidity_task1/Voting.sol\":1896:1966  require(bytes(candidate).length > 0, \"Candidate name cannot be empty\") */\n      tag_91\n      jumpi\n      mload(0x40)\n      0x08c379a000000000000000000000000000000000000000000000000000000000\n      dup2\n      mstore\n      0x04\n      add\n      tag_92\n      swap1\n      tag_60\n      jump\t// in\n    tag_92:\n      mload(0x40)\n      dup1\n      swap2\n      sub\n      swap1\n      revert\n    tag_91:\n        /* \"solidity_task1/Voting.sol\":1985:2000  candidateExists */\n      0x02\n        /* \"solidity_task1/Voting.sol\":2001:2010  candidate */\n      dup2\n        /* \"solidity_task1/Voting.sol\":1985:2011  candidateExists[candidate] */\n      mload(0x40)\n      tag_93\n      swap2\n      swap1\n      tag_62\n      jump\t// in\n    tag_93:\n      swap1\n      dup2\n      mstore\n      0x20\n      add\n      mload(0x40)\n      dup1\n      swap2\n      sub\n      swap1\n      keccak256\n      0x00\n      swap1\n      sload\n      swap1\n      0x0100\n      exp\n      swap1\n      div\n      0xff\n      and\n        /* \"solidity_task1/Voting.sol\":1977:2040  require(candidateExists[candidate], \"Candidate does not exist\") */\n      tag_94\n      jumpi\n      mload(0x40)\n      0x08c379a000000000000000000000000000000000000000000000000000000000\n      dup2\n      mstore\n      0x04\n      add\n      tag_95\n      swap1\n      tag_96\n      jump\t// in\n    tag_95:\n      mload(0x40)\n      dup1\n      swap2\n      sub\n      swap1\n      revert\n    tag_94:\n        /* \"solidity_task1/Voting.sol\":2089:2090  1 */\n      0x01\n        /* \"solidity_task1/Voting.sol\":2061:2074  votesReceived */\n      0x00\n        /* \"solidity_task1/Voting.sol\":2075:2084  candidate */\n      dup3\n        /* \"solidity_task1/Voting.sol\":2061:2085  votesReceived[candidate] */\n      mload(0x40)\n      tag_97\n      swap2\n      swap1\n      tag_62\n      jump\t// in\n    tag_97:\n      swap1\n      dup2\n      mstore\n      0x20\n      add\n      mload(0x40)\n      dup1\n      swap2\n      sub\n      swap1\n      keccak256\n      0x00\n        /* \"solidity_task1/Voting.sol\":2061:2090  votesReceived[candidate] += 1 */\n      dup3\n      dup3\n      sload\n      tag_98\n      swap2\n      swap1\n      tag_99\n      jump\t// in\n    tag_98:\n      swap3\n      pop\n      pop\n      dup2\n      swap1\n      sstore\n      pop\n        /* \"solidity_task1/Voting.sol\":2112:2122  msg.sender */\n      caller\n        /* \"solidity_task1/Voting.sol\":2106:2134  Voted(msg.sender, candidate) */\n      0xffffffffffffffffffffffffffffffffffffffff\n      and\n      0xcb6783276e8a4347387036bbfea000268f0a4b1f8c46ac79980609f2af8d2acd\n        /* \"solidity_task1/Voting.sol\":2124:2133  candidate */\n      dup3\n        /* \"solidity_task1/Voting.sol\":2106:2134  Voted(msg.sender, candidate) */\n      mload(0x40)\n      tag_100\n      swap2\n      swap1\n      tag_72\n      jump\t// in\n    tag_100:\n      mload(0x40)\n      dup1\n      swap2\n      sub\n      swap1\n      log2\n        /* \"solidity_task1/Voting.sol\":1839:2142  function vote(string memory candidate) public {... */\n      pop\n      jump\t// out\n        /* \"#utility.yul\":7:131   */\n    tag_101:\n        /* \"#utility.yul\":84:90   */\n      0x00\n        /* \"#utility.yul\":118:123   */\n      dup2\n        /* \"#utility.yul\":112:124   */\n      mload\n        /* \"#utility.yul\":102:124   */\n      swap1\n      pop\n        /* \"#utility.yul\":7:131   */\n      swap2\n      swap1\n      pop\n      jump\t// out\n        /* \"#utility.yul\":137:331   */\n    tag_102:\n        /* \"#utility.yul\":246:257   */\n      0x00\n        /* \"#utility.yul\":280:286   */\n      dup3\n        /* \"#utility.yul\":275:278   */\n      dup3\n        /* \"#utility.yul\":268:287   */\n      mstore\n        /* \"#utility.yul\":320:324   */\n      0x20\n        /* \"#utility.yul\":315:318   */\n      dup3\n        /* \"#utility.yul\":311:325   */\n      add\n        /* \"#utility.yul\":296:325   */\n      swap1\n      pop\n        /* \"#utility.yul\":137:331   */\n      swap3\n      swap2\n      pop\n      pop\n      jump\t// out\n        /* \"#utility.yul\":337:479   */\n    tag_103:\n        /* \"#utility.yul\":414:418   */\n      0x00\n        /* \"#utility.yul\":437:440   */\n      dup2\n        /* \"#utility.yul\":429:440   */\n      swap1\n      pop\n        /* \"#utility.yul\":467:471   */\n      0x20\n        /* \"#utility.yul\":462:465   */\n      dup3\n        /* \"#utility.yul\":458:472   */\n      add\n        /* \"#utility.yul\":450:472   */\n      swap1\n      pop\n        /* \"#utility.yul\":337:479   */\n      swap2\n      swap1\n      pop\n      jump\t// out\n        /* \"#utility.yul\":485:584   */\n    tag_104:\n        /* \"#utility.yul\":537:543   */\n      0x00\n        /* \"#utility.yul\":571:576   */\n      dup2\n        /* \"#utility.yul\":565:577   */\n      mload\n        /* \"#utility.yul\":555:577   */\n      swap1\n      pop\n        /* \"#utility.yul\":485:584   */\n      swap2\n      swap1\n      pop\n      jump\t// out\n        /* \"#utility.yul\":590:749   */\n    tag_105:\n        /* \"#utility.yul\":664:675   */\n      0x00\n        /* \"#utility.yul\":698:704   */\n      dup3\n        /* \"#utility.yul\":693:696   */\n      dup3\n        /* \"#utility.yul\":686:705   */\n      mstore\n        /* \"#utility.yul\":738:742   */\n      0x20\n        /* \"#utility.yul\":733:736   */\n      dup3\n        /* \"#utility.yul\":729:743   */\n      add\n        /* \"#utility.yul\":714:743   */\n      swap1\n      pop\n        /* \"#utility.yul\":590:749   */\n      swap3\n      swap2\n      pop\n      pop\n      jump\t// out\n        /* \"#utility.yul\":755:1003   */\n    tag_106:\n        /* \"#utility.yul\":837:838   */\n      0x00\n        /* \"#utility.yul\":847:960   */\n    tag_168:\n        /* \"#utility.yul\":861:867   */\n      dup4\n        /* \"#utility.yul\":858:859   */\n      dup2\n        /* \"#utility.yul\":855:868   */\n      lt\n        /* \"#utility.yul\":847:960   */\n      iszero\n      tag_170\n      jumpi\n        /* \"#utility.yul\":946:947   */\n      dup1\n        /* \"#utility.yul\":941:944   */\n      dup3\n        /* \"#utility.yul\":937:948   */\n      add\n        /* \"#utility.yul\":931:949   */\n      mload\n        /* \"#utility.yul\":927:928   */\n      dup2\n        /* \"#utility.yul\":922:925   */\n      dup5\n        /* \"#utility.yul\":918:929   */\n      add\n        /* \"#utility.yul\":911:950   */\n      mstore\n        /* \"#utility.yul\":883:885   */\n      0x20\n        /* \"#utility.yul\":880:881   */\n      dup2\n        /* \"#utility.yul\":876:886   */\n      add\n        /* \"#utility.yul\":871:886   */\n      swap1\n      pop\n        /* \"#utility.yul\":847:960   */\n      jump(tag_168)\n    tag_170:\n        /* \"#utility.yul\":994:995   */\n      0x00\n        /* \"#utility.yul\":985:991   */\n      dup5\n        /* \"#utility.yul\":980:983   */\n      dup5\n        /* \"#utility.yul\":976:992   */\n      add\n        /* \"#utility.yul\":969:996   */\n      mstore\n        /* \"#utility.yul\":817:1003   */\n      pop\n        /* \"#utility.yul\":755:1003   */\n      pop\n      pop\n      pop\n      jump\t// out\n        /* \"#utility.yul\":1009:1111   */\n    tag_107:\n        /* \"#utility.yul\":1050:1056   */\n      0x00\n        /* \"#utility.yul\":1101:1103   */\n      0x1f\n        /* \"#utility.yul\":1097:1104   */\n      not\n        /* \"#utility.yul\":1092:1094   */\n      0x1f\n        /* \"#utility.yul\":1085:1090   */\n      dup4\n        /* \"#utility.yul\":1081:1095   */\n      add\n        /* \"#utility.yul\":1077:1105   */\n      and\n        /* \"#utility.yul\":1067:1105   */\n      swap1\n      pop\n        /* \"#utility.yul\":1009:1111   */\n      swap2\n      swap1\n      pop\n      jump\t// out\n        /* \"#utility.yul\":1117:1474   */\n    tag_108:\n        /* \"#utility.yul\":1195:1198   */\n      0x00\n        /* \"#utility.yul\":1223:1262   */\n      tag_173\n        /* \"#utility.yul\":1256:1261   */\n      dup3\n        /* \"#utility.yul\":1223:1262   */\n      tag_104\n      jump\t// in\n    tag_173:\n        /* \"#utility.yul\":1278:1339   */\n      tag_174\n        /* \"#utility.yul\":1332:1338   */\n      dup2\n        /* \"#utility.yul\":1327:1330   */\n      dup6\n        /* \"#utility.yul\":1278:1339   */\n      tag_105\n      jump\t// in\n    tag_174:\n        /* \"#utility.yul\":1271:1339   */\n      swap4\n      pop\n        /* \"#utility.yul\":1348:1413   */\n      tag_175\n        /* \"#utility.yul\":1406:1412   */\n      dup2\n        /* \"#utility.yul\":1401:1404   */\n      dup6\n        /* \"#utility.yul\":1394:1398   */\n      0x20\n        /* \"#utility.yul\":1387:1392   */\n      dup7\n        /* \"#utility.yul\":1383:1399   */\n      add\n        /* \"#utility.yul\":1348:1413   */\n      tag_106\n      jump\t// in\n    tag_175:\n        /* \"#utility.yul\":1438:1467   */\n      tag_176\n        /* \"#utility.yul\":1460:1466   */\n      dup2\n        /* \"#utility.yul\":1438:1467   */\n      tag_107\n      jump\t// in\n    tag_176:\n        /* \"#utility.yul\":1433:1436   */\n      dup5\n        /* \"#utility.yul\":1429:1468   */\n      add\n        /* \"#utility.yul\":1422:1468   */\n      swap2\n      pop\n        /* \"#utility.yul\":1199:1474   */\n      pop\n        /* \"#utility.yul\":1117:1474   */\n      swap3\n      swap2\n      pop\n      pop\n      jump\t// out\n        /* \"#utility.yul\":1480:1676   */\n    tag_109:\n        /* \"#utility.yul\":1569:1579   */\n      0x00\n        /* \"#utility.yul\":1604:1670   */\n      tag_178\n        /* \"#utility.yul\":1666:1669   */\n      dup4\n        /* \"#utility.yul\":1658:1664   */\n      dup4\n        /* \"#utility.yul\":1604:1670   */\n      tag_108\n      jump\t// in\n    tag_178:\n        /* \"#utility.yul\":1590:1670   */\n      swap1\n      pop\n        /* \"#utility.yul\":1480:1676   */\n      swap3\n      swap2\n      pop\n      pop\n      jump\t// out\n        /* \"#utility.yul\":1682:1805   */\n    tag_110:\n        /* \"#utility.yul\":1762:1766   */\n      0x00\n        /* \"#utility.yul\":1794:1798   */\n      0x20\n        /* \"#utility.yul\":1789:1792   */\n      dup3\n        /* \"#utility.yul\":1785:1799   */\n      add\n        /* \"#utility.yul\":1777:1799   */\n      swap1\n      pop\n        /* \"#utility.yul\":1682:1805   */\n      swap2\n      swap1\n      pop\n      jump\t// out\n        /* \"#utility.yul\":1839:2830   */\n    tag_111:\n        /* \"#utility.yul\":1978:1981   */\n      0x00\n        /* \"#utility.yul\":2007:2071   */\n      tag_181\n        /* \"#utility.yul\":2065:2070   */\n      dup3\n        /* \"#utility.yul\":2007:2071   */\n      tag_101\n      jump\t// in\n    tag_181:\n        /* \"#utility.yul\":2087:2183   */\n      tag_182\n        /* \"#utility.yul\":2176:2182   */\n      dup2\n        /* \"#utility.yul\":2171:2174   */\n      dup6\n        /* \"#utility.yul\":2087:2183   */\n      tag_102\n      jump\t// in\n    tag_182:\n        /* \"#utility.yul\":2080:2183   */\n      swap4\n      pop\n        /* \"#utility.yul\":2209:2212   */\n      dup4\n        /* \"#utility.yul\":2254:2258   */\n      0x20\n        /* \"#utility.yul\":2246:2252   */\n      dup3\n        /* \"#utility.yul\":2242:2259   */\n      mul\n        /* \"#utility.yul\":2237:2240   */\n      dup6\n        /* \"#utility.yul\":2233:2260   */\n      add\n        /* \"#utility.yul\":2284:2350   */\n      tag_183\n        /* \"#utility.yul\":2344:2349   */\n      dup6\n        /* \"#utility.yul\":2284:2350   */\n      tag_103\n      jump\t// in\n    tag_183:\n        /* \"#utility.yul\":2373:2380   */\n      dup1\n        /* \"#utility.yul\":2404:2405   */\n      0x00\n        /* \"#utility.yul\":2389:2785   */\n    tag_184:\n        /* \"#utility.yul\":2414:2420   */\n      dup6\n        /* \"#utility.yul\":2411:2412   */\n      dup2\n        /* \"#utility.yul\":2408:2421   */\n      lt\n        /* \"#utility.yul\":2389:2785   */\n      iszero\n      tag_186\n      jumpi\n        /* \"#utility.yul\":2485:2494   */\n      dup5\n        /* \"#utility.yul\":2479:2483   */\n      dup5\n        /* \"#utility.yul\":2475:2495   */\n      sub\n        /* \"#utility.yul\":2470:2473   */\n      dup10\n        /* \"#utility.yul\":2463:2496   */\n      mstore\n        /* \"#utility.yul\":2536:2542   */\n      dup2\n        /* \"#utility.yul\":2530:2543   */\n      mload\n        /* \"#utility.yul\":2564:2648   */\n      tag_187\n        /* \"#utility.yul\":2643:2647   */\n      dup6\n        /* \"#utility.yul\":2628:2641   */\n      dup3\n        /* \"#utility.yul\":2564:2648   */\n      tag_109\n      jump\t// in\n    tag_187:\n        /* \"#utility.yul\":2556:2648   */\n      swap5\n      pop\n        /* \"#utility.yul\":2671:2741   */\n      tag_188\n        /* \"#utility.yul\":2734:2740   */\n      dup4\n        /* \"#utility.yul\":2671:2741   */\n      tag_110\n      jump\t// in\n    tag_188:\n        /* \"#utility.yul\":2661:2741   */\n      swap3\n      pop\n        /* \"#utility.yul\":2770:2774   */\n      0x20\n        /* \"#utility.yul\":2765:2768   */\n      dup11\n        /* \"#utility.yul\":2761:2775   */\n      add\n        /* \"#utility.yul\":2754:2775   */\n      swap10\n      pop\n        /* \"#utility.yul\":2449:2785   */\n      pop\n        /* \"#utility.yul\":2436:2437   */\n      0x01\n        /* \"#utility.yul\":2433:2434   */\n      dup2\n        /* \"#utility.yul\":2429:2438   */\n      add\n        /* \"#utility.yul\":2424:2438   */\n      swap1\n      pop\n        /* \"#utility.yul\":2389:2785   */\n      jump(tag_184)\n    tag_186:\n        /* \"#utility.yul\":2393:2407   */\n      pop\n        /* \"#utility.yul\":2801:2805   */\n      dup3\n        /* \"#utility.yul\":2794:2805   */\n      swap8\n      pop\n        /* \"#utility.yul\":2821:2824   */\n      dup8\n        /* \"#utility.yul\":2814:2824   */\n      swap6\n      pop\n        /* \"#utility.yul\":1983:2830   */\n      pop\n      pop\n      pop\n      pop\n      pop\n        /* \"#utility.yul\":1839:2830   */\n      swap3\n      swap2\n      pop\n      pop\n      jump\t// out\n        /* \"#utility.yul\":2836:3249   */\n    tag_15:\n        /* \"#utility.yul\":2999:3003   */\n      0x00\n        /* \"#utility.yul\":3037:3039   */\n      0x20\n        /* \"#utility.yul\":3026:3035   */\n      dup3\n        /* \"#utility.yul\":3022:3040   */\n      add\n        /* \"#utility.yul\":3014:3040   */\n      swap1\n      pop\n        /* \"#utility.yul\":3086:3095   */\n      dup2\n        /* \"#utility.yul\":3080:3084   */\n      dup2\n        /* \"#utility.yul\":3076:3096   */\n      sub\n        /* \"#utility.yul\":3072:3073   */\n      0x00\n        /* \"#utility.yul\":3061:3070   */\n      dup4\n        /* \"#utility.yul\":3057:3074   */\n      add\n        /* \"#utility.yul\":3050:3097   */\n      mstore\n        /* \"#utility.yul\":3114:3242   */\n      tag_190\n        /* \"#utility.yul\":3237:3241   */\n      dup2\n        /* \"#utility.yul\":3228:3234   */\n      dup5\n        /* \"#utility.yul\":3114:3242   */\n      tag_111\n      jump\t// in\n    tag_190:\n        /* \"#utility.yul\":3106:3242   */\n      swap1\n      pop\n        /* \"#utility.yul\":2836:3249   */\n      swap3\n      swap2\n      pop\n      pop\n      jump\t// out\n        /* \"#utility.yul\":3255:3332   */\n    tag_112:\n        /* \"#utility.yul\":3292:3299   */\n      0x00\n        /* \"#utility.yul\":3321:3326   */\n      dup2\n        /* \"#utility.yul\":3310:3326   */\n      swap1\n      pop\n        /* \"#utility.yul\":3255:3332   */\n      swap2\n      swap1\n      pop\n      jump\t// out\n        /* \"#utility.yul\":3338:3456   */\n    tag_113:\n        /* \"#utility.yul\":3425:3449   */\n      tag_193\n        /* \"#utility.yul\":3443:3448   */\n      dup2\n        /* \"#utility.yul\":3425:3449   */\n      tag_112\n      jump\t// in\n    tag_193:\n        /* \"#utility.yul\":3420:3423   */\n      dup3\n        /* \"#utility.yul\":3413:3450   */\n      mstore\n        /* \"#utility.yul\":3338:3456   */\n      pop\n      pop\n      jump\t// out\n        /* \"#utility.yul\":3462:3684   */\n    tag_19:\n        /* \"#utility.yul\":3555:3559   */\n      0x00\n        /* \"#utility.yul\":3593:3595   */\n      0x20\n        /* \"#utility.yul\":3582:3591   */\n      dup3\n        /* \"#utility.yul\":3578:3596   */\n      add\n        /* \"#utility.yul\":3570:3596   */\n      swap1\n      pop\n        /* \"#utility.yul\":3606:3677   */\n      tag_195\n        /* \"#utility.yul\":3674:3675   */\n      0x00\n        /* \"#utility.yul\":3663:3672   */\n      dup4\n        /* \"#utility.yul\":3659:3676   */\n      add\n        /* \"#utility.yul\":3650:3656   */\n      dup5\n        /* \"#utility.yul\":3606:3677   */\n      tag_113\n      jump\t// in\n    tag_195:\n        /* \"#utility.yul\":3462:3684   */\n      swap3\n      swap2\n      pop\n      pop\n      jump\t// out\n        /* \"#utility.yul\":3690:3765   */\n    tag_114:\n        /* \"#utility.yul\":3723:3729   */\n      0x00\n        /* \"#utility.yul\":3756:3758   */\n      0x40\n        /* \"#utility.yul\":3750:3759   */\n      mload\n        /* \"#utility.yul\":3740:3759   */\n      swap1\n      pop\n        /* \"#utility.yul\":3690:3765   */\n      swap1\n      jump\t// out\n        /* \"#utility.yul\":3771:3888   */\n    tag_115:\n        /* \"#utility.yul\":3880:3881   */\n      0x00\n        /* \"#utility.yul\":3877:3878   */\n      0x00\n        /* \"#utility.yul\":3870:3882   */\n      revert\n        /* \"#utility.yul\":3894:4011   */\n    tag_116:\n        /* \"#utility.yul\":4003:4004   */\n      0x00\n        /* \"#utility.yul\":4000:4001   */\n      0x00\n        /* \"#utility.yul\":3993:4005   */\n      revert\n        /* \"#utility.yul\":4017:4134   */\n    tag_117:\n        /* \"#utility.yul\":4126:4127   */\n      0x00\n        /* \"#utility.yul\":4123:4124   */\n      0x00\n        /* \"#utility.yul\":4116:4128   */\n      revert\n        /* \"#utility.yul\":4140:4257   */\n    tag_118:\n        /* \"#utility.yul\":4249:4250   */\n      0x00\n        /* \"#utility.yul\":4246:4247   */\n      0x00\n        /* \"#utility.yul\":4239:4251   */\n      revert\n        /* \"#utility.yul\":4263:4443   */\n    tag_119:\n        /* \"#utility.yul\":4311:4388   */\n      0x4e487b7100000000000000000000000000000000000000000000000000000000\n        /* \"#utility.yul\":4308:4309   */\n      0x00\n        /* \"#utility.yul\":4301:4389   */\n      mstore\n        /* \"#utility.yul\":4408:4412   */\n      0x41\n        /* \"#utility.yul\":4405:4406   */\n      0x04\n        /* \"#utility.yul\":4398:4413   */\n      mstore\n        /* \"#utility.yul\":4432:4436   */\n      0x24\n        /* \"#utility.yul\":4429:4430   */\n      0x00\n        /* \"#utility.yul\":4422:4437   */\n      revert\n        /* \"#utility.yul\":4449:4730   */\n    tag_120:\n        /* \"#utility.yul\":4532:4559   */\n      tag_203\n        /* \"#utility.yul\":4554:4558   */\n      dup3\n        /* \"#utility.yul\":4532:4559   */\n      tag_107\n      jump\t// in\n    tag_203:\n        /* \"#utility.yul\":4524:4530   */\n      dup2\n        /* \"#utility.yul\":4520:4560   */\n      add\n        /* \"#utility.yul\":4662:4668   */\n      dup2\n        /* \"#utility.yul\":4650:4660   */\n      dup2\n        /* \"#utility.yul\":4647:4669   */\n      lt\n        /* \"#utility.yul\":4626:4644   */\n      0xffffffffffffffff\n        /* \"#utility.yul\":4614:4624   */\n      dup3\n        /* \"#utility.yul\":4611:4645   */\n      gt\n        /* \"#utility.yul\":4608:4670   */\n      or\n        /* \"#utility.yul\":4605:4693   */\n      iszero\n      tag_204\n      jumpi\n        /* \"#utility.yul\":4673:4691   */\n      tag_205\n      tag_119\n      jump\t// in\n    tag_205:\n        /* \"#utility.yul\":4605:4693   */\n    tag_204:\n        /* \"#utility.yul\":4713:4723   */\n      dup1\n        /* \"#utility.yul\":4709:4711   */\n      0x40\n        /* \"#utility.yul\":4702:4724   */\n      mstore\n        /* \"#utility.yul\":4492:4730   */\n      pop\n        /* \"#utility.yul\":4449:4730   */\n      pop\n      pop\n      jump\t// out\n        /* \"#utility.yul\":4736:4865   */\n    tag_121:\n        /* \"#utility.yul\":4770:4776   */\n      0x00\n        /* \"#utility.yul\":4797:4817   */\n      tag_207\n      tag_114\n      jump\t// in\n    tag_207:\n        /* \"#utility.yul\":4787:4817   */\n      swap1\n      pop\n        /* \"#utility.yul\":4826:4859   */\n      tag_208\n        /* \"#utility.yul\":4854:4858   */\n      dup3\n        /* \"#utility.yul\":4846:4852   */\n      dup3\n        /* \"#utility.yul\":4826:4859   */\n      tag_120\n      jump\t// in\n    tag_208:\n        /* \"#utility.yul\":4736:4865   */\n      swap2\n      swap1\n      pop\n      jump\t// out\n        /* \"#utility.yul\":4871:5179   */\n    tag_122:\n        /* \"#utility.yul\":4933:4937   */\n      0x00\n        /* \"#utility.yul\":5023:5041   */\n      0xffffffffffffffff\n        /* \"#utility.yul\":5015:5021   */\n      dup3\n        /* \"#utility.yul\":5012:5042   */\n      gt\n        /* \"#utility.yul\":5009:5065   */\n      iszero\n      tag_210\n      jumpi\n        /* \"#utility.yul\":5045:5063   */\n      tag_211\n      tag_119\n      jump\t// in\n    tag_211:\n        /* \"#utility.yul\":5009:5065   */\n    tag_210:\n        /* \"#utility.yul\":5083:5112   */\n      tag_212\n        /* \"#utility.yul\":5105:5111   */\n      dup3\n        /* \"#utility.yul\":5083:5112   */\n      tag_107\n      jump\t// in\n    tag_212:\n        /* \"#utility.yul\":5075:5112   */\n      swap1\n      pop\n        /* \"#utility.yul\":5167:5171   */\n      0x20\n        /* \"#utility.yul\":5161:5165   */\n      dup2\n        /* \"#utility.yul\":5157:5172   */\n      add\n        /* \"#utility.yul\":5149:5172   */\n      swap1\n      pop\n        /* \"#utility.yul\":4871:5179   */\n      swap2\n      swap1\n      pop\n      jump\t// out\n        /* \"#utility.yul\":5185:5333   */\n    tag_123:\n        /* \"#utility.yul\":5283:5289   */\n      dup3\n        /* \"#utility.yul\":5278:5281   */\n      dup2\n        /* \"#utility.yul\":5273:5276   */\n      dup4\n        /* \"#utility.yul\":5260:5290   */\n      calldatacopy\n        /* \"#utility.yul\":5324:5325   */\n      0x00\n        /* \"#utility.yul\":5315:5321   */\n      dup4\n        /* \"#utility.yul\":5310:5313   */\n      dup4\n        /* \"#utility.yul\":5306:5322   */\n      add\n        /* \"#utility.yul\":5299:5326   */\n      mstore\n        /* \"#utility.yul\":5185:5333   */\n      pop\n      pop\n      pop\n      jump\t// out\n        /* \"#utility.yul\":5339:5764   */\n    tag_124:\n        /* \"#utility.yul\":5417:5422   */\n      0x00\n        /* \"#utility.yul\":5442:5508   */\n      tag_215\n        /* \"#utility.yul\":5458:5507   */\n      tag_216\n        /* \"#utility.yul\":5500:5506   */\n      dup5\n        /* \"#utility.yul\":5458:5507   */\n      tag_122\n      jump\t// in\n    tag_216:\n        /* \"#utility.yul\":5442:5508   */\n      tag_121\n      jump\t// in\n    tag_215:\n        /* \"#utility.yul\":5433:5508   */\n      swap1\n      pop\n        /* \"#utility.yul\":5531:5537   */\n      dup3\n        /* \"#utility.yul\":5524:5529   */\n      dup2\n        /* \"#utility.yul\":5517:5538   */\n      mstore\n        /* \"#utility.yul\":5569:5573   */\n      0x20\n        /* \"#utility.yul\":5562:5567   */\n      dup2\n        /* \"#utility.yul\":5558:5574   */\n      add\n        /* \"#utility.yul\":5607:5610   */\n      dup5\n        /* \"#utility.yul\":5598:5604   */\n      dup5\n        /* \"#utility.yul\":5593:5596   */\n      dup5\n        /* \"#utility.yul\":5589:5605   */\n      add\n        /* \"#utility.yul\":5586:5611   */\n      gt\n        /* \"#utility.yul\":5583:5695   */\n      iszero\n      tag_217\n      jumpi\n        /* \"#utility.yul\":5614:5693   */\n      tag_218\n      tag_118\n      jump\t// in\n    tag_218:\n        /* \"#utility.yul\":5583:5695   */\n    tag_217:\n        /* \"#utility.yul\":5704:5758   */\n      tag_219\n        /* \"#utility.yul\":5751:5757   */\n      dup5\n        /* \"#utility.yul\":5746:5749   */\n      dup3\n        /* \"#utility.yul\":5741:5744   */\n      dup6\n        /* \"#utility.yul\":5704:5758   */\n      tag_123\n      jump\t// in\n    tag_219:\n        /* \"#utility.yul\":5423:5764   */\n      pop\n        /* \"#utility.yul\":5339:5764   */\n      swap4\n      swap3\n      pop\n      pop\n      pop\n      jump\t// out\n        /* \"#utility.yul\":5784:6124   */\n    tag_125:\n        /* \"#utility.yul\":5840:5845   */\n      0x00\n        /* \"#utility.yul\":5889:5892   */\n      dup3\n        /* \"#utility.yul\":5882:5886   */\n      0x1f\n        /* \"#utility.yul\":5874:5880   */\n      dup4\n        /* \"#utility.yul\":5870:5887   */\n      add\n        /* \"#utility.yul\":5866:5893   */\n      slt\n        /* \"#utility.yul\":5856:5978   */\n      tag_221\n      jumpi\n        /* \"#utility.yul\":5897:5976   */\n      tag_222\n      tag_117\n      jump\t// in\n    tag_222:\n        /* \"#utility.yul\":5856:5978   */\n    tag_221:\n        /* \"#utility.yul\":6014:6020   */\n      dup2\n        /* \"#utility.yul\":6001:6021   */\n      calldataload\n        /* \"#utility.yul\":6039:6118   */\n      tag_223\n        /* \"#utility.yul\":6114:6117   */\n      dup5\n        /* \"#utility.yul\":6106:6112   */\n      dup3\n        /* \"#utility.yul\":6099:6103   */\n      0x20\n        /* \"#utility.yul\":6091:6097   */\n      dup7\n        /* \"#utility.yul\":6087:6104   */\n      add\n        /* \"#utility.yul\":6039:6118   */\n      tag_124\n      jump\t// in\n    tag_223:\n        /* \"#utility.yul\":6030:6118   */\n      swap2\n      pop\n        /* \"#utility.yul\":5846:6124   */\n      pop\n        /* \"#utility.yul\":5784:6124   */\n      swap3\n      swap2\n      pop\n      pop\n      jump\t// out\n        /* \"#utility.yul\":6130:6639   */\n    tag_22:\n        /* \"#utility.yul\":6199:6205   */\n      0x00\n        /* \"#utility.yul\":6248:6250   */\n      0x20\n        /* \"#utility.yul\":6236:6245   */\n      dup3\n        /* \"#utility.yul\":6227:6234   */\n      dup5\n        /* \"#utility.yul\":6223:6246   */\n      sub\n        /* \"#utility.yul\":6219:6251   */\n      slt\n        /* \"#utility.yul\":6216:6335   */\n      iszero\n      tag_225\n      jumpi\n        /* \"#utility.yul\":6254:6333   */\n      tag_226\n      tag_115\n      jump\t// in\n    tag_226:\n        /* \"#utility.yul\":6216:6335   */\n    tag_225:\n        /* \"#utility.yul\":6402:6403   */\n      0x00\n        /* \"#utility.yul\":6391:6400   */\n      dup3\n        /* \"#utility.yul\":6387:6404   */\n      add\n        /* \"#utility.yul\":6374:6405   */\n      calldataload\n        /* \"#utility.yul\":6432:6450   */\n      0xffffffffffffffff\n        /* \"#utility.yul\":6424:6430   */\n      dup2\n        /* \"#utility.yul\":6421:6451   */\n      gt\n        /* \"#utility.yul\":6418:6535   */\n      iszero\n      tag_227\n      jumpi\n        /* \"#utility.yul\":6454:6533   */\n      tag_228\n      tag_116\n      jump\t// in\n    tag_228:\n        /* \"#utility.yul\":6418:6535   */\n    tag_227:\n        /* \"#utility.yul\":6559:6622   */\n      tag_229\n        /* \"#utility.yul\":6614:6621   */\n      dup5\n        /* \"#utility.yul\":6605:6611   */\n      dup3\n        /* \"#utility.yul\":6594:6603   */\n      dup6\n        /* \"#utility.yul\":6590:6612   */\n      add\n        /* \"#utility.yul\":6559:6622   */\n      tag_125\n      jump\t// in\n    tag_229:\n        /* \"#utility.yul\":6549:6622   */\n      swap2\n      pop\n        /* \"#utility.yul\":6345:6632   */\n      pop\n        /* \"#utility.yul\":6130:6639   */\n      swap3\n      swap2\n      pop\n      pop\n      jump\t// out\n        /* \"#utility.yul\":6645:6735   */\n    tag_126:\n        /* \"#utility.yul\":6679:6686   */\n      0x00\n        /* \"#utility.yul\":6722:6727   */\n      dup2\n        /* \"#utility.yul\":6715:6728   */\n      iszero\n        /* \"#utility.yul\":6708:6729   */\n      iszero\n        /* \"#utility.yul\":6697:6729   */\n      swap1\n      pop\n        /* \"#utility.yul\":6645:6735   */\n      swap2\n      swap1\n      pop\n      jump\t// out\n        /* \"#utility.yul\":6741:6850   */\n    tag_127:\n        /* \"#utility.yul\":6822:6843   */\n      tag_232\n        /* \"#utility.yul\":6837:6842   */\n      dup2\n        /* \"#utility.yul\":6822:6843   */\n      tag_126\n      jump\t// in\n    tag_232:\n        /* \"#utility.yul\":6817:6820   */\n      dup3\n        /* \"#utility.yul\":6810:6844   */\n      mstore\n        /* \"#utility.yul\":6741:6850   */\n      pop\n      pop\n      jump\t// out\n        /* \"#utility.yul\":6856:7066   */\n    tag_28:\n        /* \"#utility.yul\":6943:6947   */\n      0x00\n        /* \"#utility.yul\":6981:6983   */\n      0x20\n        /* \"#utility.yul\":6970:6979   */\n      dup3\n        /* \"#utility.yul\":6966:6984   */\n      add\n        /* \"#utility.yul\":6958:6984   */\n      swap1\n      pop\n        /* \"#utility.yul\":6994:7059   */\n      tag_234\n        /* \"#utility.yul\":7056:7057   */\n      0x00\n        /* \"#utility.yul\":7045:7054   */\n      dup4\n        /* \"#utility.yul\":7041:7058   */\n      add\n        /* \"#utility.yul\":7032:7038   */\n      dup5\n        /* \"#utility.yul\":6994:7059   */\n      tag_127\n      jump\t// in\n    tag_234:\n        /* \"#utility.yul\":6856:7066   */\n      swap3\n      swap2\n      pop\n      pop\n      jump\t// out\n        /* \"#utility.yul\":7072:7198   */\n    tag_128:\n        /* \"#utility.yul\":7109:7116   */\n      0x00\n        /* \"#utility.yul\":7149:7191   */\n      0xffffffffffffffffffffffffffffffffffffffff\n        /* \"#utility.yul\":7142:7147   */\n      dup3\n        /* \"#utility.yul\":7138:7192   */\n      and\n        /* \"#utility.yul\":7127:7192   */\n      swap1\n      pop\n        /* \"#utility.yul\":7072:7198   */\n      swap2\n      swap1\n      pop\n      jump\t// out\n        /* \"#utility.yul\":7204:7300   */\n    tag_129:\n        /* \"#utility.yul\":7241:7248   */\n      0x00\n        /* \"#utility.yul\":7270:7294   */\n      tag_237\n        /* \"#utility.yul\":7288:7293   */\n      dup3\n        /* \"#utility.yul\":7270:7294   */\n      tag_128\n      jump\t// in\n    tag_237:\n        /* \"#utility.yul\":7259:7294   */\n      swap1\n      pop\n        /* \"#utility.yul\":7204:7300   */\n      swap2\n      swap1\n      pop\n      jump\t// out\n        /* \"#utility.yul\":7306:7424   */\n    tag_130:\n        /* \"#utility.yul\":7393:7417   */\n      tag_239\n        /* \"#utility.yul\":7411:7416   */\n      dup2\n        /* \"#utility.yul\":7393:7417   */\n      tag_129\n      jump\t// in\n    tag_239:\n        /* \"#utility.yul\":7388:7391   */\n      dup3\n        /* \"#utility.yul\":7381:7418   */\n      mstore\n        /* \"#utility.yul\":7306:7424   */\n      pop\n      pop\n      jump\t// out\n        /* \"#utility.yul\":7430:7652   */\n    tag_36:\n        /* \"#utility.yul\":7523:7527   */\n      0x00\n        /* \"#utility.yul\":7561:7563   */\n      0x20\n        /* \"#utility.yul\":7550:7559   */\n      dup3\n        /* \"#utility.yul\":7546:7564   */\n      add\n        /* \"#utility.yul\":7538:7564   */\n      swap1\n      pop\n        /* \"#utility.yul\":7574:7645   */\n      tag_241\n        /* \"#utility.yul\":7642:7643   */\n      0x00\n        /* \"#utility.yul\":7631:7640   */\n      dup4\n        /* \"#utility.yul\":7627:7644   */\n      add\n        /* \"#utility.yul\":7618:7624   */\n      dup5\n        /* \"#utility.yul\":7574:7645   */\n      tag_130\n      jump\t// in\n    tag_241:\n        /* \"#utility.yul\":7430:7652   */\n      swap3\n      swap2\n      pop\n      pop\n      jump\t// out\n        /* \"#utility.yul\":7658:7838   */\n    tag_131:\n        /* \"#utility.yul\":7706:7783   */\n      0x4e487b7100000000000000000000000000000000000000000000000000000000\n        /* \"#utility.yul\":7703:7704   */\n      0x00\n        /* \"#utility.yul\":7696:7784   */\n      mstore\n        /* \"#utility.yul\":7803:7807   */\n      0x22\n        /* \"#utility.yul\":7800:7801   */\n      0x04\n        /* \"#utility.yul\":7793:7808   */\n      mstore\n        /* \"#utility.yul\":7827:7831   */\n      0x24\n        /* \"#utility.yul\":7824:7825   */\n      0x00\n        /* \"#utility.yul\":7817:7832   */\n      revert\n        /* \"#utility.yul\":7844:8164   */\n    tag_47:\n        /* \"#utility.yul\":7888:7894   */\n      0x00\n        /* \"#utility.yul\":7925:7926   */\n      0x02\n        /* \"#utility.yul\":7919:7923   */\n      dup3\n        /* \"#utility.yul\":7915:7927   */\n      div\n        /* \"#utility.yul\":7905:7927   */\n      swap1\n      pop\n        /* \"#utility.yul\":7972:7973   */\n      0x01\n        /* \"#utility.yul\":7966:7970   */\n      dup3\n        /* \"#utility.yul\":7962:7974   */\n      and\n        /* \"#utility.yul\":7993:8011   */\n      dup1\n        /* \"#utility.yul\":7983:8064   */\n      tag_244\n      jumpi\n        /* \"#utility.yul\":8049:8053   */\n      0x7f\n        /* \"#utility.yul\":8041:8047   */\n      dup3\n        /* \"#utility.yul\":8037:8054   */\n      and\n        /* \"#utility.yul\":8027:8054   */\n      swap2\n      pop\n        /* \"#utility.yul\":7983:8064   */\n    tag_244:\n        /* \"#utility.yul\":8111:8113   */\n      0x20\n        /* \"#utility.yul\":8103:8109   */\n      dup3\n        /* \"#utility.yul\":8100:8114   */\n      lt\n        /* \"#utility.yul\":8080:8098   */\n      dup2\n        /* \"#utility.yul\":8077:8115   */\n      sub\n        /* \"#utility.yul\":8074:8158   */\n      tag_245\n      jumpi\n        /* \"#utility.yul\":8130:8148   */\n      tag_246\n      tag_131\n      jump\t// in\n    tag_246:\n        /* \"#utility.yul\":8074:8158   */\n    tag_245:\n        /* \"#utility.yul\":7895:8164   */\n      pop\n        /* \"#utility.yul\":7844:8164   */\n      swap2\n      swap1\n      pop\n      jump\t// out\n        /* \"#utility.yul\":8170:8339   */\n    tag_132:\n        /* \"#utility.yul\":8254:8265   */\n      0x00\n        /* \"#utility.yul\":8288:8294   */\n      dup3\n        /* \"#utility.yul\":8283:8286   */\n      dup3\n        /* \"#utility.yul\":8276:8295   */\n      mstore\n        /* \"#utility.yul\":8328:8332   */\n      0x20\n        /* \"#utility.yul\":8323:8326   */\n      dup3\n        /* \"#utility.yul\":8319:8333   */\n      add\n        /* \"#utility.yul\":8304:8333   */\n      swap1\n      pop\n        /* \"#utility.yul\":8170:8339   */\n      swap3\n      swap2\n      pop\n      pop\n      jump\t// out\n        /* \"#utility.yul\":8345:8575   */\n    tag_133:\n        /* \"#utility.yul\":8485:8519   */\n      0x4f6e6c7920636f6e7472616374206f776e65722063616e20706572666f726d20\n        /* \"#utility.yul\":8481:8482   */\n      0x00\n        /* \"#utility.yul\":8473:8479   */\n      dup3\n        /* \"#utility.yul\":8469:8483   */\n      add\n        /* \"#utility.yul\":8462:8520   */\n      mstore\n        /* \"#utility.yul\":8554:8567   */\n      0x7468697320616374696f6e000000000000000000000000000000000000000000\n        /* \"#utility.yul\":8549:8551   */\n      0x20\n        /* \"#utility.yul\":8541:8547   */\n      dup3\n        /* \"#utility.yul\":8537:8552   */\n      add\n        /* \"#utility.yul\":8530:8568   */\n      mstore\n        /* \"#utility.yul\":8345:8575   */\n      pop\n      jump\t// out\n        /* \"#utility.yul\":8581:8947   */\n    tag_134:\n        /* \"#utility.yul\":8723:8726   */\n      0x00\n        /* \"#utility.yul\":8744:8811   */\n      tag_250\n        /* \"#utility.yul\":8808:8810   */\n      0x2b\n        /* \"#utility.yul\":8803:8806   */\n      dup4\n        /* \"#utility.yul\":8744:8811   */\n      tag_132\n      jump\t// in\n    tag_250:\n        /* \"#utility.yul\":8737:8811   */\n      swap2\n      pop\n        /* \"#utility.yul\":8820:8913   */\n      tag_251\n        /* \"#utility.yul\":8909:8912   */\n      dup3\n        /* \"#utility.yul\":8820:8913   */\n      tag_133\n      jump\t// in\n    tag_251:\n        /* \"#utility.yul\":8938:8940   */\n      0x40\n        /* \"#utility.yul\":8933:8936   */\n      dup3\n        /* \"#utility.yul\":8929:8941   */\n      add\n        /* \"#utility.yul\":8922:8941   */\n      swap1\n      pop\n        /* \"#utility.yul\":8581:8947   */\n      swap2\n      swap1\n      pop\n      jump\t// out\n        /* \"#utility.yul\":8953:9372   */\n    tag_56:\n        /* \"#utility.yul\":9119:9123   */\n      0x00\n        /* \"#utility.yul\":9157:9159   */\n      0x20\n        /* \"#utility.yul\":9146:9155   */\n      dup3\n        /* \"#utility.yul\":9142:9160   */\n      add\n        /* \"#utility.yul\":9134:9160   */\n      swap1\n      pop\n        /* \"#utility.yul\":9206:9215   */\n      dup2\n        /* \"#utility.yul\":9200:9204   */\n      dup2\n        /* \"#utility.yul\":9196:9216   */\n      sub\n        /* \"#utility.yul\":9192:9193   */\n      0x00\n        /* \"#utility.yul\":9181:9190   */\n      dup4\n        /* \"#utility.yul\":9177:9194   */\n      add\n        /* \"#utility.yul\":9170:9217   */\n      mstore\n        /* \"#utility.yul\":9234:9365   */\n      tag_253\n        /* \"#utility.yul\":9360:9364   */\n      dup2\n        /* \"#utility.yul\":9234:9365   */\n      tag_134\n      jump\t// in\n    tag_253:\n        /* \"#utility.yul\":9226:9365   */\n      swap1\n      pop\n        /* \"#utility.yul\":8953:9372   */\n      swap2\n      swap1\n      pop\n      jump\t// out\n        /* \"#utility.yul\":9378:9558   */\n    tag_135:\n        /* \"#utility.yul\":9518:9550   */\n      0x43616e646964617465206e616d652063616e6e6f7420626520656d7074790000\n        /* \"#utility.yul\":9514:9515   */\n      0x00\n        /* \"#utility.yul\":9506:9512   */\n      dup3\n        /* \"#utility.yul\":9502:9516   */\n      add\n        /* \"#utility.yul\":9495:9551   */\n      mstore\n        /* \"#utility.yul\":9378:9558   */\n      pop\n      jump\t// out\n        /* \"#utility.yul\":9564:9930   */\n    tag_136:\n        /* \"#utility.yul\":9706:9709   */\n      0x00\n        /* \"#utility.yul\":9727:9794   */\n      tag_256\n        /* \"#utility.yul\":9791:9793   */\n      0x1e\n        /* \"#utility.yul\":9786:9789   */\n      dup4\n        /* \"#utility.yul\":9727:9794   */\n      tag_132\n      jump\t// in\n    tag_256:\n        /* \"#utility.yul\":9720:9794   */\n      swap2\n      pop\n        /* \"#utility.yul\":9803:9896   */\n      tag_257\n        /* \"#utility.yul\":9892:9895   */\n      dup3\n        /* \"#utility.yul\":9803:9896   */\n      tag_135\n      jump\t// in\n    tag_257:\n        /* \"#utility.yul\":9921:9923   */\n      0x20\n        /* \"#utility.yul\":9916:9919   */\n      dup3\n        /* \"#utility.yul\":9912:9924   */\n      add\n        /* \"#utility.yul\":9905:9924   */\n      swap1\n      pop\n        /* \"#utility.yul\":9564:9930   */\n      swap2\n      swap1\n      pop\n      jump\t// out\n        /* \"#utility.yul\":9936:10355   */\n    tag_60:\n        /* \"#utility.yul\":10102:10106   */\n      0x00\n        /* \"#utility.yul\":10140:10142   */\n      0x20\n        /* \"#utility.yul\":10129:10138   */\n      dup3\n        /* \"#utility.yul\":10125:10143   */\n      add\n        /* \"#utility.yul\":10117:10143   */\n      swap1\n      pop\n        /* \"#utility.yul\":10189:10198   */\n      dup2\n        /* \"#utility.yul\":10183:10187   */\n      dup2\n        /* \"#utility.yul\":10179:10199   */\n      sub\n        /* \"#utility.yul\":10175:10176   */\n      0x00\n        /* \"#utility.yul\":10164:10173   */\n      dup4\n        /* \"#utility.yul\":10160:10177   */\n      add\n        /* \"#utility.yul\":10153:10200   */\n      mstore\n        /* \"#utility.yul\":10217:10348   */\n      tag_259\n        /* \"#utility.yul\":10343:10347   */\n      dup2\n        /* \"#utility.yul\":10217:10348   */\n      tag_136\n      jump\t// in\n    tag_259:\n        /* \"#utility.yul\":10209:10348   */\n      swap1\n      pop\n        /* \"#utility.yul\":9936:10355   */\n      swap2\n      swap1\n      pop\n      jump\t// out\n        /* \"#utility.yul\":10361:10509   */\n    tag_137:\n        /* \"#utility.yul\":10463:10474   */\n      0x00\n        /* \"#utility.yul\":10500:10503   */\n      dup2\n        /* \"#utility.yul\":10485:10503   */\n      swap1\n      pop\n        /* \"#utility.yul\":10361:10509   */\n      swap3\n      swap2\n      pop\n      pop\n      jump\t// out\n        /* \"#utility.yul\":10515:10905   */\n    tag_138:\n        /* \"#utility.yul\":10621:10624   */\n      0x00\n        /* \"#utility.yul\":10649:10688   */\n      tag_262\n        /* \"#utility.yul\":10682:10687   */\n      dup3\n        /* \"#utility.yul\":10649:10688   */\n      tag_104\n      jump\t// in\n    tag_262:\n        /* \"#utility.yul\":10704:10793   */\n      tag_263\n        /* \"#utility.yul\":10786:10792   */\n      dup2\n        /* \"#utility.yul\":10781:10784   */\n      dup6\n        /* \"#utility.yul\":10704:10793   */\n      tag_137\n      jump\t// in\n    tag_263:\n        /* \"#utility.yul\":10697:10793   */\n      swap4\n      pop\n        /* \"#utility.yul\":10802:10867   */\n      tag_264\n        /* \"#utility.yul\":10860:10866   */\n      dup2\n        /* \"#utility.yul\":10855:10858   */\n      dup6\n        /* \"#utility.yul\":10848:10852   */\n      0x20\n        /* \"#utility.yul\":10841:10846   */\n      dup7\n        /* \"#utility.yul\":10837:10853   */\n      add\n        /* \"#utility.yul\":10802:10867   */\n      tag_106\n      jump\t// in\n    tag_264:\n        /* \"#utility.yul\":10892:10898   */\n      dup1\n        /* \"#utility.yul\":10887:10890   */\n      dup5\n        /* \"#utility.yul\":10883:10899   */\n      add\n        /* \"#utility.yul\":10876:10899   */\n      swap2\n      pop\n        /* \"#utility.yul\":10625:10905   */\n      pop\n        /* \"#utility.yul\":10515:10905   */\n      swap3\n      swap2\n      pop\n      pop\n      jump\t// out\n        /* \"#utility.yul\":10911:11186   */\n    tag_62:\n        /* \"#utility.yul\":11043:11046   */\n      0x00\n        /* \"#utility.yul\":11065:11160   */\n      tag_266\n        /* \"#utility.yul\":11156:11159   */\n      dup3\n        /* \"#utility.yul\":11147:11153   */\n      dup5\n        /* \"#utility.yul\":11065:11160   */\n      tag_138\n      jump\t// in\n    tag_266:\n        /* \"#utility.yul\":11058:11160   */\n      swap2\n      pop\n        /* \"#utility.yul\":11177:11180   */\n      dup2\n        /* \"#utility.yul\":11170:11180   */\n      swap1\n      pop\n        /* \"#utility.yul\":10911:11186   */\n      swap3\n      swap2\n      pop\n      pop\n      jump\t// out\n        /* \"#utility.yul\":11192:11366   */\n    tag_139:\n        /* \"#utility.yul\":11332:11358   */\n      0x43616e64696461746520616c7265616479206578697374730000000000000000\n        /* \"#utility.yul\":11328:11329   */\n      0x00\n        /* \"#utility.yul\":11320:11326   */\n      dup3\n        /* \"#utility.yul\":11316:11330   */\n      add\n        /* \"#utility.yul\":11309:11359   */\n      mstore\n        /* \"#utility.yul\":11192:11366   */\n      pop\n      jump\t// out\n        /* \"#utility.yul\":11372:11738   */\n    tag_140:\n        /* \"#utility.yul\":11514:11517   */\n      0x00\n        /* \"#utility.yul\":11535:11602   */\n      tag_269\n        /* \"#utility.yul\":11599:11601   */\n      0x18\n        /* \"#utility.yul\":11594:11597   */\n      dup4\n        /* \"#utility.yul\":11535:11602   */\n      tag_132\n      jump\t// in\n    tag_269:\n        /* \"#utility.yul\":11528:11602   */\n      swap2\n      pop\n        /* \"#utility.yul\":11611:11704   */\n      tag_270\n        /* \"#utility.yul\":11700:11703   */\n      dup3\n        /* \"#utility.yul\":11611:11704   */\n      tag_139\n      jump\t// in\n    tag_270:\n        /* \"#utility.yul\":11729:11731   */\n      0x20\n        /* \"#utility.yul\":11724:11727   */\n      dup3\n        /* \"#utility.yul\":11720:11732   */\n      add\n        /* \"#utility.yul\":11713:11732   */\n      swap1\n      pop\n        /* \"#utility.yul\":11372:11738   */\n      swap2\n      swap1\n      pop\n      jump\t// out\n        /* \"#utility.yul\":11744:12163   */\n    tag_65:\n        /* \"#utility.yul\":11910:11914   */\n      0x00\n        /* \"#utility.yul\":11948:11950   */\n      0x20\n        /* \"#utility.yul\":11937:11946   */\n      dup3\n        /* \"#utility.yul\":11933:11951   */\n      add\n        /* \"#utility.yul\":11925:11951   */\n      swap1\n      pop\n        /* \"#utility.yul\":11997:12006   */\n      dup2\n        /* \"#utility.yul\":11991:11995   */\n      dup2\n        /* \"#utility.yul\":11987:12007   */\n      sub\n        /* \"#utility.yul\":11983:11984   */\n      0x00\n        /* \"#utility.yul\":11972:11981   */\n      dup4\n        /* \"#utility.yul\":11968:11985   */\n      add\n        /* \"#utility.yul\":11961:12008   */\n      mstore\n        /* \"#utility.yul\":12025:12156   */\n      tag_272\n        /* \"#utility.yul\":12151:12155   */\n      dup2\n        /* \"#utility.yul\":12025:12156   */\n      tag_140\n      jump\t// in\n    tag_272:\n        /* \"#utility.yul\":12017:12156   */\n      swap1\n      pop\n        /* \"#utility.yul\":11744:12163   */\n      swap2\n      swap1\n      pop\n      jump\t// out\n        /* \"#utility.yul\":12169:12310   */\n    tag_141:\n        /* \"#utility.yul\":12218:12222   */\n      0x00\n        /* \"#utility.yul\":12241:12244   */\n      dup2\n        /* \"#utility.yul\":12233:12244   */\n      swap1\n      pop\n        /* \"#utility.yul\":12264:12267   */\n      dup2\n        /* \"#utility.yul\":12261:12262   */\n      0x00\n        /* \"#utility.yul\":12254:12268   */\n      mstore\n        /* \"#utility.yul\":12298:12302   */\n      0x20\n        /* \"#utility.yul\":12295:12296   */\n      0x00\n        /* \"#utility.yul\":12285:12303   */\n      keccak256\n        /* \"#utility.yul\":12277:12303   */\n      swap1\n      pop\n        /* \"#utility.yul\":12169:12310   */\n      swap2\n      swap1\n      pop\n      jump\t// out\n        /* \"#utility.yul\":12316:12409   */\n    tag_142:\n        /* \"#utility.yul\":12353:12359   */\n      0x00\n        /* \"#utility.yul\":12400:12402   */\n      0x20\n        /* \"#utility.yul\":12395:12397   */\n      0x1f\n        /* \"#utility.yul\":12388:12393   */\n      dup4\n        /* \"#utility.yul\":12384:12398   */\n      add\n        /* \"#utility.yul\":12380:12403   */\n      div\n        /* \"#utility.yul\":12370:12403   */\n      swap1\n      pop\n        /* \"#utility.yul\":12316:12409   */\n      swap2\n      swap1\n      pop\n      jump\t// out\n        /* \"#utility.yul\":12415:12522   */\n    tag_143:\n        /* \"#utility.yul\":12459:12467   */\n      0x00\n        /* \"#utility.yul\":12509:12514   */\n      dup3\n        /* \"#utility.yul\":12503:12507   */\n      dup3\n        /* \"#utility.yul\":12499:12515   */\n      shl\n        /* \"#utility.yul\":12478:12515   */\n      swap1\n      pop\n        /* \"#utility.yul\":12415:12522   */\n      swap3\n      swap2\n      pop\n      pop\n      jump\t// out\n        /* \"#utility.yul\":12528:12921   */\n    tag_144:\n        /* \"#utility.yul\":12597:12603   */\n      0x00\n        /* \"#utility.yul\":12647:12648   */\n      0x08\n        /* \"#utility.yul\":12635:12645   */\n      dup4\n        /* \"#utility.yul\":12631:12649   */\n      mul\n        /* \"#utility.yul\":12670:12767   */\n      tag_277\n        /* \"#utility.yul\":12700:12766   */\n      0xffffffffffffffffffffffffffffffffffffffffffffffffffffffffffffffff\n        /* \"#utility.yul\":12689:12698   */\n      dup3\n        /* \"#utility.yul\":12670:12767   */\n      tag_143\n      jump\t// in\n    tag_277:\n        /* \"#utility.yul\":12788:12827   */\n      tag_278\n        /* \"#utility.yul\":12818:12826   */\n      dup7\n        /* \"#utility.yul\":12807:12816   */\n      dup4\n        /* \"#utility.yul\":12788:12827   */\n      tag_143\n      jump\t// in\n    tag_278:\n        /* \"#utility.yul\":12776:12827   */\n      swap6\n      pop\n        /* \"#utility.yul\":12860:12864   */\n      dup1\n        /* \"#utility.yul\":12856:12865   */\n      not\n        /* \"#utility.yul\":12849:12854   */\n      dup5\n        /* \"#utility.yul\":12845:12866   */\n      and\n        /* \"#utility.yul\":12836:12866   */\n      swap4\n      pop\n        /* \"#utility.yul\":12909:12913   */\n      dup1\n        /* \"#utility.yul\":12899:12907   */\n      dup7\n        /* \"#utility.yul\":12895:12914   */\n      and\n        /* \"#utility.yul\":12888:12893   */\n      dup5\n        /* \"#utility.yul\":12885:12915   */\n      or\n        /* \"#utility.yul\":12875:12915   */\n      swap3\n      pop\n        /* \"#utility.yul\":12604:12921   */\n      pop\n      pop\n        /* \"#utility.yul\":12528:12921   */\n      swap4\n      swap3\n      pop\n      pop\n      pop\n      jump\t// out\n        /* \"#utility.yul\":12927:12987   */\n    tag_145:\n        /* \"#utility.yul\":12955:12958   */\n      0x00\n        /* \"#utility.yul\":12976:12981   */\n      dup2\n        /* \"#utility.yul\":12969:12981   */\n      swap1\n      pop\n        /* \"#utility.yul\":12927:12987   */\n      swap2\n      swap1\n      pop\n      jump\t// out\n        /* \"#utility.yul\":12993:13135   */\n    tag_146:\n        /* \"#utility.yul\":13043:13052   */\n      0x00\n        /* \"#utility.yul\":13076:13129   */\n      tag_281\n        /* \"#utility.yul\":13094:13128   */\n      tag_282\n        /* \"#utility.yul\":13103:13127   */\n      tag_283\n        /* \"#utility.yul\":13121:13126   */\n      dup5\n        /* \"#utility.yul\":13103:13127   */\n      tag_112\n      jump\t// in\n    tag_283:\n        /* \"#utility.yul\":13094:13128   */\n      tag_145\n      jump\t// in\n    tag_282:\n        /* \"#utility.yul\":13076:13129   */\n      tag_112\n      jump\t// in\n    tag_281:\n        /* \"#utility.yul\":13063:13129   */\n      swap1\n      pop\n        /* \"#utility.yul\":12993:13135   */\n      swap2\n      swap1\n      pop\n      jump\t// out\n        /* \"#utility.yul\":13141:13216   */\n    tag_147:\n        /* \"#utility.yul\":13184:13187   */\n      0x00\n        /* \"#utility.yul\":13205:13210   */\n      dup2\n        /* \"#utility.yul\":13198:13210   */\n      swap1\n      pop\n        /* \"#utility.yul\":13141:13216   */\n      swap2\n      swap1\n      pop\n      jump\t// out\n        /* \"#utility.yul\":13222:13491   */\n    tag_148:\n        /* \"#utility.yul\":13332:13371   */\n      tag_286\n        /* \"#utility.yul\":13363:13370   */\n      dup4\n        /* \"#utility.yul\":13332:13371   */\n      tag_146\n      jump\t// in\n    tag_286:\n        /* \"#utility.yul\":13393:13484   */\n      tag_287\n        /* \"#utility.yul\":13442:13483   */\n      tag_288\n        /* \"#utility.yul\":13466:13482   */\n      dup3\n        /* \"#utility.yul\":13442:13483   */\n      tag_147\n      jump\t// in\n    tag_288:\n        /* \"#utility.yul\":13434:13440   */\n      dup5\n        /* \"#utility.yul\":13427:13431   */\n      dup5\n        /* \"#utility.yul\":13421:13432   */\n      sload\n        /* \"#utility.yul\":13393:13484   */\n      tag_144\n      jump\t// in\n    tag_287:\n        /* \"#utility.yul\":13387:13391   */\n      dup3\n        /* \"#utility.yul\":13380:13485   */\n      sstore\n        /* \"#utility.yul\":13298:13491   */\n      pop\n        /* \"#utility.yul\":13222:13491   */\n      pop\n      pop\n      pop\n      jump\t// out\n        /* \"#utility.yul\":13497:13570   */\n    tag_149:\n        /* \"#utility.yul\":13542:13545   */\n      0x00\n        /* \"#utility.yul\":13563:13564   */\n      0x00\n        /* \"#utility.yul\":13556:13564   */\n      swap1\n      pop\n        /* \"#utility.yul\":13497:13570   */\n      swap1\n      jump\t// out\n        /* \"#utility.yul\":13576:13765   */\n    tag_150:\n        /* \"#utility.yul\":13653:13685   */\n      tag_291\n      tag_149\n      jump\t// in\n    tag_291:\n        /* \"#utility.yul\":13694:13759   */\n      tag_292\n        /* \"#utility.yul\":13752:13758   */\n      dup2\n        /* \"#utility.yul\":13744:13750   */\n      dup5\n        /* \"#utility.yul\":13738:13742   */\n      dup5\n        /* \"#utility.yul\":13694:13759   */\n      tag_148\n      jump\t// in\n    tag_292:\n        /* \"#utility.yul\":13629:13765   */\n      pop\n        /* \"#utility.yul\":13576:13765   */\n      pop\n      pop\n      jump\t// out\n        /* \"#utility.yul\":13771:13957   */\n    tag_151:\n        /* \"#utility.yul\":13831:13951   */\n    tag_294:\n        /* \"#utility.yul\":13848:13851   */\n      dup2\n        /* \"#utility.yul\":13841:13846   */\n      dup2\n        /* \"#utility.yul\":13838:13852   */\n      lt\n        /* \"#utility.yul\":13831:13951   */\n      iszero\n      tag_296\n      jumpi\n        /* \"#utility.yul\":13902:13941   */\n      tag_297\n        /* \"#utility.yul\":13939:13940   */\n      0x00\n        /* \"#utility.yul\":13932:13937   */\n      dup3\n        /* \"#utility.yul\":13902:13941   */\n      tag_150\n      jump\t// in\n    tag_297:\n        /* \"#utility.yul\":13875:13876   */\n      0x01\n        /* \"#utility.yul\":13868:13873   */\n      dup2\n        /* \"#utility.yul\":13864:13877   */\n      add\n        /* \"#utility.yul\":13855:13877   */\n      swap1\n      pop\n        /* \"#utility.yul\":13831:13951   */\n      jump(tag_294)\n    tag_296:\n        /* \"#utility.yul\":13771:13957   */\n      pop\n      pop\n      jump\t// out\n        /* \"#utility.yul\":13963:14506   */\n    tag_152:\n        /* \"#utility.yul\":14064:14066   */\n      0x1f\n        /* \"#utility.yul\":14059:14062   */\n      dup3\n        /* \"#utility.yul\":14056:14067   */\n      gt\n        /* \"#utility.yul\":14053:14499   */\n      iszero\n      tag_299\n      jumpi\n        /* \"#utility.yul\":14098:14136   */\n      tag_300\n        /* \"#utility.yul\":14130:14135   */\n      dup2\n        /* \"#utility.yul\":14098:14136   */\n      tag_141\n      jump\t// in\n    tag_300:\n        /* \"#utility.yul\":14182:14211   */\n      tag_301\n        /* \"#utility.yul\":14200:14210   */\n      dup5\n        /* \"#utility.yul\":14182:14211   */\n      tag_142\n      jump\t// in\n    tag_301:\n        /* \"#utility.yul\":14172:14180   */\n      dup2\n        /* \"#utility.yul\":14168:14212   */\n      add\n        /* \"#utility.yul\":14365:14367   */\n      0x20\n        /* \"#utility.yul\":14353:14363   */\n      dup6\n        /* \"#utility.yul\":14350:14368   */\n      lt\n        /* \"#utility.yul\":14347:14396   */\n      iszero\n      tag_302\n      jumpi\n        /* \"#utility.yul\":14386:14394   */\n      dup2\n        /* \"#utility.yul\":14371:14394   */\n      swap1\n      pop\n        /* \"#utility.yul\":14347:14396   */\n    tag_302:\n        /* \"#utility.yul\":14409:14489   */\n      tag_303\n        /* \"#utility.yul\":14465:14487   */\n      tag_304\n        /* \"#utility.yul\":14483:14486   */\n      dup6\n        /* \"#utility.yul\":14465:14487   */\n      tag_142\n      jump\t// in\n    tag_304:\n        /* \"#utility.yul\":14455:14463   */\n      dup4\n        /* \"#utility.yul\":14451:14488   */\n      add\n        /* \"#utility.yul\":14438:14449   */\n      dup3\n        /* \"#utility.yul\":14409:14489   */\n      tag_151\n      jump\t// in\n    tag_303:\n        /* \"#utility.yul\":14068:14499   */\n      pop\n      pop\n        /* \"#utility.yul\":14053:14499   */\n    tag_299:\n        /* \"#utility.yul\":13963:14506   */\n      pop\n      pop\n      pop\n      jump\t// out\n        /* \"#utility.yul\":14512:14629   */\n    tag_153:\n        /* \"#utility.yul\":14566:14574   */\n      0x00\n        /* \"#utility.yul\":14616:14621   */\n      dup3\n        /* \"#utility.yul\":14610:14614   */\n      dup3\n        /* \"#utility.yul\":14606:14622   */\n      shr\n        /* \"#utility.yul\":14585:14622   */\n      swap1\n      pop\n        /* \"#utility.yul\":14512:14629   */\n      swap3\n      swap2\n      pop\n      pop\n      jump\t// out\n        /* \"#utility.yul\":14635:14804   */\n    tag_154:\n        /* \"#utility.yul\":14679:14685   */\n      0x00\n        /* \"#utility.yul\":14712:14763   */\n      tag_307\n        /* \"#utility.yul\":14760:14761   */\n      0x00\n        /* \"#utility.yul\":14756:14762   */\n      not\n        /* \"#utility.yul\":14748:14753   */\n      dup5\n        /* \"#utility.yul\":14745:14746   */\n      0x08\n        /* \"#utility.yul\":14741:14754   */\n      mul\n        /* \"#utility.yul\":14712:14763   */\n      tag_153\n      jump\t// in\n    tag_307:\n        /* \"#utility.yul\":14708:14764   */\n      not\n        /* \"#utility.yul\":14793:14797   */\n      dup1\n        /* \"#utility.yul\":14787:14791   */\n      dup4\n        /* \"#utility.yul\":14783:14798   */\n      and\n        /* \"#utility.yul\":14773:14798   */\n      swap2\n      pop\n        /* \"#utility.yul\":14686:14804   */\n      pop\n        /* \"#utility.yul\":14635:14804   */\n      swap3\n      swap2\n      pop\n      pop\n      jump\t// out\n        /* \"#utility.yul\":14809:15104   */\n    tag_155:\n        /* \"#utility.yul\":14885:14889   */\n      0x00\n        /* \"#utility.yul\":15031:15060   */\n      tag_309\n        /* \"#utility.yul\":15056:15059   */\n      dup4\n        /* \"#utility.yul\":15050:15054   */\n      dup4\n        /* \"#utility.yul\":15031:15060   */\n      tag_154\n      jump\t// in\n    tag_309:\n        /* \"#utility.yul\":15023:15060   */\n      swap2\n      pop\n        /* \"#utility.yul\":15093:15096   */\n      dup3\n        /* \"#utility.yul\":15090:15091   */\n      0x02\n        /* \"#utility.yul\":15086:15097   */\n      mul\n        /* \"#utility.yul\":15080:15084   */\n      dup3\n        /* \"#utility.yul\":15077:15098   */\n      or\n        /* \"#utility.yul\":15069:15098   */\n      swap1\n      pop\n        /* \"#utility.yul\":14809:15104   */\n      swap3\n      swap2\n      pop\n      pop\n      jump\t// out\n        /* \"#utility.yul\":15109:16504   */\n    tag_68:\n        /* \"#utility.yul\":15226:15263   */\n      tag_311\n        /* \"#utility.yul\":15259:15262   */\n      dup3\n        /* \"#utility.yul\":15226:15263   */\n      tag_104\n      jump\t// in\n    tag_311:\n        /* \"#utility.yul\":15328:15346   */\n      0xffffffffffffffff\n        /* \"#utility.yul\":15320:15326   */\n      dup2\n        /* \"#utility.yul\":15317:15347   */\n      gt\n        /* \"#utility.yul\":15314:15370   */\n      iszero\n      tag_312\n      jumpi\n        /* \"#utility.yul\":15350:15368   */\n      tag_313\n      tag_119\n      jump\t// in\n    tag_313:\n        /* \"#utility.yul\":15314:15370   */\n    tag_312:\n        /* \"#utility.yul\":15394:15432   */\n      tag_314\n        /* \"#utility.yul\":15426:15430   */\n      dup3\n        /* \"#utility.yul\":15420:15431   */\n      sload\n        /* \"#utility.yul\":15394:15432   */\n      tag_47\n      jump\t// in\n    tag_314:\n        /* \"#utility.yul\":15479:15546   */\n      tag_315\n        /* \"#utility.yul\":15539:15545   */\n      dup3\n        /* \"#utility.yul\":15531:15537   */\n      dup3\n        /* \"#utility.yul\":15525:15529   */\n      dup6\n        /* \"#utility.yul\":15479:15546   */\n      tag_152\n      jump\t// in\n    tag_315:\n        /* \"#utility.yul\":15573:15574   */\n      0x00\n        /* \"#utility.yul\":15597:15601   */\n      0x20\n        /* \"#utility.yul\":15584:15601   */\n      swap1\n      pop\n        /* \"#utility.yul\":15629:15631   */\n      0x1f\n        /* \"#utility.yul\":15621:15627   */\n      dup4\n        /* \"#utility.yul\":15618:15632   */\n      gt\n        /* \"#utility.yul\":15646:15647   */\n      0x01\n        /* \"#utility.yul\":15641:16259   */\n      dup2\n      eq\n      tag_317\n      jumpi\n        /* \"#utility.yul\":16303:16304   */\n      0x00\n        /* \"#utility.yul\":16320:16326   */\n      dup5\n        /* \"#utility.yul\":16317:16394   */\n      iszero\n      tag_318\n      jumpi\n        /* \"#utility.yul\":16369:16378   */\n      dup3\n        /* \"#utility.yul\":16364:16367   */\n      dup8\n        /* \"#utility.yul\":16360:16379   */\n      add\n        /* \"#utility.yul\":16354:16380   */\n      mload\n        /* \"#utility.yul\":16345:16380   */\n      swap1\n      pop\n        /* \"#utility.yul\":16317:16394   */\n    tag_318:\n        /* \"#utility.yul\":16420:16487   */\n      tag_319\n        /* \"#utility.yul\":16480:16486   */\n      dup6\n        /* \"#utility.yul\":16473:16478   */\n      dup3\n        /* \"#utility.yul\":16420:16487   */\n      tag_155\n      jump\t// in\n    tag_319:\n        /* \"#utility.yul\":16414:16418   */\n      dup7\n        /* \"#utility.yul\":16407:16488   */\n      sstore\n        /* \"#utility.yul\":16276:16498   */\n      pop\n        /* \"#utility.yul\":15611:16498   */\n      jump(tag_316)\n        /* \"#utility.yul\":15641:16259   */\n    tag_317:\n        /* \"#utility.yul\":15693:15697   */\n      0x1f\n        /* \"#utility.yul\":15689:15698   */\n      not\n        /* \"#utility.yul\":15681:15687   */\n      dup5\n        /* \"#utility.yul\":15677:15699   */\n      and\n        /* \"#utility.yul\":15727:15764   */\n      tag_320\n        /* \"#utility.yul\":15759:15763   */\n      dup7\n        /* \"#utility.yul\":15727:15764   */\n      tag_141\n      jump\t// in\n    tag_320:\n        /* \"#utility.yul\":15786:15787   */\n      0x00\n        /* \"#utility.yul\":15800:16008   */\n    tag_321:\n        /* \"#utility.yul\":15814:15821   */\n      dup3\n        /* \"#utility.yul\":15811:15812   */\n      dup2\n        /* \"#utility.yul\":15808:15822   */\n      lt\n        /* \"#utility.yul\":15800:16008   */\n      iszero\n      tag_323\n      jumpi\n        /* \"#utility.yul\":15893:15902   */\n      dup5\n        /* \"#utility.yul\":15888:15891   */\n      dup10\n        /* \"#utility.yul\":15884:15903   */\n      add\n        /* \"#utility.yul\":15878:15904   */\n      mload\n        /* \"#utility.yul\":15870:15876   */\n      dup3\n        /* \"#utility.yul\":15863:15905   */\n      sstore\n        /* \"#utility.yul\":15944:15945   */\n      0x01\n        /* \"#utility.yul\":15936:15942   */\n      dup3\n        /* \"#utility.yul\":15932:15946   */\n      add\n        /* \"#utility.yul\":15922:15946   */\n      swap2\n      pop\n        /* \"#utility.yul\":15991:15993   */\n      0x20\n        /* \"#utility.yul\":15980:15989   */\n      dup6\n        /* \"#utility.yul\":15976:15994   */\n      add\n        /* \"#utility.yul\":15963:15994   */\n      swap5\n      pop\n        /* \"#utility.yul\":15837:15841   */\n      0x20\n        /* \"#utility.yul\":15834:15835   */\n      dup2\n        /* \"#utility.yul\":15830:15842   */\n      add\n        /* \"#utility.yul\":15825:15842   */\n      swap1\n      pop\n        /* \"#utility.yul\":15800:16008   */\n      jump(tag_321)\n    tag_323:\n        /* \"#utility.yul\":16036:16042   */\n      dup7\n        /* \"#utility.yul\":16027:16034   */\n      dup4\n        /* \"#utility.yul\":16024:16043   */\n      lt\n        /* \"#utility.yul\":16021:16200   */\n      iszero\n      tag_324\n      jumpi\n        /* \"#utility.yul\":16094:16103   */\n      dup5\n        /* \"#utility.yul\":16089:16092   */\n      dup10\n        /* \"#utility.yul\":16085:16104   */\n      add\n        /* \"#utility.yul\":16079:16105   */\n      mload\n        /* \"#utility.yul\":16137:16185   */\n      tag_325\n        /* \"#utility.yul\":16179:16183   */\n      0x1f\n        /* \"#utility.yul\":16171:16177   */\n      dup10\n        /* \"#utility.yul\":16167:16184   */\n      and\n        /* \"#utility.yul\":16156:16165   */\n      dup3\n        /* \"#utility.yul\":16137:16185   */\n      tag_154\n      jump\t// in\n    tag_325:\n        /* \"#utility.yul\":16129:16135   */\n      dup4\n        /* \"#utility.yul\":16122:16186   */\n      sstore\n        /* \"#utility.yul\":16044:16200   */\n      pop\n        /* \"#utility.yul\":16021:16200   */\n    tag_324:\n        /* \"#utility.yul\":16246:16247   */\n      0x01\n        /* \"#utility.yul\":16242:16243   */\n      0x02\n        /* \"#utility.yul\":16234:16240   */\n      dup9\n        /* \"#utility.yul\":16230:16244   */\n      mul\n        /* \"#utility.yul\":16226:16248   */\n      add\n        /* \"#utility.yul\":16220:16224   */\n      dup9\n        /* \"#utility.yul\":16213:16249   */\n      sstore\n        /* \"#utility.yul\":15648:16259   */\n      pop\n      pop\n      pop\n        /* \"#utility.yul\":15611:16498   */\n    tag_316:\n      pop\n        /* \"#utility.yul\":15201:16504   */\n      pop\n      pop\n      pop\n        /* \"#utility.yul\":15109:16504   */\n      pop\n      pop\n      jump\t// out\n        /* \"#utility.yul\":16510:16887   */\n    tag_156:\n        /* \"#utility.yul\":16598:16601   */\n      0x00\n        /* \"#utility.yul\":16626:16665   */\n      tag_327\n        /* \"#utility.yul\":16659:16664   */\n      dup3\n        /* \"#utility.yul\":16626:16665   */\n      tag_104\n      jump\t// in\n    tag_327:\n        /* \"#utility.yul\":16681:16752   */\n      tag_328\n        /* \"#utility.yul\":16745:16751   */\n      dup2\n        /* \"#utility.yul\":16740:16743   */\n      dup6\n        /* \"#utility.yul\":16681:16752   */\n      tag_132\n      jump\t// in\n    tag_328:\n        /* \"#utility.yul\":16674:16752   */\n      swap4\n      pop\n        /* \"#utility.yul\":16761:16826   */\n      tag_329\n        /* \"#utility.yul\":16819:16825   */\n      dup2\n        /* \"#utility.yul\":16814:16817   */\n      dup6\n        /* \"#utility.yul\":16807:16811   */\n      0x20\n        /* \"#utility.yul\":16800:16805   */\n      dup7\n        /* \"#utility.yul\":16796:16812   */\n      add\n        /* \"#utility.yul\":16761:16826   */\n      tag_106\n      jump\t// in\n    tag_329:\n        /* \"#utility.yul\":16851:16880   */\n      tag_330\n        /* \"#utility.yul\":16873:16879   */\n      dup2\n        /* \"#utility.yul\":16851:16880   */\n      tag_107\n      jump\t// in\n    tag_330:\n        /* \"#utility.yul\":16846:16849   */\n      dup5\n        /* \"#utility.yul\":16842:16881   */\n      add\n        /* \"#utility.yul\":16835:16881   */\n      swap2\n      pop\n        /* \"#utility.yul\":16602:16887   */\n      pop\n        /* \"#utility.yul\":16510:16887   */\n      swap3\n      swap2\n      pop\n      pop\n      jump\t// out\n        /* \"#utility.yul\":16893:17206   */\n    tag_72:\n        /* \"#utility.yul\":17006:17010   */\n      0x00\n        /* \"#utility.yul\":17044:17046   */\n      0x20\n        /* \"#utility.yul\":17033:17042   */\n      dup3\n        /* \"#utility.yul\":17029:17047   */\n      add\n        /* \"#utility.yul\":17021:17047   */\n      swap1\n      pop\n        /* \"#utility.yul\":17093:17102   */\n      dup2\n        /* \"#utility.yul\":17087:17091   */\n      dup2\n        /* \"#utility.yul\":17083:17103   */\n      sub\n        /* \"#utility.yul\":17079:17080   */\n      0x00\n        /* \"#utility.yul\":17068:17077   */\n      dup4\n        /* \"#utility.yul\":17064:17081   */\n      add\n        /* \"#utility.yul\":17057:17104   */\n      mstore\n        /* \"#utility.yul\":17121:17199   */\n      tag_332\n        /* \"#utility.yul\":17194:17198   */\n      dup2\n        /* \"#utility.yul\":17185:17191   */\n      dup5\n        /* \"#utility.yul\":17121:17199   */\n      tag_156\n      jump\t// in\n    tag_332:\n        /* \"#utility.yul\":17113:17199   */\n      swap1\n      pop\n        /* \"#utility.yul\":16893:17206   */\n      swap3\n      swap2\n      pop\n      pop\n      jump\t// out\n        /* \"#utility.yul\":17212:17392   */\n    tag_86:\n        /* \"#utility.yul\":17260:17337   */\n      0x4e487b7100000000000000000000000000000000000000000000000000000000\n        /* \"#utility.yul\":17257:17258   */\n      0x00\n        /* \"#utility.yul\":17250:17338   */\n      mstore\n        /* \"#utility.yul\":17357:17361   */\n      0x32\n        /* \"#utility.yul\":17354:17355   */\n      0x04\n        /* \"#utility.yul\":17347:17362   */\n      mstore\n        /* \"#utility.yul\":17381:17385   */\n      0x24\n        /* \"#utility.yul\":17378:17379   */\n      0x00\n        /* \"#utility.yul\":17371:17386   */\n      revert\n        /* \"#utility.yul\":17422:18296   */\n    tag_157:\n        /* \"#utility.yul\":17525:17528   */\n      0x00\n        /* \"#utility.yul\":17562:17567   */\n      dup2\n        /* \"#utility.yul\":17556:17568   */\n      sload\n        /* \"#utility.yul\":17591:17627   */\n      tag_335\n        /* \"#utility.yul\":17617:17626   */\n      dup2\n        /* \"#utility.yul\":17591:17627   */\n      tag_47\n      jump\t// in\n    tag_335:\n        /* \"#utility.yul\":17643:17732   */\n      tag_336\n        /* \"#utility.yul\":17725:17731   */\n      dup2\n        /* \"#utility.yul\":17720:17723   */\n      dup7\n        /* \"#utility.yul\":17643:17732   */\n      tag_137\n      jump\t// in\n    tag_336:\n        /* \"#utility.yul\":17636:17732   */\n      swap5\n      pop\n        /* \"#utility.yul\":17763:17764   */\n      0x01\n        /* \"#utility.yul\":17752:17761   */\n      dup3\n        /* \"#utility.yul\":17748:17765   */\n      and\n        /* \"#utility.yul\":17779:17780   */\n      0x00\n        /* \"#utility.yul\":17774:17940   */\n      dup2\n      eq\n      tag_338\n      jumpi\n        /* \"#utility.yul\":17954:17955   */\n      0x01\n        /* \"#utility.yul\":17949:18290   */\n      dup2\n      eq\n      tag_339\n      jumpi\n        /* \"#utility.yul\":17741:18290   */\n      jump(tag_337)\n        /* \"#utility.yul\":17774:17940   */\n    tag_338:\n        /* \"#utility.yul\":17858:17862   */\n      0xff\n        /* \"#utility.yul\":17854:17863   */\n      not\n        /* \"#utility.yul\":17843:17852   */\n      dup4\n        /* \"#utility.yul\":17839:17864   */\n      and\n        /* \"#utility.yul\":17834:17837   */\n      dup7\n        /* \"#utility.yul\":17827:17865   */\n      mstore\n        /* \"#utility.yul\":17920:17926   */\n      dup2\n        /* \"#utility.yul\":17913:17927   */\n      iszero\n        /* \"#utility.yul\":17906:17928   */\n      iszero\n        /* \"#utility.yul\":17898:17904   */\n      dup3\n        /* \"#utility.yul\":17894:17929   */\n      mul\n        /* \"#utility.yul\":17889:17892   */\n      dup7\n        /* \"#utility.yul\":17885:17930   */\n      add\n        /* \"#utility.yul\":17878:17930   */\n      swap4\n      pop\n        /* \"#utility.yul\":17774:17940   */\n      jump(tag_337)\n        /* \"#utility.yul\":17949:18290   */\n    tag_339:\n        /* \"#utility.yul\":18016:18054   */\n      tag_340\n        /* \"#utility.yul\":18048:18053   */\n      dup6\n        /* \"#utility.yul\":18016:18054   */\n      tag_141\n      jump\t// in\n    tag_340:\n        /* \"#utility.yul\":18076:18077   */\n      0x00\n        /* \"#utility.yul\":18090:18244   */\n    tag_341:\n        /* \"#utility.yul\":18104:18110   */\n      dup4\n        /* \"#utility.yul\":18101:18102   */\n      dup2\n        /* \"#utility.yul\":18098:18111   */\n      lt\n        /* \"#utility.yul\":18090:18244   */\n      iszero\n      tag_343\n      jumpi\n        /* \"#utility.yul\":18178:18185   */\n      dup2\n        /* \"#utility.yul\":18172:18186   */\n      sload\n        /* \"#utility.yul\":18168:18169   */\n      dup2\n        /* \"#utility.yul\":18163:18166   */\n      dup10\n        /* \"#utility.yul\":18159:18170   */\n      add\n        /* \"#utility.yul\":18152:18187   */\n      mstore\n        /* \"#utility.yul\":18228:18229   */\n      0x01\n        /* \"#utility.yul\":18219:18226   */\n      dup3\n        /* \"#utility.yul\":18215:18230   */\n      add\n        /* \"#utility.yul\":18204:18230   */\n      swap2\n      pop\n        /* \"#utility.yul\":18126:18130   */\n      0x20\n        /* \"#utility.yul\":18123:18124   */\n      dup2\n        /* \"#utility.yul\":18119:18131   */\n      add\n        /* \"#utility.yul\":18114:18131   */\n      swap1\n      pop\n        /* \"#utility.yul\":18090:18244   */\n      jump(tag_341)\n    tag_343:\n        /* \"#utility.yul\":18273:18279   */\n      dup4\n        /* \"#utility.yul\":18268:18271   */\n      dup9\n        /* \"#utility.yul\":18264:18280   */\n      add\n        /* \"#utility.yul\":18257:18280   */\n      swap6\n      pop\n        /* \"#utility.yul\":17956:18290   */\n      pop\n      pop\n        /* \"#utility.yul\":17741:18290   */\n    tag_337:\n      pop\n        /* \"#utility.yul\":17529:18296   */\n      pop\n      pop\n        /* \"#utility.yul\":17422:18296   */\n      swap3\n      swap2\n      pop\n      pop\n      jump\t// out\n        /* \"#utility.yul\":18302:18571   */\n    tag_89:\n        /* \"#utility.yul\":18431:18434   */\n      0x00\n        /* \"#utility.yul\":18453:18545   */\n      tag_345\n        /* \"#utility.yul\":18541:18544   */\n      dup3\n        /* \"#utility.yul\":18532:18538   */\n      dup5\n        /* \"#utility.yul\":18453:18545   */\n      tag_157\n      jump\t// in\n    tag_345:\n        /* \"#utility.yul\":18446:18545   */\n      swap2\n      pop\n        /* \"#utility.yul\":18562:18565   */\n      dup2\n        /* \"#utility.yul\":18555:18565   */\n      swap1\n      pop\n        /* \"#utility.yul\":18302:18571   */\n      swap3\n      swap2\n      pop\n      pop\n      jump\t// out\n        /* \"#utility.yul\":18577:18751   */\n    tag_158:\n        /* \"#utility.yul\":18717:18743   */\n      0x43616e64696461746520646f6573206e6f742065786973740000000000000000\n        /* \"#utility.yul\":18713:18714   */\n      0x00\n        /* \"#utility.yul\":18705:18711   */\n      dup3\n        /* \"#utility.yul\":18701:18715   */\n      add\n        /* \"#utility.yul\":18694:18744   */\n      mstore\n        /* \"#utility.yul\":18577:18751   */\n      pop\n      jump\t// out\n        /* \"#utility.yul\":18757:19123   */\n    tag_159:\n        /* \"#utility.yul\":18899:18902   */\n      0x00\n        /* \"#utility.yul\":18920:18987   */\n      tag_348\n        /* \"#utility.yul\":18984:18986   */\n      0x18\n        /* \"#utility.yul\":18979:18982   */\n      dup4\n        /* \"#utility.yul\":18920:18987   */\n      tag_132\n      jump\t// in\n    tag_348:\n        /* \"#utility.yul\":18913:18987   */\n      swap2\n      pop\n        /* \"#utility.yul\":18996:19089   */\n      tag_349\n        /* \"#utility.yul\":19085:19088   */\n      dup3\n        /* \"#utility.yul\":18996:19089   */\n      tag_158\n      jump\t// in\n    tag_349:\n        /* \"#utility.yul\":19114:19116   */\n      0x20\n        /* \"#utility.yul\":19109:19112   */\n      dup3\n        /* \"#utility.yul\":19105:19117   */\n      add\n        /* \"#utility.yul\":19098:19117   */\n      swap1\n      pop\n        /* \"#utility.yul\":18757:19123   */\n      swap2\n      swap1\n      pop\n      jump\t// out\n        /* \"#utility.yul\":19129:19548   */\n    tag_96:\n        /* \"#utility.yul\":19295:19299   */\n      0x00\n        /* \"#utility.yul\":19333:19335   */\n      0x20\n        /* \"#utility.yul\":19322:19331   */\n      dup3\n        /* \"#utility.yul\":19318:19336   */\n      add\n        /* \"#utility.yul\":19310:19336   */\n      swap1\n      pop\n        /* \"#utility.yul\":19382:19391   */\n      dup2\n        /* \"#utility.yul\":19376:19380   */\n      dup2\n        /* \"#utility.yul\":19372:19392   */\n      sub\n        /* \"#utility.yul\":19368:19369   */\n      0x00\n        /* \"#utility.yul\":19357:19366   */\n      dup4\n        /* \"#utility.yul\":19353:19370   */\n      add\n        /* \"#utility.yul\":19346:19393   */\n      mstore\n        /* \"#utility.yul\":19410:19541   */\n      tag_351\n        /* \"#utility.yul\":19536:19540   */\n      dup2\n        /* \"#utility.yul\":19410:19541   */\n      tag_159\n      jump\t// in\n    tag_351:\n        /* \"#utility.yul\":19402:19541   */\n      swap1\n      pop\n        /* \"#utility.yul\":19129:19548   */\n      swap2\n      swap1\n      pop\n      jump\t// out\n        /* \"#utility.yul\":19554:19734   */\n    tag_160:\n        /* \"#utility.yul\":19602:19679   */\n      0x4e487b7100000000000000000000000000000000000000000000000000000000\n        /* \"#utility.yul\":19599:19600   */\n      0x00\n        /* \"#utility.yul\":19592:19680   */\n      mstore\n        /* \"#utility.yul\":19699:19703   */\n      0x11\n        /* \"#utility.yul\":19696:19697   */\n      0x04\n        /* \"#utility.yul\":19689:19704   */\n      mstore\n        /* \"#utility.yul\":19723:19727   */\n      0x24\n        /* \"#utility.yul\":19720:19721   */\n      0x00\n        /* \"#utility.yul\":19713:19728   */\n      revert\n        /* \"#utility.yul\":19740:19931   */\n    tag_99:\n        /* \"#utility.yul\":19780:19783   */\n      0x00\n        /* \"#utility.yul\":19799:19819   */\n      tag_354\n        /* \"#utility.yul\":19817:19818   */\n      dup3\n        /* \"#utility.yul\":19799:19819   */\n      tag_112\n      jump\t// in\n    tag_354:\n        /* \"#utility.yul\":19794:19819   */\n      swap2\n      pop\n        /* \"#utility.yul\":19833:19853   */\n      tag_355\n        /* \"#utility.yul\":19851:19852   */\n      dup4\n        /* \"#utility.yul\":19833:19853   */\n      tag_112\n      jump\t// in\n    tag_355:\n        /* \"#utility.yul\":19828:19853   */\n      swap3\n      pop\n        /* \"#utility.yul\":19876:19877   */\n      dup3\n        /* \"#utility.yul\":19873:19874   */\n      dup3\n        /* \"#utility.yul\":19869:19878   */\n      add\n        /* \"#utility.yul\":19862:19878   */\n      swap1\n      pop\n        /* \"#utility.yul\":19897:19900   */\n      dup1\n        /* \"#utility.yul\":19894:19895   */\n      dup3\n        /* \"#utility.yul\":19891:19901   */\n      gt\n        /* \"#utility.yul\":19888:19924   */\n      iszero\n      tag_356\n      jumpi\n        /* \"#utility.yul\":19904:19922   */\n      tag_357\n      tag_160\n      jump\t// in\n    tag_357:\n        /* \"#utility.yul\":19888:19924   */\n    tag_356:\n        /* \"#utility.yul\":19740:19931   */\n      swap3\n      swap2\n      pop\n      pop\n      jump\t// out\n\n    auxdata: 0xa264697066735822122009290f5c2647a2d3c65be62c288f56097c9fa11abb7eac928487e21519d94d8f64736f6c634300081e0033\n}\n",
				"bytecode": {
					"linkReferences": {},
					"object": "6080604052348015600e575f5ffd5b503360035f6101000a81548173ffffffffffffffffffffffffffffffffffffffff021916908373ffffffffffffffffffffffffffffffffffffffff1602179055506111908061005c5f395ff3fe608060405234801561000f575f5ffd5b5060043610610086575f3560e01c8063805265e511610059578063805265e5146101125780638da5cb5b14610142578063b9830ff114610160578063fc36e15b1461016a57610086565b80632e6997fe1461008a57806330a56347146100a8578063462e91ec146100c65780637e797dee146100e2575b5f5ffd5b610092610186565b60405161009f919061088d565b60405180910390f35b6100b061025a565b6040516100bd91906108c5565b60405180910390f35b6100e060048036038101906100db9190610a1b565b610266565b005b6100fc60048036038101906100f79190610a1b565b610467565b6040516101099190610a7c565b60405180910390f35b61012c60048036038101906101279190610a1b565b61049a565b60405161013991906108c5565b60405180910390f35b61014a6104c0565b6040516101579190610ad4565b60405180910390f35b6101686104e5565b005b610184600480360381019061017f9190610a1b565b610616565b005b60606001805480602002602001604051908101604052809291908181526020015f905b82821015610251578382905f5260205f200180546101c690610b1a565b80601f01602080910402602001604051908101604052809291908181526020018280546101f290610b1a565b801561023d5780601f106102145761010080835404028352916020019161023d565b820191905f5260205f20905b81548152906001019060200180831161022057829003601f168201915b5050505050815260200190600101906101a9565b50505050905090565b5f600180549050905090565b60035f9054906101000a900473ffffffffffffffffffffffffffffffffffffffff1673ffffffffffffffffffffffffffffffffffffffff163373ffffffffffffffffffffffffffffffffffffffff16146102f5576040517f08c379a00000000000000000000000000000000000000000000000000000000081526004016102ec90610bca565b60405180910390fd5b5f815111610338576040517f08c379a000000000000000000000000000000000000000000000000000000000815260040161032f90610c32565b60405180910390fd5b6002816040516103489190610c8a565b90815260200160405180910390205f9054906101000a900460ff16156103a3576040517f08c379a000000000000000000000000000000000000000000000000000000000815260040161039a90610cea565b60405180910390fd5b600181908060018154018082558091505060019003905f5260205f20015f9091909190915090816103d49190610ea8565b505f5f826040516103e59190610c8a565b90815260200160405180910390208190555060016002826040516104099190610c8a565b90815260200160405180910390205f6101000a81548160ff0219169083151502179055507ff29562dad1599aea0ebb142466120aab326d5efa8f839df82a9c064bf78e89388160405161045c9190610faf565b60405180910390a150565b5f6002826040516104789190610c8a565b90815260200160405180910390205f9054906101000a900460ff169050919050565b5f5f826040516104aa9190610c8a565b9081526020016040518091039020549050919050565b60035f9054906101000a900473ffffffffffffffffffffffffffffffffffffffff1681565b60035f9054906101000a900473ffffffffffffffffffffffffffffffffffffffff1673ffffffffffffffffffffffffffffffffffffffff163373ffffffffffffffffffffffffffffffffffffffff1614610574576040517f08c379a000000000000000000000000000000000000000000000000000000000815260040161056b90610bca565b60405180910390fd5b5f5f90505b6001805490508110156105d0575f5f6001838154811061059c5761059b610fcf565b5b905f5260205f20016040516105b1919061107c565b9081526020016040518091039020819055508080600101915050610579565b503373ffffffffffffffffffffffffffffffffffffffff167f52377ea4d8812f0bb534fc079993e288b4ea73d011a2a368502255052a6b773060405160405180910390a2565b5f815111610659576040517f08c379a000000000000000000000000000000000000000000000000000000000815260040161065090610c32565b60405180910390fd5b6002816040516106699190610c8a565b90815260200160405180910390205f9054906101000a900460ff166106c3576040517f08c379a00000000000000000000000000000000000000000000000000000000081526004016106ba906110dc565b60405180910390fd5b60015f826040516106d49190610c8a565b90815260200160405180910390205f8282546106f09190611127565b925050819055503373ffffffffffffffffffffffffffffffffffffffff167fcb6783276e8a4347387036bbfea000268f0a4b1f8c46ac79980609f2af8d2acd8260405161073d9190610faf565b60405180910390a250565b5f81519050919050565b5f82825260208201905092915050565b5f819050602082019050919050565b5f81519050919050565b5f82825260208201905092915050565b5f5b838110156107a857808201518184015260208101905061078d565b5f8484015250505050565b5f601f19601f8301169050919050565b5f6107cd82610771565b6107d7818561077b565b93506107e781856020860161078b565b6107f0816107b3565b840191505092915050565b5f61080683836107c3565b905092915050565b5f602082019050919050565b5f61082482610748565b61082e8185610752565b93508360208202850161084085610762565b805f5b8581101561087b578484038952815161085c85826107fb565b94506108678361080e565b925060208a01995050600181019050610843565b50829750879550505050505092915050565b5f6020820190508181035f8301526108a5818461081a565b905092915050565b5f819050919050565b6108bf816108ad565b82525050565b5f6020820190506108d85f8301846108b6565b92915050565b5f604051905090565b5f5ffd5b5f5ffd5b5f5ffd5b5f5ffd5b7f4e487b71000000000000000000000000000000000000000000000000000000005f52604160045260245ffd5b61092d826107b3565b810181811067ffffffffffffffff8211171561094c5761094b6108f7565b5b80604052505050565b5f61095e6108de565b905061096a8282610924565b919050565b5f67ffffffffffffffff821115610989576109886108f7565b5b610992826107b3565b9050602081019050919050565b828183375f83830152505050565b5f6109bf6109ba8461096f565b610955565b9050828152602081018484840111156109db576109da6108f3565b5b6109e684828561099f565b509392505050565b5f82601f830112610a0257610a016108ef565b5b8135610a128482602086016109ad565b91505092915050565b5f60208284031215610a3057610a2f6108e7565b5b5f82013567ffffffffffffffff811115610a4d57610a4c6108eb565b5b610a59848285016109ee565b91505092915050565b5f8115159050919050565b610a7681610a62565b82525050565b5f602082019050610a8f5f830184610a6d565b92915050565b5f73ffffffffffffffffffffffffffffffffffffffff82169050919050565b5f610abe82610a95565b9050919050565b610ace81610ab4565b82525050565b5f602082019050610ae75f830184610ac5565b92915050565b7f4e487b71000000000000000000000000000000000000000000000000000000005f52602260045260245ffd5b5f6002820490506001821680610b3157607f821691505b602082108103610b4457610b43610aed565b5b50919050565b5f82825260208201905092915050565b7f4f6e6c7920636f6e7472616374206f776e65722063616e20706572666f726d205f8201527f7468697320616374696f6e000000000000000000000000000000000000000000602082015250565b5f610bb4602b83610b4a565b9150610bbf82610b5a565b604082019050919050565b5f6020820190508181035f830152610be181610ba8565b9050919050565b7f43616e646964617465206e616d652063616e6e6f7420626520656d70747900005f82015250565b5f610c1c601e83610b4a565b9150610c2782610be8565b602082019050919050565b5f6020820190508181035f830152610c4981610c10565b9050919050565b5f81905092915050565b5f610c6482610771565b610c6e8185610c50565b9350610c7e81856020860161078b565b80840191505092915050565b5f610c958284610c5a565b915081905092915050565b7f43616e64696461746520616c72656164792065786973747300000000000000005f82015250565b5f610cd4601883610b4a565b9150610cdf82610ca0565b602082019050919050565b5f6020820190508181035f830152610d0181610cc8565b9050919050565b5f819050815f5260205f209050919050565b5f6020601f8301049050919050565b5f82821b905092915050565b5f60088302610d647fffffffffffffffffffffffffffffffffffffffffffffffffffffffffffffffff82610d29565b610d6e8683610d29565b95508019841693508086168417925050509392505050565b5f819050919050565b5f610da9610da4610d9f846108ad565b610d86565b6108ad565b9050919050565b5f819050919050565b610dc283610d8f565b610dd6610dce82610db0565b848454610d35565b825550505050565b5f5f905090565b610ded610dde565b610df8818484610db9565b505050565b5b81811015610e1b57610e105f82610de5565b600181019050610dfe565b5050565b601f821115610e6057610e3181610d08565b610e3a84610d1a565b81016020851015610e49578190505b610e5d610e5585610d1a565b830182610dfd565b50505b505050565b5f82821c905092915050565b5f610e805f1984600802610e65565b1980831691505092915050565b5f610e988383610e71565b9150826002028217905092915050565b610eb182610771565b67ffffffffffffffff811115610eca57610ec96108f7565b5b610ed48254610b1a565b610edf828285610e1f565b5f60209050601f831160018114610f10575f8415610efe578287015190505b610f088582610e8d565b865550610f6f565b601f198416610f1e86610d08565b5f5b82811015610f4557848901518255600182019150602085019450602081019050610f20565b86831015610f625784890151610f5e601f891682610e71565b8355505b6001600288020188555050505b505050505050565b5f610f8182610771565b610f8b8185610b4a565b9350610f9b81856020860161078b565b610fa4816107b3565b840191505092915050565b5f6020820190508181035f830152610fc78184610f77565b905092915050565b7f4e487b71000000000000000000000000000000000000000000000000000000005f52603260045260245ffd5b5f815461100881610b1a565b6110128186610c50565b9450600182165f811461102c576001811461104157611073565b60ff1983168652811515820286019350611073565b61104a85610d08565b5f5b8381101561106b5781548189015260018201915060208101905061104c565b838801955050505b50505092915050565b5f6110878284610ffc565b915081905092915050565b7f43616e64696461746520646f6573206e6f7420657869737400000000000000005f82015250565b5f6110c6601883610b4a565b91506110d182611092565b602082019050919050565b5f6020820190508181035f8301526110f3816110ba565b9050919050565b7f4e487b71000000000000000000000000000000000000000000000000000000005f52601160045260245ffd5b5f611131826108ad565b915061113c836108ad565b9250828201905080821115611154576111536110fa565b5b9291505056fea264697066735822122009290f5c2647a2d3c65be62c288f56097c9fa11abb7eac928487e21519d94d8f64736f6c634300081e0033",
					"opcodes": "PUSH1 0x80 PUSH1 0x40 MSTORE CALLVALUE DUP1 ISZERO PUSH1 0xE JUMPI PUSH0 PUSH0 REVERT JUMPDEST POP CALLER PUSH1 0x3 PUSH0 PUSH2 0x100 EXP DUP2 SLOAD DUP2 PUSH20 0xFFFFFFFFFFFFFFFFFFFFFFFFFFFFFFFFFFFFFFFF MUL NOT AND SWAP1 DUP4 PUSH20 0xFFFFFFFFFFFFFFFFFFFFFFFFFFFFFFFFFFFFFFFF AND MUL OR SWAP1 SSTORE POP PUSH2 0x1190 DUP1 PUSH2 0x5C PUSH0 CODECOPY PUSH0 RETURN INVALID PUSH1 0x80 PUSH1 0x40 MSTORE CALLVALUE DUP1 ISZERO PUSH2 0xF JUMPI PUSH0 PUSH0 REVERT JUMPDEST POP PUSH1 0x4 CALLDATASIZE LT PUSH2 0x86 JUMPI PUSH0 CALLDATALOAD PUSH1 0xE0 SHR DUP1 PUSH4 0x805265E5 GT PUSH2 0x59 JUMPI DUP1 PUSH4 0x805265E5 EQ PUSH2 0x112 JUMPI DUP1 PUSH4 0x8DA5CB5B EQ PUSH2 0x142 JUMPI DUP1 PUSH4 0xB9830FF1 EQ PUSH2 0x160 JUMPI DUP1 PUSH4 0xFC36E15B EQ PUSH2 0x16A JUMPI PUSH2 0x86 JUMP JUMPDEST DUP1 PUSH4 0x2E6997FE EQ PUSH2 0x8A JUMPI DUP1 PUSH4 0x30A56347 EQ PUSH2 0xA8 JUMPI DUP1 PUSH4 0x462E91EC EQ PUSH2 0xC6 JUMPI DUP1 PUSH4 0x7E797DEE EQ PUSH2 0xE2 JUMPI JUMPDEST PUSH0 PUSH0 REVERT JUMPDEST PUSH2 0x92 PUSH2 0x186 JUMP JUMPDEST PUSH1 0x40 MLOAD PUSH2 0x9F SWAP2 SWAP1 PUSH2 0x88D JUMP JUMPDEST PUSH1 0x40 MLOAD DUP1 SWAP2 SUB SWAP1 RETURN JUMPDEST PUSH2 0xB0 PUSH2 0x25A JUMP JUMPDEST PUSH1 0x40 MLOAD PUSH2 0xBD SWAP2 SWAP1 PUSH2 0x8C5 JUMP JUMPDEST PUSH1 0x40 MLOAD DUP1 SWAP2 SUB SWAP1 RETURN JUMPDEST PUSH2 0xE0 PUSH1 0x4 DUP1 CALLDATASIZE SUB DUP2 ADD SWAP1 PUSH2 0xDB SWAP2 SWAP1 PUSH2 0xA1B JUMP JUMPDEST PUSH2 0x266 JUMP JUMPDEST STOP JUMPDEST PUSH2 0xFC PUSH1 0x4 DUP1 CALLDATASIZE SUB DUP2 ADD SWAP1 PUSH2 0xF7 SWAP2 SWAP1 PUSH2 0xA1B JUMP JUMPDEST PUSH2 0x467 JUMP JUMPDEST PUSH1 0x40 MLOAD PUSH2 0x109 SWAP2 SWAP1 PUSH2 0xA7C JUMP JUMPDEST PUSH1 0x40 MLOAD DUP1 SWAP2 SUB SWAP1 RETURN JUMPDEST PUSH2 0x12C PUSH1 0x4 DUP1 CALLDATASIZE SUB DUP2 ADD SWAP1 PUSH2 0x127 SWAP2 SWAP1 PUSH2 0xA1B JUMP JUMPDEST PUSH2 0x49A JUMP JUMPDEST PUSH1 0x40 MLOAD PUSH2 0x139 SWAP2 SWAP1 PUSH2 0x8C5 JUMP JUMPDEST PUSH1 0x40 MLOAD DUP1 SWAP2 SUB SWAP1 RETURN JUMPDEST PUSH2 0x14A PUSH2 0x4C0 JUMP JUMPDEST PUSH1 0x40 MLOAD PUSH2 0x157 SWAP2 SWAP1 PUSH2 0xAD4 JUMP JUMPDEST PUSH1 0x40 MLOAD DUP1 SWAP2 SUB SWAP1 RETURN JUMPDEST PUSH2 0x168 PUSH2 0x4E5 JUMP JUMPDEST STOP JUMPDEST PUSH2 0x184 PUSH1 0x4 DUP1 CALLDATASIZE SUB DUP2 ADD SWAP1 PUSH2 0x17F SWAP2 SWAP1 PUSH2 0xA1B JUMP JUMPDEST PUSH2 0x616 JUMP JUMPDEST STOP JUMPDEST PUSH1 0x60 PUSH1 0x1 DUP1 SLOAD DUP1 PUSH1 0x20 MUL PUSH1 0x20 ADD PUSH1 0x40 MLOAD SWAP1 DUP2 ADD PUSH1 0x40 MSTORE DUP1 SWAP3 SWAP2 SWAP1 DUP2 DUP2 MSTORE PUSH1 0x20 ADD PUSH0 SWAP1 JUMPDEST DUP3 DUP3 LT ISZERO PUSH2 0x251 JUMPI DUP4 DUP3 SWAP1 PUSH0 MSTORE PUSH1 0x20 PUSH0 KECCAK256 ADD DUP1 SLOAD PUSH2 0x1C6 SWAP1 PUSH2 0xB1A JUMP JUMPDEST DUP1 PUSH1 0x1F ADD PUSH1 0x20 DUP1 SWAP2 DIV MUL PUSH1 0x20 ADD PUSH1 0x40 MLOAD SWAP1 DUP2 ADD PUSH1 0x40 MSTORE DUP1 SWAP3 SWAP2 SWAP1 DUP2 DUP2 MSTORE PUSH1 0x20 ADD DUP3 DUP1 SLOAD PUSH2 0x1F2 SWAP1 PUSH2 0xB1A JUMP JUMPDEST DUP1 ISZERO PUSH2 0x23D JUMPI DUP1 PUSH1 0x1F LT PUSH2 0x214 JUMPI PUSH2 0x100 DUP1 DUP4 SLOAD DIV MUL DUP4 MSTORE SWAP2 PUSH1 0x20 ADD SWAP2 PUSH2 0x23D JUMP JUMPDEST DUP3 ADD SWAP2 SWAP1 PUSH0 MSTORE PUSH1 0x20 PUSH0 KECCAK256 SWAP1 JUMPDEST DUP2 SLOAD DUP2 MSTORE SWAP1 PUSH1 0x1 ADD SWAP1 PUSH1 0x20 ADD DUP1 DUP4 GT PUSH2 0x220 JUMPI DUP3 SWAP1 SUB PUSH1 0x1F AND DUP3 ADD SWAP2 JUMPDEST POP POP POP POP POP DUP2 MSTORE PUSH1 0x20 ADD SWAP1 PUSH1 0x1 ADD SWAP1 PUSH2 0x1A9 JUMP JUMPDEST POP POP POP POP SWAP1 POP SWAP1 JUMP JUMPDEST PUSH0 PUSH1 0x1 DUP1 SLOAD SWAP1 POP SWAP1 POP SWAP1 JUMP JUMPDEST PUSH1 0x3 PUSH0 SWAP1 SLOAD SWAP1 PUSH2 0x100 EXP SWAP1 DIV PUSH20 0xFFFFFFFFFFFFFFFFFFFFFFFFFFFFFFFFFFFFFFFF AND PUSH20 0xFFFFFFFFFFFFFFFFFFFFFFFFFFFFFFFFFFFFFFFF AND CALLER PUSH20 0xFFFFFFFFFFFFFFFFFFFFFFFFFFFFFFFFFFFFFFFF AND EQ PUSH2 0x2F5 JUMPI PUSH1 0x40 MLOAD PUSH32 0x8C379A000000000000000000000000000000000000000000000000000000000 DUP2 MSTORE PUSH1 0x4 ADD PUSH2 0x2EC SWAP1 PUSH2 0xBCA JUMP JUMPDEST PUSH1 0x40 MLOAD DUP1 SWAP2 SUB SWAP1 REVERT JUMPDEST PUSH0 DUP2 MLOAD GT PUSH2 0x338 JUMPI PUSH1 0x40 MLOAD PUSH32 0x8C379A000000000000000000000000000000000000000000000000000000000 DUP2 MSTORE PUSH1 0x4 ADD PUSH2 0x32F SWAP1 PUSH2 0xC32 JUMP JUMPDEST PUSH1 0x40 MLOAD DUP1 SWAP2 SUB SWAP1 REVERT JUMPDEST PUSH1 0x2 DUP2 PUSH1 0x40 MLOAD PUSH2 0x348 SWAP2 SWAP1 PUSH2 0xC8A JUMP JUMPDEST SWAP1 DUP2 MSTORE PUSH1 0x20 ADD PUSH1 0x40 MLOAD DUP1 SWAP2 SUB SWAP1 KECCAK256 PUSH0 SWAP1 SLOAD SWAP1 PUSH2 0x100 EXP SWAP1 DIV PUSH1 0xFF AND ISZERO PUSH2 0x3A3 JUMPI PUSH1 0x40 MLOAD PUSH32 0x8C379A000000000000000000000000000000000000000000000000000000000 DUP2 MSTORE PUSH1 0x4 ADD PUSH2 0x39A SWAP1 PUSH2 0xCEA JUMP JUMPDEST PUSH1 0x40 MLOAD DUP1 SWAP2 SUB SWAP1 REVERT JUMPDEST PUSH1 0x1 DUP2 SWAP1 DUP1 PUSH1 0x1 DUP2 SLOAD ADD DUP1 DUP3 SSTORE DUP1 SWAP2 POP POP PUSH1 0x1 SWAP1 SUB SWAP1 PUSH0 MSTORE PUSH1 0x20 PUSH0 KECCAK256 ADD PUSH0 SWAP1 SWAP2 SWAP1 SWAP2 SWAP1 SWAP2 POP SWAP1 DUP2 PUSH2 0x3D4 SWAP2 SWAP1 PUSH2 0xEA8 JUMP JUMPDEST POP PUSH0 PUSH0 DUP3 PUSH1 0x40 MLOAD PUSH2 0x3E5 SWAP2 SWAP1 PUSH2 0xC8A JUMP JUMPDEST SWAP1 DUP2 MSTORE PUSH1 0x20 ADD PUSH1 0x40 MLOAD DUP1 SWAP2 SUB SWAP1 KECCAK256 DUP2 SWAP1 SSTORE POP PUSH1 0x1 PUSH1 0x2 DUP3 PUSH1 0x40 MLOAD PUSH2 0x409 SWAP2 SWAP1 PUSH2 0xC8A JUMP JUMPDEST SWAP1 DUP2 MSTORE PUSH1 0x20 ADD PUSH1 0x40 MLOAD DUP1 SWAP2 SUB SWAP1 KECCAK256 PUSH0 PUSH2 0x100 EXP DUP2 SLOAD DUP2 PUSH1 0xFF MUL NOT AND SWAP1 DUP4 ISZERO ISZERO MUL OR SWAP1 SSTORE POP PUSH32 0xF29562DAD1599AEA0EBB142466120AAB326D5EFA8F839DF82A9C064BF78E8938 DUP2 PUSH1 0x40 MLOAD PUSH2 0x45C SWAP2 SWAP1 PUSH2 0xFAF JUMP JUMPDEST PUSH1 0x40 MLOAD DUP1 SWAP2 SUB SWAP1 LOG1 POP JUMP JUMPDEST PUSH0 PUSH1 0x2 DUP3 PUSH1 0x40 MLOAD PUSH2 0x478 SWAP2 SWAP1 PUSH2 0xC8A JUMP JUMPDEST SWAP1 DUP2 MSTORE PUSH1 0x20 ADD PUSH1 0x40 MLOAD DUP1 SWAP2 SUB SWAP1 KECCAK256 PUSH0 SWAP1 SLOAD SWAP1 PUSH2 0x100 EXP SWAP1 DIV PUSH1 0xFF AND SWAP1 POP SWAP2 SWAP1 POP JUMP JUMPDEST PUSH0 PUSH0 DUP3 PUSH1 0x40 MLOAD PUSH2 0x4AA SWAP2 SWAP1 PUSH2 0xC8A JUMP JUMPDEST SWAP1 DUP2 MSTORE PUSH1 0x20 ADD PUSH1 0x40 MLOAD DUP1 SWAP2 SUB SWAP1 KECCAK256 SLOAD SWAP1 POP SWAP2 SWAP1 POP JUMP JUMPDEST PUSH1 0x3 PUSH0 SWAP1 SLOAD SWAP1 PUSH2 0x100 EXP SWAP1 DIV PUSH20 0xFFFFFFFFFFFFFFFFFFFFFFFFFFFFFFFFFFFFFFFF AND DUP2 JUMP JUMPDEST PUSH1 0x3 PUSH0 SWAP1 SLOAD SWAP1 PUSH2 0x100 EXP SWAP1 DIV PUSH20 0xFFFFFFFFFFFFFFFFFFFFFFFFFFFFFFFFFFFFFFFF AND PUSH20 0xFFFFFFFFFFFFFFFFFFFFFFFFFFFFFFFFFFFFFFFF AND CALLER PUSH20 0xFFFFFFFFFFFFFFFFFFFFFFFFFFFFFFFFFFFFFFFF AND EQ PUSH2 0x574 JUMPI PUSH1 0x40 MLOAD PUSH32 0x8C379A000000000000000000000000000000000000000000000000000000000 DUP2 MSTORE PUSH1 0x4 ADD PUSH2 0x56B SWAP1 PUSH2 0xBCA JUMP JUMPDEST PUSH1 0x40 MLOAD DUP1 SWAP2 SUB SWAP1 REVERT JUMPDEST PUSH0 PUSH0 SWAP1 POP JUMPDEST PUSH1 0x1 DUP1 SLOAD SWAP1 POP DUP2 LT ISZERO PUSH2 0x5D0 JUMPI PUSH0 PUSH0 PUSH1 0x1 DUP4 DUP2 SLOAD DUP2 LT PUSH2 0x59C JUMPI PUSH2 0x59B PUSH2 0xFCF JUMP JUMPDEST JUMPDEST SWAP1 PUSH0 MSTORE PUSH1 0x20 PUSH0 KECCAK256 ADD PUSH1 0x40 MLOAD PUSH2 0x5B1 SWAP2 SWAP1 PUSH2 0x107C JUMP JUMPDEST SWAP1 DUP2 MSTORE PUSH1 0x20 ADD PUSH1 0x40 MLOAD DUP1 SWAP2 SUB SWAP1 KECCAK256 DUP2 SWAP1 SSTORE POP DUP1 DUP1 PUSH1 0x1 ADD SWAP2 POP POP PUSH2 0x579 JUMP JUMPDEST POP CALLER PUSH20 0xFFFFFFFFFFFFFFFFFFFFFFFFFFFFFFFFFFFFFFFF AND PUSH32 0x52377EA4D8812F0BB534FC079993E288B4EA73D011A2A368502255052A6B7730 PUSH1 0x40 MLOAD PUSH1 0x40 MLOAD DUP1 SWAP2 SUB SWAP1 LOG2 JUMP JUMPDEST PUSH0 DUP2 MLOAD GT PUSH2 0x659 JUMPI PUSH1 0x40 MLOAD PUSH32 0x8C379A000000000000000000000000000000000000000000000000000000000 DUP2 MSTORE PUSH1 0x4 ADD PUSH2 0x650 SWAP1 PUSH2 0xC32 JUMP JUMPDEST PUSH1 0x40 MLOAD DUP1 SWAP2 SUB SWAP1 REVERT JUMPDEST PUSH1 0x2 DUP2 PUSH1 0x40 MLOAD PUSH2 0x669 SWAP2 SWAP1 PUSH2 0xC8A JUMP JUMPDEST SWAP1 DUP2 MSTORE PUSH1 0x20 ADD PUSH1 0x40 MLOAD DUP1 SWAP2 SUB SWAP1 KECCAK256 PUSH0 SWAP1 SLOAD SWAP1 PUSH2 0x100 EXP SWAP1 DIV PUSH1 0xFF AND PUSH2 0x6C3 JUMPI PUSH1 0x40 MLOAD PUSH32 0x8C379A000000000000000000000000000000000000000000000000000000000 DUP2 MSTORE PUSH1 0x4 ADD PUSH2 0x6BA SWAP1 PUSH2 0x10DC JUMP JUMPDEST PUSH1 0x40 MLOAD DUP1 SWAP2 SUB SWAP1 REVERT JUMPDEST PUSH1 0x1 PUSH0 DUP3 PUSH1 0x40 MLOAD PUSH2 0x6D4 SWAP2 SWAP1 PUSH2 0xC8A JUMP JUMPDEST SWAP1 DUP2 MSTORE PUSH1 0x20 ADD PUSH1 0x40 MLOAD DUP1 SWAP2 SUB SWAP1 KECCAK256 PUSH0 DUP3 DUP3 SLOAD PUSH2 0x6F0 SWAP2 SWAP1 PUSH2 0x1127 JUMP JUMPDEST SWAP3 POP POP DUP2 SWAP1 SSTORE POP CALLER PUSH20 0xFFFFFFFFFFFFFFFFFFFFFFFFFFFFFFFFFFFFFFFF AND PUSH32 0xCB6783276E8A4347387036BBFEA000268F0A4B1F8C46AC79980609F2AF8D2ACD DUP3 PUSH1 0x40 MLOAD PUSH2 0x73D SWAP2 SWAP1 PUSH2 0xFAF JUMP JUMPDEST PUSH1 0x40 MLOAD DUP1 SWAP2 SUB SWAP1 LOG2 POP JUMP JUMPDEST PUSH0 DUP2 MLOAD SWAP1 POP SWAP2 SWAP1 POP JUMP JUMPDEST PUSH0 DUP3 DUP3 MSTORE PUSH1 0x20 DUP3 ADD SWAP1 POP SWAP3 SWAP2 POP POP JUMP JUMPDEST PUSH0 DUP2 SWAP1 POP PUSH1 0x20 DUP3 ADD SWAP1 POP SWAP2 SWAP1 POP JUMP JUMPDEST PUSH0 DUP2 MLOAD SWAP1 POP SWAP2 SWAP1 POP JUMP JUMPDEST PUSH0 DUP3 DUP3 MSTORE PUSH1 0x20 DUP3 ADD SWAP1 POP SWAP3 SWAP2 POP POP JUMP JUMPDEST PUSH0 JUMPDEST DUP4 DUP2 LT ISZERO PUSH2 0x7A8 JUMPI DUP1 DUP3 ADD MLOAD DUP2 DUP5 ADD MSTORE PUSH1 0x20 DUP2 ADD SWAP1 POP PUSH2 0x78D JUMP JUMPDEST PUSH0 DUP5 DUP5 ADD MSTORE POP POP POP POP JUMP JUMPDEST PUSH0 PUSH1 0x1F NOT PUSH1 0x1F DUP4 ADD AND SWAP1 POP SWAP2 SWAP1 POP JUMP JUMPDEST PUSH0 PUSH2 0x7CD DUP3 PUSH2 0x771 JUMP JUMPDEST PUSH2 0x7D7 DUP2 DUP6 PUSH2 0x77B JUMP JUMPDEST SWAP4 POP PUSH2 0x7E7 DUP2 DUP6 PUSH1 0x20 DUP7 ADD PUSH2 0x78B JUMP JUMPDEST PUSH2 0x7F0 DUP2 PUSH2 0x7B3 JUMP JUMPDEST DUP5 ADD SWAP2 POP POP SWAP3 SWAP2 POP POP JUMP JUMPDEST PUSH0 PUSH2 0x806 DUP4 DUP4 PUSH2 0x7C3 JUMP JUMPDEST SWAP1 POP SWAP3 SWAP2 POP POP JUMP JUMPDEST PUSH0 PUSH1 0x20 DUP3 ADD SWAP1 POP SWAP2 SWAP1 POP JUMP JUMPDEST PUSH0 PUSH2 0x824 DUP3 PUSH2 0x748 JUMP JUMPDEST PUSH2 0x82E DUP2 DUP6 PUSH2 0x752 JUMP JUMPDEST SWAP4 POP DUP4 PUSH1 0x20 DUP3 MUL DUP6 ADD PUSH2 0x840 DUP6 PUSH2 0x762 JUMP JUMPDEST DUP1 PUSH0 JUMPDEST DUP6 DUP2 LT ISZERO PUSH2 0x87B JUMPI DUP5 DUP5 SUB DUP10 MSTORE DUP2 MLOAD PUSH2 0x85C DUP6 DUP3 PUSH2 0x7FB JUMP JUMPDEST SWAP5 POP PUSH2 0x867 DUP4 PUSH2 0x80E JUMP JUMPDEST SWAP3 POP PUSH1 0x20 DUP11 ADD SWAP10 POP POP PUSH1 0x1 DUP2 ADD SWAP1 POP PUSH2 0x843 JUMP JUMPDEST POP DUP3 SWAP8 POP DUP8 SWAP6 POP POP POP POP POP POP SWAP3 SWAP2 POP POP JUMP JUMPDEST PUSH0 PUSH1 0x20 DUP3 ADD SWAP1 POP DUP2 DUP2 SUB PUSH0 DUP4 ADD MSTORE PUSH2 0x8A5 DUP2 DUP5 PUSH2 0x81A JUMP JUMPDEST SWAP1 POP SWAP3 SWAP2 POP POP JUMP JUMPDEST PUSH0 DUP2 SWAP1 POP SWAP2 SWAP1 POP JUMP JUMPDEST PUSH2 0x8BF DUP2 PUSH2 0x8AD JUMP JUMPDEST DUP3 MSTORE POP POP JUMP JUMPDEST PUSH0 PUSH1 0x20 DUP3 ADD SWAP1 POP PUSH2 0x8D8 PUSH0 DUP4 ADD DUP5 PUSH2 0x8B6 JUMP JUMPDEST SWAP3 SWAP2 POP POP JUMP JUMPDEST PUSH0 PUSH1 0x40 MLOAD SWAP1 POP SWAP1 JUMP JUMPDEST PUSH0 PUSH0 REVERT JUMPDEST PUSH0 PUSH0 REVERT JUMPDEST PUSH0 PUSH0 REVERT JUMPDEST PUSH0 PUSH0 REVERT JUMPDEST PUSH32 0x4E487B7100000000000000000000000000000000000000000000000000000000 PUSH0 MSTORE PUSH1 0x41 PUSH1 0x4 MSTORE PUSH1 0x24 PUSH0 REVERT JUMPDEST PUSH2 0x92D DUP3 PUSH2 0x7B3 JUMP JUMPDEST DUP2 ADD DUP2 DUP2 LT PUSH8 0xFFFFFFFFFFFFFFFF DUP3 GT OR ISZERO PUSH2 0x94C JUMPI PUSH2 0x94B PUSH2 0x8F7 JUMP JUMPDEST JUMPDEST DUP1 PUSH1 0x40 MSTORE POP POP POP JUMP JUMPDEST PUSH0 PUSH2 0x95E PUSH2 0x8DE JUMP JUMPDEST SWAP1 POP PUSH2 0x96A DUP3 DUP3 PUSH2 0x924 JUMP JUMPDEST SWAP2 SWAP1 POP JUMP JUMPDEST PUSH0 PUSH8 0xFFFFFFFFFFFFFFFF DUP3 GT ISZERO PUSH2 0x989 JUMPI PUSH2 0x988 PUSH2 0x8F7 JUMP JUMPDEST JUMPDEST PUSH2 0x992 DUP3 PUSH2 0x7B3 JUMP JUMPDEST SWAP1 POP PUSH1 0x20 DUP2 ADD SWAP1 POP SWAP2 SWAP1 POP JUMP JUMPDEST DUP3 DUP2 DUP4 CALLDATACOPY PUSH0 DUP4 DUP4 ADD MSTORE POP POP POP JUMP JUMPDEST PUSH0 PUSH2 0x9BF PUSH2 0x9BA DUP5 PUSH2 0x96F JUMP JUMPDEST PUSH2 0x955 JUMP JUMPDEST SWAP1 POP DUP3 DUP2 MSTORE PUSH1 0x20 DUP2 ADD DUP5 DUP5 DUP5 ADD GT ISZERO PUSH2 0x9DB JUMPI PUSH2 0x9DA PUSH2 0x8F3 JUMP JUMPDEST JUMPDEST PUSH2 0x9E6 DUP5 DUP3 DUP6 PUSH2 0x99F JUMP JUMPDEST POP SWAP4 SWAP3 POP POP POP JUMP JUMPDEST PUSH0 DUP3 PUSH1 0x1F DUP4 ADD SLT PUSH2 0xA02 JUMPI PUSH2 0xA01 PUSH2 0x8EF JUMP JUMPDEST JUMPDEST DUP2 CALLDATALOAD PUSH2 0xA12 DUP5 DUP3 PUSH1 0x20 DUP7 ADD PUSH2 0x9AD JUMP JUMPDEST SWAP2 POP POP SWAP3 SWAP2 POP POP JUMP JUMPDEST PUSH0 PUSH1 0x20 DUP3 DUP5 SUB SLT ISZERO PUSH2 0xA30 JUMPI PUSH2 0xA2F PUSH2 0x8E7 JUMP JUMPDEST JUMPDEST PUSH0 DUP3 ADD CALLDATALOAD PUSH8 0xFFFFFFFFFFFFFFFF DUP2 GT ISZERO PUSH2 0xA4D JUMPI PUSH2 0xA4C PUSH2 0x8EB JUMP JUMPDEST JUMPDEST PUSH2 0xA59 DUP5 DUP3 DUP6 ADD PUSH2 0x9EE JUMP JUMPDEST SWAP2 POP POP SWAP3 SWAP2 POP POP JUMP JUMPDEST PUSH0 DUP2 ISZERO ISZERO SWAP1 POP SWAP2 SWAP1 POP JUMP JUMPDEST PUSH2 0xA76 DUP2 PUSH2 0xA62 JUMP JUMPDEST DUP3 MSTORE POP POP JUMP JUMPDEST PUSH0 PUSH1 0x20 DUP3 ADD SWAP1 POP PUSH2 0xA8F PUSH0 DUP4 ADD DUP5 PUSH2 0xA6D JUMP JUMPDEST SWAP3 SWAP2 POP POP JUMP JUMPDEST PUSH0 PUSH20 0xFFFFFFFFFFFFFFFFFFFFFFFFFFFFFFFFFFFFFFFF DUP3 AND SWAP1 POP SWAP2 SWAP1 POP JUMP JUMPDEST PUSH0 PUSH2 0xABE DUP3 PUSH2 0xA95 JUMP JUMPDEST SWAP1 POP SWAP2 SWAP1 POP JUMP JUMPDEST PUSH2 0xACE DUP2 PUSH2 0xAB4 JUMP JUMPDEST DUP3 MSTORE POP POP JUMP JUMPDEST PUSH0 PUSH1 0x20 DUP3 ADD SWAP1 POP PUSH2 0xAE7 PUSH0 DUP4 ADD DUP5 PUSH2 0xAC5 JUMP JUMPDEST SWAP3 SWAP2 POP POP JUMP JUMPDEST PUSH32 0x4E487B7100000000000000000000000000000000000000000000000000000000 PUSH0 MSTORE PUSH1 0x22 PUSH1 0x4 MSTORE PUSH1 0x24 PUSH0 REVERT JUMPDEST PUSH0 PUSH1 0x2 DUP3 DIV SWAP1 POP PUSH1 0x1 DUP3 AND DUP1 PUSH2 0xB31 JUMPI PUSH1 0x7F DUP3 AND SWAP2 POP JUMPDEST PUSH1 0x20 DUP3 LT DUP2 SUB PUSH2 0xB44 JUMPI PUSH2 0xB43 PUSH2 0xAED JUMP JUMPDEST JUMPDEST POP SWAP2 SWAP1 POP JUMP JUMPDEST PUSH0 DUP3 DUP3 MSTORE PUSH1 0x20 DUP3 ADD SWAP1 POP SWAP3 SWAP2 POP POP JUMP JUMPDEST PUSH32 0x4F6E6C7920636F6E7472616374206F776E65722063616E20706572666F726D20 PUSH0 DUP3 ADD MSTORE PUSH32 0x7468697320616374696F6E000000000000000000000000000000000000000000 PUSH1 0x20 DUP3 ADD MSTORE POP JUMP JUMPDEST PUSH0 PUSH2 0xBB4 PUSH1 0x2B DUP4 PUSH2 0xB4A JUMP JUMPDEST SWAP2 POP PUSH2 0xBBF DUP3 PUSH2 0xB5A JUMP JUMPDEST PUSH1 0x40 DUP3 ADD SWAP1 POP SWAP2 SWAP1 POP JUMP JUMPDEST PUSH0 PUSH1 0x20 DUP3 ADD SWAP1 POP DUP2 DUP2 SUB PUSH0 DUP4 ADD MSTORE PUSH2 0xBE1 DUP2 PUSH2 0xBA8 JUMP JUMPDEST SWAP1 POP SWAP2 SWAP1 POP JUMP JUMPDEST PUSH32 0x43616E646964617465206E616D652063616E6E6F7420626520656D7074790000 PUSH0 DUP3 ADD MSTORE POP JUMP JUMPDEST PUSH0 PUSH2 0xC1C PUSH1 0x1E DUP4 PUSH2 0xB4A JUMP JUMPDEST SWAP2 POP PUSH2 0xC27 DUP3 PUSH2 0xBE8 JUMP JUMPDEST PUSH1 0x20 DUP3 ADD SWAP1 POP SWAP2 SWAP1 POP JUMP JUMPDEST PUSH0 PUSH1 0x20 DUP3 ADD SWAP1 POP DUP2 DUP2 SUB PUSH0 DUP4 ADD MSTORE PUSH2 0xC49 DUP2 PUSH2 0xC10 JUMP JUMPDEST SWAP1 POP SWAP2 SWAP1 POP JUMP JUMPDEST PUSH0 DUP2 SWAP1 POP SWAP3 SWAP2 POP POP JUMP JUMPDEST PUSH0 PUSH2 0xC64 DUP3 PUSH2 0x771 JUMP JUMPDEST PUSH2 0xC6E DUP2 DUP6 PUSH2 0xC50 JUMP JUMPDEST SWAP4 POP PUSH2 0xC7E DUP2 DUP6 PUSH1 0x20 DUP7 ADD PUSH2 0x78B JUMP JUMPDEST DUP1 DUP5 ADD SWAP2 POP POP SWAP3 SWAP2 POP POP JUMP JUMPDEST PUSH0 PUSH2 0xC95 DUP3 DUP5 PUSH2 0xC5A JUMP JUMPDEST SWAP2 POP DUP2 SWAP1 POP SWAP3 SWAP2 POP POP JUMP JUMPDEST PUSH32 0x43616E64696461746520616C7265616479206578697374730000000000000000 PUSH0 DUP3 ADD MSTORE POP JUMP JUMPDEST PUSH0 PUSH2 0xCD4 PUSH1 0x18 DUP4 PUSH2 0xB4A JUMP JUMPDEST SWAP2 POP PUSH2 0xCDF DUP3 PUSH2 0xCA0 JUMP JUMPDEST PUSH1 0x20 DUP3 ADD SWAP1 POP SWAP2 SWAP1 POP JUMP JUMPDEST PUSH0 PUSH1 0x20 DUP3 ADD SWAP1 POP DUP2 DUP2 SUB PUSH0 DUP4 ADD MSTORE PUSH2 0xD01 DUP2 PUSH2 0xCC8 JUMP JUMPDEST SWAP1 POP SWAP2 SWAP1 POP JUMP JUMPDEST PUSH0 DUP2 SWAP1 POP DUP2 PUSH0 MSTORE PUSH1 0x20 PUSH0 KECCAK256 SWAP1 POP SWAP2 SWAP1 POP JUMP JUMPDEST PUSH0 PUSH1 0x20 PUSH1 0x1F DUP4 ADD DIV SWAP1 POP SWAP2 SWAP1 POP JUMP JUMPDEST PUSH0 DUP3 DUP3 SHL SWAP1 POP SWAP3 SWAP2 POP POP JUMP JUMPDEST PUSH0 PUSH1 0x8 DUP4 MUL PUSH2 0xD64 PUSH32 0xFFFFFFFFFFFFFFFFFFFFFFFFFFFFFFFFFFFFFFFFFFFFFFFFFFFFFFFFFFFFFFFF DUP3 PUSH2 0xD29 JUMP JUMPDEST PUSH2 0xD6E DUP7 DUP4 PUSH2 0xD29 JUMP JUMPDEST SWAP6 POP DUP1 NOT DUP5 AND SWAP4 POP DUP1 DUP7 AND DUP5 OR SWAP3 POP POP POP SWAP4 SWAP3 POP POP POP JUMP JUMPDEST PUSH0 DUP2 SWAP1 POP SWAP2 SWAP1 POP JUMP JUMPDEST PUSH0 PUSH2 0xDA9 PUSH2 0xDA4 PUSH2 0xD9F DUP5 PUSH2 0x8AD JUMP JUMPDEST PUSH2 0xD86 JUMP JUMPDEST PUSH2 0x8AD JUMP JUMPDEST SWAP1 POP SWAP2 SWAP1 POP JUMP JUMPDEST PUSH0 DUP2 SWAP1 POP SWAP2 SWAP1 POP JUMP JUMPDEST PUSH2 0xDC2 DUP4 PUSH2 0xD8F JUMP JUMPDEST PUSH2 0xDD6 PUSH2 0xDCE DUP3 PUSH2 0xDB0 JUMP JUMPDEST DUP5 DUP5 SLOAD PUSH2 0xD35 JUMP JUMPDEST DUP3 SSTORE POP POP POP POP JUMP JUMPDEST PUSH0 PUSH0 SWAP1 POP SWAP1 JUMP JUMPDEST PUSH2 0xDED PUSH2 0xDDE JUMP JUMPDEST PUSH2 0xDF8 DUP2 DUP5 DUP5 PUSH2 0xDB9 JUMP JUMPDEST POP POP POP JUMP JUMPDEST JUMPDEST DUP2 DUP2 LT ISZERO PUSH2 0xE1B JUMPI PUSH2 0xE10 PUSH0 DUP3 PUSH2 0xDE5 JUMP JUMPDEST PUSH1 0x1 DUP2 ADD SWAP1 POP PUSH2 0xDFE JUMP JUMPDEST POP POP JUMP JUMPDEST PUSH1 0x1F DUP3 GT ISZERO PUSH2 0xE60 JUMPI PUSH2 0xE31 DUP2 PUSH2 0xD08 JUMP JUMPDEST PUSH2 0xE3A DUP5 PUSH2 0xD1A JUMP JUMPDEST DUP2 ADD PUSH1 0x20 DUP6 LT ISZERO PUSH2 0xE49 JUMPI DUP2 SWAP1 POP JUMPDEST PUSH2 0xE5D PUSH2 0xE55 DUP6 PUSH2 0xD1A JUMP JUMPDEST DUP4 ADD DUP3 PUSH2 0xDFD JUMP JUMPDEST POP POP JUMPDEST POP POP POP JUMP JUMPDEST PUSH0 DUP3 DUP3 SHR SWAP1 POP SWAP3 SWAP2 POP POP JUMP JUMPDEST PUSH0 PUSH2 0xE80 PUSH0 NOT DUP5 PUSH1 0x8 MUL PUSH2 0xE65 JUMP JUMPDEST NOT DUP1 DUP4 AND SWAP2 POP POP SWAP3 SWAP2 POP POP JUMP JUMPDEST PUSH0 PUSH2 0xE98 DUP4 DUP4 PUSH2 0xE71 JUMP JUMPDEST SWAP2 POP DUP3 PUSH1 0x2 MUL DUP3 OR SWAP1 POP SWAP3 SWAP2 POP POP JUMP JUMPDEST PUSH2 0xEB1 DUP3 PUSH2 0x771 JUMP JUMPDEST PUSH8 0xFFFFFFFFFFFFFFFF DUP2 GT ISZERO PUSH2 0xECA JUMPI PUSH2 0xEC9 PUSH2 0x8F7 JUMP JUMPDEST JUMPDEST PUSH2 0xED4 DUP3 SLOAD PUSH2 0xB1A JUMP JUMPDEST PUSH2 0xEDF DUP3 DUP3 DUP6 PUSH2 0xE1F JUMP JUMPDEST PUSH0 PUSH1 0x20 SWAP1 POP PUSH1 0x1F DUP4 GT PUSH1 0x1 DUP2 EQ PUSH2 0xF10 JUMPI PUSH0 DUP5 ISZERO PUSH2 0xEFE JUMPI DUP3 DUP8 ADD MLOAD SWAP1 POP JUMPDEST PUSH2 0xF08 DUP6 DUP3 PUSH2 0xE8D JUMP JUMPDEST DUP7 SSTORE POP PUSH2 0xF6F JUMP JUMPDEST PUSH1 0x1F NOT DUP5 AND PUSH2 0xF1E DUP7 PUSH2 0xD08 JUMP JUMPDEST PUSH0 JUMPDEST DUP3 DUP2 LT ISZERO PUSH2 0xF45 JUMPI DUP5 DUP10 ADD MLOAD DUP3 SSTORE PUSH1 0x1 DUP3 ADD SWAP2 POP PUSH1 0x20 DUP6 ADD SWAP5 POP PUSH1 0x20 DUP2 ADD SWAP1 POP PUSH2 0xF20 JUMP JUMPDEST DUP7 DUP4 LT ISZERO PUSH2 0xF62 JUMPI DUP5 DUP10 ADD MLOAD PUSH2 0xF5E PUSH1 0x1F DUP10 AND DUP3 PUSH2 0xE71 JUMP JUMPDEST DUP4 SSTORE POP JUMPDEST PUSH1 0x1 PUSH1 0x2 DUP9 MUL ADD DUP9 SSTORE POP POP POP JUMPDEST POP POP POP POP POP POP JUMP JUMPDEST PUSH0 PUSH2 0xF81 DUP3 PUSH2 0x771 JUMP JUMPDEST PUSH2 0xF8B DUP2 DUP6 PUSH2 0xB4A JUMP JUMPDEST SWAP4 POP PUSH2 0xF9B DUP2 DUP6 PUSH1 0x20 DUP7 ADD PUSH2 0x78B JUMP JUMPDEST PUSH2 0xFA4 DUP2 PUSH2 0x7B3 JUMP JUMPDEST DUP5 ADD SWAP2 POP POP SWAP3 SWAP2 POP POP JUMP JUMPDEST PUSH0 PUSH1 0x20 DUP3 ADD SWAP1 POP DUP2 DUP2 SUB PUSH0 DUP4 ADD MSTORE PUSH2 0xFC7 DUP2 DUP5 PUSH2 0xF77 JUMP JUMPDEST SWAP1 POP SWAP3 SWAP2 POP POP JUMP JUMPDEST PUSH32 0x4E487B7100000000000000000000000000000000000000000000000000000000 PUSH0 MSTORE PUSH1 0x32 PUSH1 0x4 MSTORE PUSH1 0x24 PUSH0 REVERT JUMPDEST PUSH0 DUP2 SLOAD PUSH2 0x1008 DUP2 PUSH2 0xB1A JUMP JUMPDEST PUSH2 0x1012 DUP2 DUP7 PUSH2 0xC50 JUMP JUMPDEST SWAP5 POP PUSH1 0x1 DUP3 AND PUSH0 DUP2 EQ PUSH2 0x102C JUMPI PUSH1 0x1 DUP2 EQ PUSH2 0x1041 JUMPI PUSH2 0x1073 JUMP JUMPDEST PUSH1 0xFF NOT DUP4 AND DUP7 MSTORE DUP2 ISZERO ISZERO DUP3 MUL DUP7 ADD SWAP4 POP PUSH2 0x1073 JUMP JUMPDEST PUSH2 0x104A DUP6 PUSH2 0xD08 JUMP JUMPDEST PUSH0 JUMPDEST DUP4 DUP2 LT ISZERO PUSH2 0x106B JUMPI DUP2 SLOAD DUP2 DUP10 ADD MSTORE PUSH1 0x1 DUP3 ADD SWAP2 POP PUSH1 0x20 DUP2 ADD SWAP1 POP PUSH2 0x104C JUMP JUMPDEST DUP4 DUP9 ADD SWAP6 POP POP POP JUMPDEST POP POP POP SWAP3 SWAP2 POP POP JUMP JUMPDEST PUSH0 PUSH2 0x1087 DUP3 DUP5 PUSH2 0xFFC JUMP JUMPDEST SWAP2 POP DUP2 SWAP1 POP SWAP3 SWAP2 POP POP JUMP JUMPDEST PUSH32 0x43616E64696461746520646F6573206E6F742065786973740000000000000000 PUSH0 DUP3 ADD MSTORE POP JUMP JUMPDEST PUSH0 PUSH2 0x10C6 PUSH1 0x18 DUP4 PUSH2 0xB4A JUMP JUMPDEST SWAP2 POP PUSH2 0x10D1 DUP3 PUSH2 0x1092 JUMP JUMPDEST PUSH1 0x20 DUP3 ADD SWAP1 POP SWAP2 SWAP1 POP JUMP JUMPDEST PUSH0 PUSH1 0x20 DUP3 ADD SWAP1 POP DUP2 DUP2 SUB PUSH0 DUP4 ADD MSTORE PUSH2 0x10F3 DUP2 PUSH2 0x10BA JUMP JUMPDEST SWAP1 POP SWAP2 SWAP1 POP JUMP JUMPDEST PUSH32 0x4E487B7100000000000000000000000000000000000000000000000000000000 PUSH0 MSTORE PUSH1 0x11 PUSH1 0x4 MSTORE PUSH1 0x24 PUSH0 REVERT JUMPDEST PUSH0 PUSH2 0x1131 DUP3 PUSH2 0x8AD JUMP JUMPDEST SWAP2 POP PUSH2 0x113C DUP4 PUSH2 0x8AD JUMP JUMPDEST SWAP3 POP DUP3 DUP3 ADD SWAP1 POP DUP1 DUP3 GT ISZERO PUSH2 0x1154 JUMPI PUSH2 0x1153 PUSH2 0x10FA JUMP JUMPDEST JUMPDEST SWAP3 SWAP2 POP POP JUMP INVALID LOG2 PUSH5 0x6970667358 0x22 SLT KECCAK256 MULMOD 0x29 0xF TLOAD 0x26 SELFBALANCE LOG2 0xD3 0xC6 JUMPDEST DUPN 0x2C 0x28 DUP16 JUMP MULMOD PUSH29 0x9FA11ABB7EAC928487E21519D94D8F64736F6C634300081E0033000000 "
				},
				"gasEstimates": {
					"creation": {
						"codeDepositCost": "899200",
						"executionCost": "25198",
						"totalCost": "924398"
					},
					"external": {
						"addCandidate(string)": "infinite",
						"getAllCandidates()": "infinite",
						"getCandidateCount()": "2463",
						"getVotes(string)": "infinite",
						"isCandidateExist(string)": "infinite",
						"owner()": "2530",
						"resetVotes()": "infinite",
						"vote(string)": "infinite"
					}
				},
				"methodIdentifiers": {
					"addCandidate(string)": "462e91ec",
					"getAllCandidates()": "2e6997fe",
					"getCandidateCount()": "30a56347",
					"getVotes(string)": "805265e5",
					"isCandidateExist(string)": "7e797dee",
					"owner()": "8da5cb5b",
					"resetVotes()": "b9830ff1",
					"vote(string)": "fc36e15b"
				}
			},
			"storageLayout": {
				"storage": [
					{
						"astId": 5,
						"contract": "solidity_task1/Voting.sol:Voting",
						"label": "votesReceived",
						"offset": 0,
						"slot": "0",
						"type": "t_mapping(t_string_memory_ptr,t_uint256)"
					},
					{
						"astId": 8,
						"contract": "solidity_task1/Voting.sol:Voting",
						"label": "candidates",
						"offset": 0,
						"slot": "1",
						"type": "t_array(t_string_storage)dyn_storage"
					},
					{
						"astId": 12,
						"contract": "solidity_task1/Voting.sol:Voting",
						"label": "candidateExists",
						"offset": 0,
						"slot": "2",
						"type": "t_mapping(t_string_memory_ptr,t_bool)"
					},
					{
						"astId": 14,
						"contract": "solidity_task1/Voting.sol:Voting",
						"label": "owner",
						"offset": 0,
						"slot": "3",
						"type": "t_address"
					}
				],
				"types": {
					"t_address": {
						"encoding": "inplace",
						"label": "address",
						"numberOfBytes": "20"
					},
					"t_array(t_string_storage)dyn_storage": {
						"base": "t_string_storage",
						"encoding": "dynamic_array",
						"label": "string[]",
						"numberOfBytes": "32"
					},
					"t_bool": {
						"encoding": "inplace",
						"label": "bool",
						"numberOfBytes": "1"
					},
					"t_mapping(t_string_memory_ptr,t_bool)": {
						"encoding": "mapping",
						"key": "t_string_memory_ptr",
						"label": "mapping(string => bool)",
						"numberOfBytes": "32",
						"value": "t_bool"
					},
					"t_mapping(t_string_memory_ptr,t_uint256)": {
						"encoding": "mapping",
						"key": "t_string_memory_ptr",
						"label": "mapping(string => uint256)",
						"numberOfBytes": "32",
						"value": "t_uint256"
					},
					"t_string_memory_ptr": {
						"encoding": "bytes",
						"label": "string",
						"numberOfBytes": "32"
					},
					"t_string_storage": {
						"encoding": "bytes",
						"label": "string",
						"numberOfBytes": "32"
					},
					"t_uint256": {
						"encoding": "inplace",
						"label": "uint256",
						"numberOfBytes": "32"
					}
				}
			},
			"userdoc": {
				"kind": "user",
				"methods": {},
				"version": 1
			}
		}
	}
}