{
	"solidity_task1/RomaToInteger.sol": {
		"RomanToInteger": {
			"abi": [
				{
					"inputs": [],
					"stateMutability": "nonpayable",
					"type": "constructor"
				},
				{
					"inputs": [
						{
							"internalType": "string",
							"name": "s",
							"type": "string"
						}
					],
					"name": "romanToInt",
					"outputs": [
						{
							"internalType": "uint256",
							"name": "",
							"type": "uint256"
						}
					],
					"stateMutability": "view",
					"type": "function"
				}
			],
			"devdoc": {
				"kind": "dev",
				"methods": {},
				"version": 1
			},
			"evm": {
				"assembly": "    /* \"solidity_task1/RomaToInteger.sol\":60:1145  contract RomanToInteger {... */\n  mstore(0x40, 0x80)\n    /* \"solidity_task1/RomaToInteger.sol\":189:477  constructor() {... */\n  callvalue\n  dup1\n  iszero\n  tag_1\n  jumpi\n  revert(0x00, 0x00)\ntag_1:\n  pop\n    /* \"solidity_task1/RomaToInteger.sol\":273:274  1 */\n  0x01\n    /* \"solidity_task1/RomaToInteger.sol\":254:265  romanValues */\n  0x00\n    /* \"solidity_task1/RomaToInteger.sol\":254:270  romanValues['I'] */\n  0x00\n  and(not(0xffffffffffffffffffffffffffffffffffffffffffffffffffffffffffffff), 0x4900000000000000000000000000000000000000000000000000000000000000)\n  dup2\n  mstore\n  0x20\n  add\n  swap1\n  dup2\n  mstore\n  0x20\n  add\n  0x00\n  keccak256\n    /* \"solidity_task1/RomaToInteger.sol\":254:274  romanValues['I'] = 1 */\n  dup2\n  swap1\n  sstore\n  pop\n    /* \"solidity_task1/RomaToInteger.sol\":304:305  5 */\n  0x05\n    /* \"solidity_task1/RomaToInteger.sol\":285:296  romanValues */\n  0x00\n    /* \"solidity_task1/RomaToInteger.sol\":285:301  romanValues['V'] */\n  0x00\n  and(not(0xffffffffffffffffffffffffffffffffffffffffffffffffffffffffffffff), 0x5600000000000000000000000000000000000000000000000000000000000000)\n  dup2\n  mstore\n  0x20\n  add\n  swap1\n  dup2\n  mstore\n  0x20\n  add\n  0x00\n  keccak256\n    /* \"solidity_task1/RomaToInteger.sol\":285:305  romanValues['V'] = 5 */\n  dup2\n  swap1\n  sstore\n  pop\n    /* \"solidity_task1/RomaToInteger.sol\":335:337  10 */\n  0x0a\n    /* \"solidity_task1/RomaToInteger.sol\":316:327  romanValues */\n  0x00\n    /* \"solidity_task1/RomaToInteger.sol\":316:332  romanValues['X'] */\n  0x00\n  and(not(0xffffffffffffffffffffffffffffffffffffffffffffffffffffffffffffff), 0x5800000000000000000000000000000000000000000000000000000000000000)\n  dup2\n  mstore\n  0x20\n  add\n  swap1\n  dup2\n  mstore\n  0x20\n  add\n  0x00\n  keccak256\n    /* \"solidity_task1/RomaToInteger.sol\":316:337  romanValues['X'] = 10 */\n  dup2\n  swap1\n  sstore\n  pop\n    /* \"solidity_task1/RomaToInteger.sol\":367:369  50 */\n  0x32\n    /* \"solidity_task1/RomaToInteger.sol\":348:359  romanValues */\n  0x00\n    /* \"solidity_task1/RomaToInteger.sol\":348:364  romanValues['L'] */\n  0x00\n  and(not(0xffffffffffffffffffffffffffffffffffffffffffffffffffffffffffffff), 0x4c00000000000000000000000000000000000000000000000000000000000000)\n  dup2\n  mstore\n  0x20\n  add\n  swap1\n  dup2\n  mstore\n  0x20\n  add\n  0x00\n  keccak256\n    /* \"solidity_task1/RomaToInteger.sol\":348:369  romanValues['L'] = 50 */\n  dup2\n  swap1\n  sstore\n  pop\n    /* \"solidity_task1/RomaToInteger.sol\":399:402  100 */\n  0x64\n    /* \"solidity_task1/RomaToInteger.sol\":380:391  romanValues */\n  0x00\n    /* \"solidity_task1/RomaToInteger.sol\":380:396  romanValues['C'] */\n  0x00\n  and(not(0xffffffffffffffffffffffffffffffffffffffffffffffffffffffffffffff), 0x4300000000000000000000000000000000000000000000000000000000000000)\n  dup2\n  mstore\n  0x20\n  add\n  swap1\n  dup2\n  mstore\n  0x20\n  add\n  0x00\n  keccak256\n    /* \"solidity_task1/RomaToInteger.sol\":380:402  romanValues['C'] = 100 */\n  dup2\n  swap1\n  sstore\n  pop\n    /* \"solidity_task1/RomaToInteger.sol\":432:435  500 */\n  0x01f4\n    /* \"solidity_task1/RomaToInteger.sol\":413:424  romanValues */\n  0x00\n    /* \"solidity_task1/RomaToInteger.sol\":413:429  romanValues['D'] */\n  0x00\n  and(not(0xffffffffffffffffffffffffffffffffffffffffffffffffffffffffffffff), 0x4400000000000000000000000000000000000000000000000000000000000000)\n  dup2\n  mstore\n  0x20\n  add\n  swap1\n  dup2\n  mstore\n  0x20\n  add\n  0x00\n  keccak256\n    /* \"solidity_task1/RomaToInteger.sol\":413:435  romanValues['D'] = 500 */\n  dup2\n  swap1\n  sstore\n  pop\n    /* \"solidity_task1/RomaToInteger.sol\":465:469  1000 */\n  0x03e8\n    /* \"solidity_task1/RomaToInteger.sol\":446:457  romanValues */\n  0x00\n    /* \"solidity_task1/RomaToInteger.sol\":446:462  romanValues['M'] */\n  0x00\n  and(not(0xffffffffffffffffffffffffffffffffffffffffffffffffffffffffffffff), 0x4d00000000000000000000000000000000000000000000000000000000000000)\n  dup2\n  mstore\n  0x20\n  add\n  swap1\n  dup2\n  mstore\n  0x20\n  add\n  0x00\n  keccak256\n    /* \"solidity_task1/RomaToInteger.sol\":446:469  romanValues['M'] = 1000 */\n  dup2\n  swap1\n  sstore\n  pop\n    /* \"solidity_task1/RomaToInteger.sol\":60:1145  contract RomanToInteger {... */\n  dataSize(sub_0)\n  dup1\n  dataOffset(sub_0)\n  0x00\n  codecopy\n  0x00\n  return\nstop\n\nsub_0: assembly {\n        /* \"solidity_task1/RomaToInteger.sol\":60:1145  contract RomanToInteger {... */\n      mstore(0x40, 0x80)\n      callvalue\n      dup1\n      iszero\n      tag_1\n      jumpi\n      revert(0x00, 0x00)\n    tag_1:\n      pop\n      jumpi(tag_2, lt(calldatasize, 0x04))\n      shr(0xe0, calldataload(0x00))\n      dup1\n      0xcb159dfe\n      eq\n      tag_3\n      jumpi\n    tag_2:\n      revert(0x00, 0x00)\n        /* \"solidity_task1/RomaToInteger.sol\":531:1142  function romanToInt(string memory s) public view returns (uint256) {... */\n    tag_3:\n      tag_4\n      0x04\n      dup1\n      calldatasize\n      sub\n      dup2\n      add\n      swap1\n      tag_5\n      swap2\n      swap1\n      tag_6\n      jump\t// in\n    tag_5:\n      tag_7\n      jump\t// in\n    tag_4:\n      mload(0x40)\n      tag_8\n      swap2\n      swap1\n      tag_9\n      jump\t// in\n    tag_8:\n      mload(0x40)\n      dup1\n      swap2\n      sub\n      swap1\n      return\n    tag_7:\n        /* \"solidity_task1/RomaToInteger.sol\":589:596  uint256 */\n      0x00\n        /* \"solidity_task1/RomaToInteger.sol\":609:627  bytes memory roman */\n      0x00\n        /* \"solidity_task1/RomaToInteger.sol\":636:637  s */\n      dup3\n        /* \"solidity_task1/RomaToInteger.sol\":609:638  bytes memory roman = bytes(s) */\n      swap1\n      pop\n        /* \"solidity_task1/RomaToInteger.sol\":649:663  uint256 length */\n      0x00\n        /* \"solidity_task1/RomaToInteger.sol\":666:671  roman */\n      dup2\n        /* \"solidity_task1/RomaToInteger.sol\":666:678  roman.length */\n      mload\n        /* \"solidity_task1/RomaToInteger.sol\":649:678  uint256 length = roman.length */\n      swap1\n      pop\n        /* \"solidity_task1/RomaToInteger.sol\":689:702  uint256 total */\n      0x00\n        /* \"solidity_task1/RomaToInteger.sol\":705:706  0 */\n      0x00\n        /* \"solidity_task1/RomaToInteger.sol\":689:706  uint256 total = 0 */\n      swap1\n      pop\n        /* \"solidity_task1/RomaToInteger.sol\":732:741  uint256 i */\n      0x00\n        /* \"solidity_task1/RomaToInteger.sol\":744:745  0 */\n      0x00\n        /* \"solidity_task1/RomaToInteger.sol\":732:745  uint256 i = 0 */\n      swap1\n      pop\n        /* \"solidity_task1/RomaToInteger.sol\":727:1102  for (uint256 i = 0; i < length; i++) {... */\n    tag_11:\n        /* \"solidity_task1/RomaToInteger.sol\":751:757  length */\n      dup3\n        /* \"solidity_task1/RomaToInteger.sol\":747:748  i */\n      dup2\n        /* \"solidity_task1/RomaToInteger.sol\":747:757  i < length */\n      lt\n        /* \"solidity_task1/RomaToInteger.sol\":727:1102  for (uint256 i = 0; i < length; i++) {... */\n      iszero\n      tag_12\n      jumpi\n        /* \"solidity_task1/RomaToInteger.sol\":779:794  uint256 current */\n      0x00\n        /* \"solidity_task1/RomaToInteger.sol\":797:808  romanValues */\n      0x00\n        /* \"solidity_task1/RomaToInteger.sol\":797:818  romanValues[roman[i]] */\n      0x00\n        /* \"solidity_task1/RomaToInteger.sol\":809:814  roman */\n      dup7\n        /* \"solidity_task1/RomaToInteger.sol\":815:816  i */\n      dup5\n        /* \"solidity_task1/RomaToInteger.sol\":809:817  roman[i] */\n      dup2\n      mload\n      dup2\n      lt\n      tag_14\n      jumpi\n      tag_15\n      tag_16\n      jump\t// in\n    tag_15:\n    tag_14:\n      0x20\n      add\n      add\n      mload\n      0xf8\n      shr\n      0xf8\n      shl\n        /* \"solidity_task1/RomaToInteger.sol\":797:818  romanValues[roman[i]] */\n      not(0xffffffffffffffffffffffffffffffffffffffffffffffffffffffffffffff)\n      and\n      not(0xffffffffffffffffffffffffffffffffffffffffffffffffffffffffffffff)\n      and\n      dup2\n      mstore\n      0x20\n      add\n      swap1\n      dup2\n      mstore\n      0x20\n      add\n      0x00\n      keccak256\n      sload\n        /* \"solidity_task1/RomaToInteger.sol\":779:818  uint256 current = romanValues[roman[i]] */\n      swap1\n      pop\n        /* \"solidity_task1/RomaToInteger.sol\":941:942  1 */\n      0x01\n        /* \"solidity_task1/RomaToInteger.sol\":932:938  length */\n      dup5\n        /* \"solidity_task1/RomaToInteger.sol\":932:942  length - 1 */\n      tag_17\n      swap2\n      swap1\n      tag_18\n      jump\t// in\n    tag_17:\n        /* \"solidity_task1/RomaToInteger.sol\":928:929  i */\n      dup3\n        /* \"solidity_task1/RomaToInteger.sol\":928:942  i < length - 1 */\n      lt\n        /* \"solidity_task1/RomaToInteger.sol\":928:981  i < length - 1 && current < romanValues[roman[i + 1]] */\n      dup1\n      iszero\n      tag_19\n      jumpi\n      pop\n        /* \"solidity_task1/RomaToInteger.sol\":956:967  romanValues */\n      0x00\n        /* \"solidity_task1/RomaToInteger.sol\":956:981  romanValues[roman[i + 1]] */\n      0x00\n        /* \"solidity_task1/RomaToInteger.sol\":968:973  roman */\n      dup7\n        /* \"solidity_task1/RomaToInteger.sol\":978:979  1 */\n      0x01\n        /* \"solidity_task1/RomaToInteger.sol\":974:975  i */\n      dup6\n        /* \"solidity_task1/RomaToInteger.sol\":974:979  i + 1 */\n      tag_20\n      swap2\n      swap1\n      tag_21\n      jump\t// in\n    tag_20:\n        /* \"solidity_task1/RomaToInteger.sol\":968:980  roman[i + 1] */\n      dup2\n      mload\n      dup2\n      lt\n      tag_22\n      jumpi\n      tag_23\n      tag_16\n      jump\t// in\n    tag_23:\n    tag_22:\n      0x20\n      add\n      add\n      mload\n      0xf8\n      shr\n      0xf8\n      shl\n        /* \"solidity_task1/RomaToInteger.sol\":956:981  romanValues[roman[i + 1]] */\n      not(0xffffffffffffffffffffffffffffffffffffffffffffffffffffffffffffff)\n      and\n      not(0xffffffffffffffffffffffffffffffffffffffffffffffffffffffffffffff)\n      and\n      dup2\n      mstore\n      0x20\n      add\n      swap1\n      dup2\n      mstore\n      0x20\n      add\n      0x00\n      keccak256\n      sload\n        /* \"solidity_task1/RomaToInteger.sol\":946:953  current */\n      dup2\n        /* \"solidity_task1/RomaToInteger.sol\":946:981  current < romanValues[roman[i + 1]] */\n      lt\n        /* \"solidity_task1/RomaToInteger.sol\":928:981  i < length - 1 && current < romanValues[roman[i + 1]] */\n    tag_19:\n        /* \"solidity_task1/RomaToInteger.sol\":924:1091  if (i < length - 1 && current < romanValues[roman[i + 1]]) {... */\n      iszero\n      tag_24\n      jumpi\n        /* \"solidity_task1/RomaToInteger.sol\":1011:1018  current */\n      dup1\n        /* \"solidity_task1/RomaToInteger.sol\":1002:1018  total -= current */\n      dup4\n      tag_25\n      swap2\n      swap1\n      tag_18\n      jump\t// in\n    tag_25:\n      swap3\n      pop\n        /* \"solidity_task1/RomaToInteger.sol\":924:1091  if (i < length - 1 && current < romanValues[roman[i + 1]]) {... */\n      jump(tag_26)\n    tag_24:\n        /* \"solidity_task1/RomaToInteger.sol\":1068:1075  current */\n      dup1\n        /* \"solidity_task1/RomaToInteger.sol\":1059:1075  total += current */\n      dup4\n      tag_27\n      swap2\n      swap1\n      tag_21\n      jump\t// in\n    tag_27:\n      swap3\n      pop\n        /* \"solidity_task1/RomaToInteger.sol\":924:1091  if (i < length - 1 && current < romanValues[roman[i + 1]]) {... */\n    tag_26:\n        /* \"solidity_task1/RomaToInteger.sol\":764:1102  {... */\n      pop\n        /* \"solidity_task1/RomaToInteger.sol\":759:762  i++ */\n      dup1\n      dup1\n      0x01\n      add\n      swap2\n      pop\n      pop\n        /* \"solidity_task1/RomaToInteger.sol\":727:1102  for (uint256 i = 0; i < length; i++) {... */\n      jump(tag_11)\n    tag_12:\n      pop\n        /* \"solidity_task1/RomaToInteger.sol\":1129:1134  total */\n      dup1\n        /* \"solidity_task1/RomaToInteger.sol\":1122:1134  return total */\n      swap4\n      pop\n      pop\n      pop\n      pop\n        /* \"solidity_task1/RomaToInteger.sol\":531:1142  function romanToInt(string memory s) public view returns (uint256) {... */\n      swap2\n      swap1\n      pop\n      jump\t// out\n        /* \"#utility.yul\":7:82   */\n    tag_28:\n        /* \"#utility.yul\":40:46   */\n      0x00\n        /* \"#utility.yul\":73:75   */\n      0x40\n        /* \"#utility.yul\":67:76   */\n      mload\n        /* \"#utility.yul\":57:76   */\n      swap1\n      pop\n        /* \"#utility.yul\":7:82   */\n      swap1\n      jump\t// out\n        /* \"#utility.yul\":88:205   */\n    tag_29:\n        /* \"#utility.yul\":197:198   */\n      0x00\n        /* \"#utility.yul\":194:195   */\n      0x00\n        /* \"#utility.yul\":187:199   */\n      revert\n        /* \"#utility.yul\":211:328   */\n    tag_30:\n        /* \"#utility.yul\":320:321   */\n      0x00\n        /* \"#utility.yul\":317:318   */\n      0x00\n        /* \"#utility.yul\":310:322   */\n      revert\n        /* \"#utility.yul\":334:451   */\n    tag_31:\n        /* \"#utility.yul\":443:444   */\n      0x00\n        /* \"#utility.yul\":440:441   */\n      0x00\n        /* \"#utility.yul\":433:445   */\n      revert\n        /* \"#utility.yul\":457:574   */\n    tag_32:\n        /* \"#utility.yul\":566:567   */\n      0x00\n        /* \"#utility.yul\":563:564   */\n      0x00\n        /* \"#utility.yul\":556:568   */\n      revert\n        /* \"#utility.yul\":580:682   */\n    tag_33:\n        /* \"#utility.yul\":621:627   */\n      0x00\n        /* \"#utility.yul\":672:674   */\n      0x1f\n        /* \"#utility.yul\":668:675   */\n      not\n        /* \"#utility.yul\":663:665   */\n      0x1f\n        /* \"#utility.yul\":656:661   */\n      dup4\n        /* \"#utility.yul\":652:666   */\n      add\n        /* \"#utility.yul\":648:676   */\n      and\n        /* \"#utility.yul\":638:676   */\n      swap1\n      pop\n        /* \"#utility.yul\":580:682   */\n      swap2\n      swap1\n      pop\n      jump\t// out\n        /* \"#utility.yul\":688:868   */\n    tag_34:\n        /* \"#utility.yul\":736:813   */\n      0x4e487b7100000000000000000000000000000000000000000000000000000000\n        /* \"#utility.yul\":733:734   */\n      0x00\n        /* \"#utility.yul\":726:814   */\n      mstore\n        /* \"#utility.yul\":833:837   */\n      0x41\n        /* \"#utility.yul\":830:831   */\n      0x04\n        /* \"#utility.yul\":823:838   */\n      mstore\n        /* \"#utility.yul\":857:861   */\n      0x24\n        /* \"#utility.yul\":854:855   */\n      0x00\n        /* \"#utility.yul\":847:862   */\n      revert\n        /* \"#utility.yul\":874:1155   */\n    tag_35:\n        /* \"#utility.yul\":957:984   */\n      tag_53\n        /* \"#utility.yul\":979:983   */\n      dup3\n        /* \"#utility.yul\":957:984   */\n      tag_33\n      jump\t// in\n    tag_53:\n        /* \"#utility.yul\":949:955   */\n      dup2\n        /* \"#utility.yul\":945:985   */\n      add\n        /* \"#utility.yul\":1087:1093   */\n      dup2\n        /* \"#utility.yul\":1075:1085   */\n      dup2\n        /* \"#utility.yul\":1072:1094   */\n      lt\n        /* \"#utility.yul\":1051:1069   */\n      0xffffffffffffffff\n        /* \"#utility.yul\":1039:1049   */\n      dup3\n        /* \"#utility.yul\":1036:1070   */\n      gt\n        /* \"#utility.yul\":1033:1095   */\n      or\n        /* \"#utility.yul\":1030:1118   */\n      iszero\n      tag_54\n      jumpi\n        /* \"#utility.yul\":1098:1116   */\n      tag_55\n      tag_34\n      jump\t// in\n    tag_55:\n        /* \"#utility.yul\":1030:1118   */\n    tag_54:\n        /* \"#utility.yul\":1138:1148   */\n      dup1\n        /* \"#utility.yul\":1134:1136   */\n      0x40\n        /* \"#utility.yul\":1127:1149   */\n      mstore\n        /* \"#utility.yul\":917:1155   */\n      pop\n        /* \"#utility.yul\":874:1155   */\n      pop\n      pop\n      jump\t// out\n        /* \"#utility.yul\":1161:1290   */\n    tag_36:\n        /* \"#utility.yul\":1195:1201   */\n      0x00\n        /* \"#utility.yul\":1222:1242   */\n      tag_57\n      tag_28\n      jump\t// in\n    tag_57:\n        /* \"#utility.yul\":1212:1242   */\n      swap1\n      pop\n        /* \"#utility.yul\":1251:1284   */\n      tag_58\n        /* \"#utility.yul\":1279:1283   */\n      dup3\n        /* \"#utility.yul\":1271:1277   */\n      dup3\n        /* \"#utility.yul\":1251:1284   */\n      tag_35\n      jump\t// in\n    tag_58:\n        /* \"#utility.yul\":1161:1290   */\n      swap2\n      swap1\n      pop\n      jump\t// out\n        /* \"#utility.yul\":1296:1604   */\n    tag_37:\n        /* \"#utility.yul\":1358:1362   */\n      0x00\n        /* \"#utility.yul\":1448:1466   */\n      0xffffffffffffffff\n        /* \"#utility.yul\":1440:1446   */\n      dup3\n        /* \"#utility.yul\":1437:1467   */\n      gt\n        /* \"#utility.yul\":1434:1490   */\n      iszero\n      tag_60\n      jumpi\n        /* \"#utility.yul\":1470:1488   */\n      tag_61\n      tag_34\n      jump\t// in\n    tag_61:\n        /* \"#utility.yul\":1434:1490   */\n    tag_60:\n        /* \"#utility.yul\":1508:1537   */\n      tag_62\n        /* \"#utility.yul\":1530:1536   */\n      dup3\n        /* \"#utility.yul\":1508:1537   */\n      tag_33\n      jump\t// in\n    tag_62:\n        /* \"#utility.yul\":1500:1537   */\n      swap1\n      pop\n        /* \"#utility.yul\":1592:1596   */\n      0x20\n        /* \"#utility.yul\":1586:1590   */\n      dup2\n        /* \"#utility.yul\":1582:1597   */\n      add\n        /* \"#utility.yul\":1574:1597   */\n      swap1\n      pop\n        /* \"#utility.yul\":1296:1604   */\n      swap2\n      swap1\n      pop\n      jump\t// out\n        /* \"#utility.yul\":1610:1758   */\n    tag_38:\n        /* \"#utility.yul\":1708:1714   */\n      dup3\n        /* \"#utility.yul\":1703:1706   */\n      dup2\n        /* \"#utility.yul\":1698:1701   */\n      dup4\n        /* \"#utility.yul\":1685:1715   */\n      calldatacopy\n        /* \"#utility.yul\":1749:1750   */\n      0x00\n        /* \"#utility.yul\":1740:1746   */\n      dup4\n        /* \"#utility.yul\":1735:1738   */\n      dup4\n        /* \"#utility.yul\":1731:1747   */\n      add\n        /* \"#utility.yul\":1724:1751   */\n      mstore\n        /* \"#utility.yul\":1610:1758   */\n      pop\n      pop\n      pop\n      jump\t// out\n        /* \"#utility.yul\":1764:2189   */\n    tag_39:\n        /* \"#utility.yul\":1842:1847   */\n      0x00\n        /* \"#utility.yul\":1867:1933   */\n      tag_65\n        /* \"#utility.yul\":1883:1932   */\n      tag_66\n        /* \"#utility.yul\":1925:1931   */\n      dup5\n        /* \"#utility.yul\":1883:1932   */\n      tag_37\n      jump\t// in\n    tag_66:\n        /* \"#utility.yul\":1867:1933   */\n      tag_36\n      jump\t// in\n    tag_65:\n        /* \"#utility.yul\":1858:1933   */\n      swap1\n      pop\n        /* \"#utility.yul\":1956:1962   */\n      dup3\n        /* \"#utility.yul\":1949:1954   */\n      dup2\n        /* \"#utility.yul\":1942:1963   */\n      mstore\n        /* \"#utility.yul\":1994:1998   */\n      0x20\n        /* \"#utility.yul\":1987:1992   */\n      dup2\n        /* \"#utility.yul\":1983:1999   */\n      add\n        /* \"#utility.yul\":2032:2035   */\n      dup5\n        /* \"#utility.yul\":2023:2029   */\n      dup5\n        /* \"#utility.yul\":2018:2021   */\n      dup5\n        /* \"#utility.yul\":2014:2030   */\n      add\n        /* \"#utility.yul\":2011:2036   */\n      gt\n        /* \"#utility.yul\":2008:2120   */\n      iszero\n      tag_67\n      jumpi\n        /* \"#utility.yul\":2039:2118   */\n      tag_68\n      tag_32\n      jump\t// in\n    tag_68:\n        /* \"#utility.yul\":2008:2120   */\n    tag_67:\n        /* \"#utility.yul\":2129:2183   */\n      tag_69\n        /* \"#utility.yul\":2176:2182   */\n      dup5\n        /* \"#utility.yul\":2171:2174   */\n      dup3\n        /* \"#utility.yul\":2166:2169   */\n      dup6\n        /* \"#utility.yul\":2129:2183   */\n      tag_38\n      jump\t// in\n    tag_69:\n        /* \"#utility.yul\":1848:2189   */\n      pop\n        /* \"#utility.yul\":1764:2189   */\n      swap4\n      swap3\n      pop\n      pop\n      pop\n      jump\t// out\n        /* \"#utility.yul\":2209:2549   */\n    tag_40:\n        /* \"#utility.yul\":2265:2270   */\n      0x00\n        /* \"#utility.yul\":2314:2317   */\n      dup3\n        /* \"#utility.yul\":2307:2311   */\n      0x1f\n        /* \"#utility.yul\":2299:2305   */\n      dup4\n        /* \"#utility.yul\":2295:2312   */\n      add\n        /* \"#utility.yul\":2291:2318   */\n      slt\n        /* \"#utility.yul\":2281:2403   */\n      tag_71\n      jumpi\n        /* \"#utility.yul\":2322:2401   */\n      tag_72\n      tag_31\n      jump\t// in\n    tag_72:\n        /* \"#utility.yul\":2281:2403   */\n    tag_71:\n        /* \"#utility.yul\":2439:2445   */\n      dup2\n        /* \"#utility.yul\":2426:2446   */\n      calldataload\n        /* \"#utility.yul\":2464:2543   */\n      tag_73\n        /* \"#utility.yul\":2539:2542   */\n      dup5\n        /* \"#utility.yul\":2531:2537   */\n      dup3\n        /* \"#utility.yul\":2524:2528   */\n      0x20\n        /* \"#utility.yul\":2516:2522   */\n      dup7\n        /* \"#utility.yul\":2512:2529   */\n      add\n        /* \"#utility.yul\":2464:2543   */\n      tag_39\n      jump\t// in\n    tag_73:\n        /* \"#utility.yul\":2455:2543   */\n      swap2\n      pop\n        /* \"#utility.yul\":2271:2549   */\n      pop\n        /* \"#utility.yul\":2209:2549   */\n      swap3\n      swap2\n      pop\n      pop\n      jump\t// out\n        /* \"#utility.yul\":2555:3064   */\n    tag_6:\n        /* \"#utility.yul\":2624:2630   */\n      0x00\n        /* \"#utility.yul\":2673:2675   */\n      0x20\n        /* \"#utility.yul\":2661:2670   */\n      dup3\n        /* \"#utility.yul\":2652:2659   */\n      dup5\n        /* \"#utility.yul\":2648:2671   */\n      sub\n        /* \"#utility.yul\":2644:2676   */\n      slt\n        /* \"#utility.yul\":2641:2760   */\n      iszero\n      tag_75\n      jumpi\n        /* \"#utility.yul\":2679:2758   */\n      tag_76\n      tag_29\n      jump\t// in\n    tag_76:\n        /* \"#utility.yul\":2641:2760   */\n    tag_75:\n        /* \"#utility.yul\":2827:2828   */\n      0x00\n        /* \"#utility.yul\":2816:2825   */\n      dup3\n        /* \"#utility.yul\":2812:2829   */\n      add\n        /* \"#utility.yul\":2799:2830   */\n      calldataload\n        /* \"#utility.yul\":2857:2875   */\n      0xffffffffffffffff\n        /* \"#utility.yul\":2849:2855   */\n      dup2\n        /* \"#utility.yul\":2846:2876   */\n      gt\n        /* \"#utility.yul\":2843:2960   */\n      iszero\n      tag_77\n      jumpi\n        /* \"#utility.yul\":2879:2958   */\n      tag_78\n      tag_30\n      jump\t// in\n    tag_78:\n        /* \"#utility.yul\":2843:2960   */\n    tag_77:\n        /* \"#utility.yul\":2984:3047   */\n      tag_79\n        /* \"#utility.yul\":3039:3046   */\n      dup5\n        /* \"#utility.yul\":3030:3036   */\n      dup3\n        /* \"#utility.yul\":3019:3028   */\n      dup6\n        /* \"#utility.yul\":3015:3037   */\n      add\n        /* \"#utility.yul\":2984:3047   */\n      tag_40\n      jump\t// in\n    tag_79:\n        /* \"#utility.yul\":2974:3047   */\n      swap2\n      pop\n        /* \"#utility.yul\":2770:3057   */\n      pop\n        /* \"#utility.yul\":2555:3064   */\n      swap3\n      swap2\n      pop\n      pop\n      jump\t// out\n        /* \"#utility.yul\":3070:3147   */\n    tag_41:\n        /* \"#utility.yul\":3107:3114   */\n      0x00\n        /* \"#utility.yul\":3136:3141   */\n      dup2\n        /* \"#utility.yul\":3125:3141   */\n      swap1\n      pop\n        /* \"#utility.yul\":3070:3147   */\n      swap2\n      swap1\n      pop\n      jump\t// out\n        /* \"#utility.yul\":3153:3271   */\n    tag_42:\n        /* \"#utility.yul\":3240:3264   */\n      tag_82\n        /* \"#utility.yul\":3258:3263   */\n      dup2\n        /* \"#utility.yul\":3240:3264   */\n      tag_41\n      jump\t// in\n    tag_82:\n        /* \"#utility.yul\":3235:3238   */\n      dup3\n        /* \"#utility.yul\":3228:3265   */\n      mstore\n        /* \"#utility.yul\":3153:3271   */\n      pop\n      pop\n      jump\t// out\n        /* \"#utility.yul\":3277:3499   */\n    tag_9:\n        /* \"#utility.yul\":3370:3374   */\n      0x00\n        /* \"#utility.yul\":3408:3410   */\n      0x20\n        /* \"#utility.yul\":3397:3406   */\n      dup3\n        /* \"#utility.yul\":3393:3411   */\n      add\n        /* \"#utility.yul\":3385:3411   */\n      swap1\n      pop\n        /* \"#utility.yul\":3421:3492   */\n      tag_84\n        /* \"#utility.yul\":3489:3490   */\n      0x00\n        /* \"#utility.yul\":3478:3487   */\n      dup4\n        /* \"#utility.yul\":3474:3491   */\n      add\n        /* \"#utility.yul\":3465:3471   */\n      dup5\n        /* \"#utility.yul\":3421:3492   */\n      tag_42\n      jump\t// in\n    tag_84:\n        /* \"#utility.yul\":3277:3499   */\n      swap3\n      swap2\n      pop\n      pop\n      jump\t// out\n        /* \"#utility.yul\":3505:3685   */\n    tag_16:\n        /* \"#utility.yul\":3553:3630   */\n      0x4e487b7100000000000000000000000000000000000000000000000000000000\n        /* \"#utility.yul\":3550:3551   */\n      0x00\n        /* \"#utility.yul\":3543:3631   */\n      mstore\n        /* \"#utility.yul\":3650:3654   */\n      0x32\n        /* \"#utility.yul\":3647:3648   */\n      0x04\n        /* \"#utility.yul\":3640:3655   */\n      mstore\n        /* \"#utility.yul\":3674:3678   */\n      0x24\n        /* \"#utility.yul\":3671:3672   */\n      0x00\n        /* \"#utility.yul\":3664:3679   */\n      revert\n        /* \"#utility.yul\":3691:3871   */\n    tag_43:\n        /* \"#utility.yul\":3739:3816   */\n      0x4e487b7100000000000000000000000000000000000000000000000000000000\n        /* \"#utility.yul\":3736:3737   */\n      0x00\n        /* \"#utility.yul\":3729:3817   */\n      mstore\n        /* \"#utility.yul\":3836:3840   */\n      0x11\n        /* \"#utility.yul\":3833:3834   */\n      0x04\n        /* \"#utility.yul\":3826:3841   */\n      mstore\n        /* \"#utility.yul\":3860:3864   */\n      0x24\n        /* \"#utility.yul\":3857:3858   */\n      0x00\n        /* \"#utility.yul\":3850:3865   */\n      revert\n        /* \"#utility.yul\":3877:4071   */\n    tag_18:\n        /* \"#utility.yul\":3917:3921   */\n      0x00\n        /* \"#utility.yul\":3937:3957   */\n      tag_88\n        /* \"#utility.yul\":3955:3956   */\n      dup3\n        /* \"#utility.yul\":3937:3957   */\n      tag_41\n      jump\t// in\n    tag_88:\n        /* \"#utility.yul\":3932:3957   */\n      swap2\n      pop\n        /* \"#utility.yul\":3971:3991   */\n      tag_89\n        /* \"#utility.yul\":3989:3990   */\n      dup4\n        /* \"#utility.yul\":3971:3991   */\n      tag_41\n      jump\t// in\n    tag_89:\n        /* \"#utility.yul\":3966:3991   */\n      swap3\n      pop\n        /* \"#utility.yul\":4015:4016   */\n      dup3\n        /* \"#utility.yul\":4012:4013   */\n      dup3\n        /* \"#utility.yul\":4008:4017   */\n      sub\n        /* \"#utility.yul\":4000:4017   */\n      swap1\n      pop\n        /* \"#utility.yul\":4039:4040   */\n      dup2\n        /* \"#utility.yul\":4033:4037   */\n      dup2\n        /* \"#utility.yul\":4030:4041   */\n      gt\n        /* \"#utility.yul\":4027:4064   */\n      iszero\n      tag_90\n      jumpi\n        /* \"#utility.yul\":4044:4062   */\n      tag_91\n      tag_43\n      jump\t// in\n    tag_91:\n        /* \"#utility.yul\":4027:4064   */\n    tag_90:\n        /* \"#utility.yul\":3877:4071   */\n      swap3\n      swap2\n      pop\n      pop\n      jump\t// out\n        /* \"#utility.yul\":4077:4268   */\n    tag_21:\n        /* \"#utility.yul\":4117:4120   */\n      0x00\n        /* \"#utility.yul\":4136:4156   */\n      tag_93\n        /* \"#utility.yul\":4154:4155   */\n      dup3\n        /* \"#utility.yul\":4136:4156   */\n      tag_41\n      jump\t// in\n    tag_93:\n        /* \"#utility.yul\":4131:4156   */\n      swap2\n      pop\n        /* \"#utility.yul\":4170:4190   */\n      tag_94\n        /* \"#utility.yul\":4188:4189   */\n      dup4\n        /* \"#utility.yul\":4170:4190   */\n      tag_41\n      jump\t// in\n    tag_94:\n        /* \"#utility.yul\":4165:4190   */\n      swap3\n      pop\n        /* \"#utility.yul\":4213:4214   */\n      dup3\n        /* \"#utility.yul\":4210:4211   */\n      dup3\n        /* \"#utility.yul\":4206:4215   */\n      add\n        /* \"#utility.yul\":4199:4215   */\n      swap1\n      pop\n        /* \"#utility.yul\":4234:4237   */\n      dup1\n        /* \"#utility.yul\":4231:4232   */\n      dup3\n        /* \"#utility.yul\":4228:4238   */\n      gt\n        /* \"#utility.yul\":4225:4261   */\n      iszero\n      tag_95\n      jumpi\n        /* \"#utility.yul\":4241:4259   */\n      tag_96\n      tag_43\n      jump\t// in\n    tag_96:\n        /* \"#utility.yul\":4225:4261   */\n    tag_95:\n        /* \"#utility.yul\":4077:4268   */\n      swap3\n      swap2\n      pop\n      pop\n      jump\t// out\n\n    auxdata: 0xa26469706673582212200065b8fea74808a1216b972743c62d1379fc8ce0d61f6ecdabdc03cf4b16bbb364736f6c634300081e0033\n}\n",
				"bytecode": {
					"linkReferences": {},
					"object": "608060405234801561000f575f5ffd5b5060015f5f7f49000000000000000000000000000000000000000000000000000000000000007effffffffffffffffffffffffffffffffffffffffffffffffffffffffffffff191681526020019081526020015f208190555060055f5f7f56000000000000000000000000000000000000000000000000000000000000007effffffffffffffffffffffffffffffffffffffffffffffffffffffffffffff191681526020019081526020015f2081905550600a5f5f7f58000000000000000000000000000000000000000000000000000000000000007effffffffffffffffffffffffffffffffffffffffffffffffffffffffffffff191681526020019081526020015f208190555060325f5f7f4c000000000000000000000000000000000000000000000000000000000000007effffffffffffffffffffffffffffffffffffffffffffffffffffffffffffff191681526020019081526020015f208190555060645f5f7f43000000000000000000000000000000000000000000000000000000000000007effffffffffffffffffffffffffffffffffffffffffffffffffffffffffffff191681526020019081526020015f20819055506101f45f5f7f44000000000000000000000000000000000000000000000000000000000000007effffffffffffffffffffffffffffffffffffffffffffffffffffffffffffff191681526020019081526020015f20819055506103e85f5f7f4d000000000000000000000000000000000000000000000000000000000000007effffffffffffffffffffffffffffffffffffffffffffffffffffffffffffff191681526020019081526020015f2081905550610480806102875f395ff3fe608060405234801561000f575f5ffd5b5060043610610029575f3560e01c8063cb159dfe1461002d575b5f5ffd5b61004760048036038101906100429190610312565b61005d565b6040516100549190610371565b60405180910390f35b5f5f8290505f815190505f5f90505f5f90505b828110156101b9575f5f5f86848151811061008e5761008d61038a565b5b602001015160f81c60f81b7effffffffffffffffffffffffffffffffffffffffffffffffffffffffffffff19167effffffffffffffffffffffffffffffffffffffffffffffffffffffffffffff191681526020019081526020015f205490506001846100fa91906103e4565b8210801561018457505f5f866001856101139190610417565b815181106101245761012361038a565b5b602001015160f81c60f81b7effffffffffffffffffffffffffffffffffffffffffffffffffffffffffffff19167effffffffffffffffffffffffffffffffffffffffffffffffffffffffffffff191681526020019081526020015f205481105b1561019c57808361019591906103e4565b92506101ab565b80836101a89190610417565b92505b508080600101915050610070565b50809350505050919050565b5f604051905090565b5f5ffd5b5f5ffd5b5f5ffd5b5f5ffd5b5f601f19601f8301169050919050565b7f4e487b71000000000000000000000000000000000000000000000000000000005f52604160045260245ffd5b610224826101de565b810181811067ffffffffffffffff82111715610243576102426101ee565b5b80604052505050565b5f6102556101c5565b9050610261828261021b565b919050565b5f67ffffffffffffffff8211156102805761027f6101ee565b5b610289826101de565b9050602081019050919050565b828183375f83830152505050565b5f6102b66102b184610266565b61024c565b9050828152602081018484840111156102d2576102d16101da565b5b6102dd848285610296565b509392505050565b5f82601f8301126102f9576102f86101d6565b5b81356103098482602086016102a4565b91505092915050565b5f60208284031215610327576103266101ce565b5b5f82013567ffffffffffffffff811115610344576103436101d2565b5b610350848285016102e5565b91505092915050565b5f819050919050565b61036b81610359565b82525050565b5f6020820190506103845f830184610362565b92915050565b7f4e487b71000000000000000000000000000000000000000000000000000000005f52603260045260245ffd5b7f4e487b71000000000000000000000000000000000000000000000000000000005f52601160045260245ffd5b5f6103ee82610359565b91506103f983610359565b9250828203905081811115610411576104106103b7565b5b92915050565b5f61042182610359565b915061042c83610359565b9250828201905080821115610444576104436103b7565b5b9291505056fea26469706673582212200065b8fea74808a1216b972743c62d1379fc8ce0d61f6ecdabdc03cf4b16bbb364736f6c634300081e0033",
					"opcodes": "PUSH1 0x80 PUSH1 0x40 MSTORE CALLVALUE DUP1 ISZERO PUSH2 0xF JUMPI PUSH0 PUSH0 REVERT JUMPDEST POP PUSH1 0x1 PUSH0 PUSH0 PUSH32 0x4900000000000000000000000000000000000000000000000000000000000000 PUSH31 0xFFFFFFFFFFFFFFFFFFFFFFFFFFFFFFFFFFFFFFFFFFFFFFFFFFFFFFFFFFFFFF NOT AND DUP2 MSTORE PUSH1 0x20 ADD SWAP1 DUP2 MSTORE PUSH1 0x20 ADD PUSH0 KECCAK256 DUP2 SWAP1 SSTORE POP PUSH1 0x5 PUSH0 PUSH0 PUSH32 0x5600000000000000000000000000000000000000000000000000000000000000 PUSH31 0xFFFFFFFFFFFFFFFFFFFFFFFFFFFFFFFFFFFFFFFFFFFFFFFFFFFFFFFFFFFFFF NOT AND DUP2 MSTORE PUSH1 0x20 ADD SWAP1 DUP2 MSTORE PUSH1 0x20 ADD PUSH0 KECCAK256 DUP2 SWAP1 SSTORE POP PUSH1 0xA PUSH0 PUSH0 PUSH32 0x5800000000000000000000000000000000000000000000000000000000000000 PUSH31 0xFFFFFFFFFFFFFFFFFFFFFFFFFFFFFFFFFFFFFFFFFFFFFFFFFFFFFFFFFFFFFF NOT AND DUP2 MSTORE PUSH1 0x20 ADD SWAP1 DUP2 MSTORE PUSH1 0x20 ADD PUSH0 KECCAK256 DUP2 SWAP1 SSTORE POP PUSH1 0x32 PUSH0 PUSH0 PUSH32 0x4C00000000000000000000000000000000000000000000000000000000000000 PUSH31 0xFFFFFFFFFFFFFFFFFFFFFFFFFFFFFFFFFFFFFFFFFFFFFFFFFFFFFFFFFFFFFF NOT AND DUP2 MSTORE PUSH1 0x20 ADD SWAP1 DUP2 MSTORE PUSH1 0x20 ADD PUSH0 KECCAK256 DUP2 SWAP1 SSTORE POP PUSH1 0x64 PUSH0 PUSH0 PUSH32 0x4300000000000000000000000000000000000000000000000000000000000000 PUSH31 0xFFFFFFFFFFFFFFFFFFFFFFFFFFFFFFFFFFFFFFFFFFFFFFFFFFFFFFFFFFFFFF NOT AND DUP2 MSTORE PUSH1 0x20 ADD SWAP1 DUP2 MSTORE PUSH1 0x20 ADD PUSH0 KECCAK256 DUP2 SWAP1 SSTORE POP PUSH2 0x1F4 PUSH0 PUSH0 PUSH32 0x4400000000000000000000000000000000000000000000000000000000000000 PUSH31 0xFFFFFFFFFFFFFFFFFFFFFFFFFFFFFFFFFFFFFFFFFFFFFFFFFFFFFFFFFFFFFF NOT AND DUP2 MSTORE PUSH1 0x20 ADD SWAP1 DUP2 MSTORE PUSH1 0x20 ADD PUSH0 KECCAK256 DUP2 SWAP1 SSTORE POP PUSH2 0x3E8 PUSH0 PUSH0 PUSH32 0x4D00000000000000000000000000000000000000000000000000000000000000 PUSH31 0xFFFFFFFFFFFFFFFFFFFFFFFFFFFFFFFFFFFFFFFFFFFFFFFFFFFFFFFFFFFFFF NOT AND DUP2 MSTORE PUSH1 0x20 ADD SWAP1 DUP2 MSTORE PUSH1 0x20 ADD PUSH0 KECCAK256 DUP2 SWAP1 SSTORE POP PUSH2 0x480 DUP1 PUSH2 0x287 PUSH0 CODECOPY PUSH0 RETURN INVALID PUSH1 0x80 PUSH1 0x40 MSTORE CALLVALUE DUP1 ISZERO PUSH2 0xF JUMPI PUSH0 PUSH0 REVERT JUMPDEST POP PUSH1 0x4 CALLDATASIZE LT PUSH2 0x29 JUMPI PUSH0 CALLDATALOAD PUSH1 0xE0 SHR DUP1 PUSH4 0xCB159DFE EQ PUSH2 0x2D JUMPI JUMPDEST PUSH0 PUSH0 REVERT JUMPDEST PUSH2 0x47 PUSH1 0x4 DUP1 CALLDATASIZE SUB DUP2 ADD SWAP1 PUSH2 0x42 SWAP2 SWAP1 PUSH2 0x312 JUMP JUMPDEST PUSH2 0x5D JUMP JUMPDEST PUSH1 0x40 MLOAD PUSH2 0x54 SWAP2 SWAP1 PUSH2 0x371 JUMP JUMPDEST PUSH1 0x40 MLOAD DUP1 SWAP2 SUB SWAP1 RETURN JUMPDEST PUSH0 PUSH0 DUP3 SWAP1 POP PUSH0 DUP2 MLOAD SWAP1 POP PUSH0 PUSH0 SWAP1 POP PUSH0 PUSH0 SWAP1 POP JUMPDEST DUP3 DUP2 LT ISZERO PUSH2 0x1B9 JUMPI PUSH0 PUSH0 PUSH0 DUP7 DUP5 DUP2 MLOAD DUP2 LT PUSH2 0x8E JUMPI PUSH2 0x8D PUSH2 0x38A JUMP JUMPDEST JUMPDEST PUSH1 0x20 ADD ADD MLOAD PUSH1 0xF8 SHR PUSH1 0xF8 SHL PUSH31 0xFFFFFFFFFFFFFFFFFFFFFFFFFFFFFFFFFFFFFFFFFFFFFFFFFFFFFFFFFFFFFF NOT AND PUSH31 0xFFFFFFFFFFFFFFFFFFFFFFFFFFFFFFFFFFFFFFFFFFFFFFFFFFFFFFFFFFFFFF NOT AND DUP2 MSTORE PUSH1 0x20 ADD SWAP1 DUP2 MSTORE PUSH1 0x20 ADD PUSH0 KECCAK256 SLOAD SWAP1 POP PUSH1 0x1 DUP5 PUSH2 0xFA SWAP2 SWAP1 PUSH2 0x3E4 JUMP JUMPDEST DUP3 LT DUP1 ISZERO PUSH2 0x184 JUMPI POP PUSH0 PUSH0 DUP7 PUSH1 0x1 DUP6 PUSH2 0x113 SWAP2 SWAP1 PUSH2 0x417 JUMP JUMPDEST DUP2 MLOAD DUP2 LT PUSH2 0x124 JUMPI PUSH2 0x123 PUSH2 0x38A JUMP JUMPDEST JUMPDEST PUSH1 0x20 ADD ADD MLOAD PUSH1 0xF8 SHR PUSH1 0xF8 SHL PUSH31 0xFFFFFFFFFFFFFFFFFFFFFFFFFFFFFFFFFFFFFFFFFFFFFFFFFFFFFFFFFFFFFF NOT AND PUSH31 0xFFFFFFFFFFFFFFFFFFFFFFFFFFFFFFFFFFFFFFFFFFFFFFFFFFFFFFFFFFFFFF NOT AND DUP2 MSTORE PUSH1 0x20 ADD SWAP1 DUP2 MSTORE PUSH1 0x20 ADD PUSH0 KECCAK256 SLOAD DUP2 LT JUMPDEST ISZERO PUSH2 0x19C JUMPI DUP1 DUP4 PUSH2 0x195 SWAP2 SWAP1 PUSH2 0x3E4 JUMP JUMPDEST SWAP3 POP PUSH2 0x1AB JUMP JUMPDEST DUP1 DUP4 PUSH2 0x1A8 SWAP2 SWAP1 PUSH2 0x417 JUMP JUMPDEST SWAP3 POP JUMPDEST POP DUP1 DUP1 PUSH1 0x1 ADD SWAP2 POP POP PUSH2 0x70 JUMP JUMPDEST POP DUP1 SWAP4 POP POP POP POP SWAP2 SWAP1 POP JUMP JUMPDEST PUSH0 PUSH1 0x40 MLOAD SWAP1 POP SWAP1 JUMP JUMPDEST PUSH0 PUSH0 REVERT JUMPDEST PUSH0 PUSH0 REVERT JUMPDEST PUSH0 PUSH0 REVERT JUMPDEST PUSH0 PUSH0 REVERT JUMPDEST PUSH0 PUSH1 0x1F NOT PUSH1 0x1F DUP4 ADD AND SWAP1 POP SWAP2 SWAP1 POP JUMP JUMPDEST PUSH32 0x4E487B7100000000000000000000000000000000000000000000000000000000 PUSH0 MSTORE PUSH1 0x41 PUSH1 0x4 MSTORE PUSH1 0x24 PUSH0 REVERT JUMPDEST PUSH2 0x224 DUP3 PUSH2 0x1DE JUMP JUMPDEST DUP2 ADD DUP2 DUP2 LT PUSH8 0xFFFFFFFFFFFFFFFF DUP3 GT OR ISZERO PUSH2 0x243 JUMPI PUSH2 0x242 PUSH2 0x1EE JUMP JUMPDEST JUMPDEST DUP1 PUSH1 0x40 MSTORE POP POP POP JUMP JUMPDEST PUSH0 PUSH2 0x255 PUSH2 0x1C5 JUMP JUMPDEST SWAP1 POP PUSH2 0x261 DUP3 DUP3 PUSH2 0x21B JUMP JUMPDEST SWAP2 SWAP1 POP JUMP JUMPDEST PUSH0 PUSH8 0xFFFFFFFFFFFFFFFF DUP3 GT ISZERO PUSH2 0x280 JUMPI PUSH2 0x27F PUSH2 0x1EE JUMP JUMPDEST JUMPDEST PUSH2 0x289 DUP3 PUSH2 0x1DE JUMP JUMPDEST SWAP1 POP PUSH1 0x20 DUP2 ADD SWAP1 POP SWAP2 SWAP1 POP JUMP JUMPDEST DUP3 DUP2 DUP4 CALLDATACOPY PUSH0 DUP4 DUP4 ADD MSTORE POP POP POP JUMP JUMPDEST PUSH0 PUSH2 0x2B6 PUSH2 0x2B1 DUP5 PUSH2 0x266 JUMP JUMPDEST PUSH2 0x24C JUMP JUMPDEST SWAP1 POP DUP3 DUP2 MSTORE PUSH1 0x20 DUP2 ADD DUP5 DUP5 DUP5 ADD GT ISZERO PUSH2 0x2D2 JUMPI PUSH2 0x2D1 PUSH2 0x1DA JUMP JUMPDEST JUMPDEST PUSH2 0x2DD DUP5 DUP3 DUP6 PUSH2 0x296 JUMP JUMPDEST POP SWAP4 SWAP3 POP POP POP JUMP JUMPDEST PUSH0 DUP3 PUSH1 0x1F DUP4 ADD SLT PUSH2 0x2F9 JUMPI PUSH2 0x2F8 PUSH2 0x1D6 JUMP JUMPDEST JUMPDEST DUP2 CALLDATALOAD PUSH2 0x309 DUP5 DUP3 PUSH1 0x20 DUP7 ADD PUSH2 0x2A4 JUMP JUMPDEST SWAP2 POP POP SWAP3 SWAP2 POP POP JUMP JUMPDEST PUSH0 PUSH1 0x20 DUP3 DUP5 SUB SLT ISZERO PUSH2 0x327 JUMPI PUSH2 0x326 PUSH2 0x1CE JUMP JUMPDEST JUMPDEST PUSH0 DUP3 ADD CALLDATALOAD PUSH8 0xFFFFFFFFFFFFFFFF DUP2 GT ISZERO PUSH2 0x344 JUMPI PUSH2 0x343 PUSH2 0x1D2 JUMP JUMPDEST JUMPDEST PUSH2 0x350 DUP5 DUP3 DUP6 ADD PUSH2 0x2E5 JUMP JUMPDEST SWAP2 POP POP SWAP3 SWAP2 POP POP JUMP JUMPDEST PUSH0 DUP2 SWAP1 POP SWAP2 SWAP1 POP JUMP JUMPDEST PUSH2 0x36B DUP2 PUSH2 0x359 JUMP JUMPDEST DUP3 MSTORE POP POP JUMP JUMPDEST PUSH0 PUSH1 0x20 DUP3 ADD SWAP1 POP PUSH2 0x384 PUSH0 DUP4 ADD DUP5 PUSH2 0x362 JUMP JUMPDEST SWAP3 SWAP2 POP POP JUMP JUMPDEST PUSH32 0x4E487B7100000000000000000000000000000000000000000000000000000000 PUSH0 MSTORE PUSH1 0x32 PUSH1 0x4 MSTORE PUSH1 0x24 PUSH0 REVERT JUMPDEST PUSH32 0x4E487B7100000000000000000000000000000000000000000000000000000000 PUSH0 MSTORE PUSH1 0x11 PUSH1 0x4 MSTORE PUSH1 0x24 PUSH0 REVERT JUMPDEST PUSH0 PUSH2 0x3EE DUP3 PUSH2 0x359 JUMP JUMPDEST SWAP2 POP PUSH2 0x3F9 DUP4 PUSH2 0x359 JUMP JUMPDEST SWAP3 POP DUP3 DUP3 SUB SWAP1 POP DUP2 DUP2 GT ISZERO PUSH2 0x411 JUMPI PUSH2 0x410 PUSH2 0x3B7 JUMP JUMPDEST JUMPDEST SWAP3 SWAP2 POP POP JUMP JUMPDEST PUSH0 PUSH2 0x421 DUP3 PUSH2 0x359 JUMP JUMPDEST SWAP2 POP PUSH2 0x42C DUP4 PUSH2 0x359 JUMP JUMPDEST SWAP3 POP DUP3 DUP3 ADD SWAP1 POP DUP1 DUP3 GT ISZERO PUSH2 0x444 JUMPI PUSH2 0x443 PUSH2 0x3B7 JUMP JUMPDEST JUMPDEST SWAP3 SWAP2 POP POP JUMP INVALID LOG2 PUSH5 0x6970667358 0x22 SLT KECCAK256 STOP PUSH6 0xB8FEA74808A1 0x21 PUSH12 0x972743C62D1379FC8CE0D61F PUSH15 0xCDABDC03CF4B16BBB364736F6C6343 STOP ADDMOD 0x1E STOP CALLER "
				},
				"gasEstimates": {
					"creation": {
						"codeDepositCost": "230400",
						"executionCost": "155653",
						"totalCost": "386053"
					},
					"external": {
						"romanToInt(string)": "infinite"
					}
				},
				"methodIdentifiers": {
					"romanToInt(string)": "cb159dfe"
				}
			},
			"storageLayout": {
				"storage": [
					{
						"astId": 5,
						"contract": "solidity_task1/RomaToInteger.sol:RomanToInteger",
						"label": "romanValues",
						"offset": 0,
						"slot": "0",
						"type": "t_mapping(t_bytes1,t_uint256)"
					}
				],
				"types": {
					"t_bytes1": {
						"encoding": "inplace",
						"label": "bytes1",
						"numberOfBytes": "1"
					},
					"t_mapping(t_bytes1,t_uint256)": {
						"encoding": "mapping",
						"key": "t_bytes1",
						"label": "mapping(bytes1 => uint256)",
						"numberOfBytes": "32",
						"value": "t_uint256"
					},
					"t_uint256": {
						"encoding": "inplace",
						"label": "uint256",
						"numberOfBytes": "32"
					}
				}
			},
			"userdoc": {
				"kind": "user",
				"methods": {},
				"version": 1
			}
		}
	}
}